:100000000C9458050C9480050C9480050C94800584
:100010000C9480050C9480050C9480050C9480054C
:100020000C9480050C9480050C9480050C9480053C
:100030000C9480050C9480050C9480050C9480052C
:100040000C94A71A0C9480050C94751A0C944F1AF2
:100050000C9480050C9480050C9480050C9480050C
:100060000C94F11A0C94800500000000003E5B4FD8
:100070005B3E3E6B4F6B3E1C3E7C3E1C183C7E3C08
:10008000181C577D571C1C5E7F5E1C00183C180016
:10009000FFE7C3E7FF0018241800FFE7DBE7FF30A6
:1000A000483A060E2629792926407F050507407F14
:1000B00005253F5A3CE73C5A7F3E1C1C08081C1C87
:1000C0003E7F14227F22145F5F005F5F06097F017D
:1000D0007F006689956A606060606094A2FFA29468
:1000E00008047E040810207E201008082A1C080836
:1000F0001C2A08081E101010100C1E0C1E0C303884
:100100003E3830060E3E0E06000000000000005F84
:1001100000000007000700147F147F14242A7F2AA0
:100120001223130864623649562050000807030062
:10013000001C2241000041221C002A1C7F1C2A08AE
:10014000083E080800807030000808080808000011
:1001500060600020100804023E5149453E00427F85
:10016000400072494949462141494D331814127FD4
:100170001027454545393C4A494931412111090774
:100180003649494936464949291E000014000000F5
:1001900040340000000814224114141414140041C7
:1001A00022140802015909063E415D594E7C121184
:1001B000127C7F494949363E414141227F414141BC
:1001C0003E7F494949417F090909013E4141517337
:1001D0007F0808087F00417F41002040413F017FA8
:1001E000081422417F404040407F021C027F7F0470
:1001F00008107F3E4141413E7F090909063E4151B9
:10020000215E7F09192946264949493203017F01A8
:10021000033F4040403F1F2040201F3F4038403FA9
:10022000631408146303047804036159494D4300BF
:100230007F4141410204081020004141417F0402F6
:10024000010204404040404000030708002054548D
:1002500078407F284444383844444428384444286B
:100260007F385454541800087E090218A4A49C78BE
:100270007F0804047800447D40002040403D007F1A
:100280001028440000417F40007C047804787C08FA
:100290000404783844444438FC18242418182424CE
:1002A00018FC7C08040408485454542404043F44B3
:1002B000243C4040207C1C2040201C3C4030403CE2
:1002C00044281028444C9090907C4464544C440042
:1002D00008364100000077000000413608000201A6
:1002E0000204023C2623263C1EA1A161123A404092
:1002F000207A38545455592155557941225454780F
:1003000042215554784020545579400C1E527212A7
:100310003955555559395454545939555454580030
:1003200000457C410002457D420001457C407D1234
:1003300011127DF0282528F07C5455450020545496
:100340007C547C0A097F4932494949323A44444441
:100350003A324A4848303A4141217A3A424020787C
:10036000009DA0A07D3D4242423D3D4040403D3C7D
:1003700024FF2424487E4943662B2FFC2F2BFF09A2
:1003800029F620C0887E0903205454794100004496
:100390007D413048484A32384040227A007A0A0A81
:1003A000727D0D19317D2629292F282629292926F4
:1003B00030484D4020380808080808080808382F39
:1003C00010C8ACBA2F102834FA00007B00000814C3
:1003D0002A142222142A14085500550055AA55AA99
:1003E00055AAFF55FF55FF000000FF00101010FF39
:1003F00000141414FF001010FF00FF1010F010F094
:10040000141414FC001414F700FF0000FF00FF1484
:1004100014F404FC141417101F10101F101F1414D0
:10042000141F00101010F0000000001F101010101A
:100430001F10101010F010000000FF10101010100E
:1004400010101010FF10000000FF140000FF00FF4C
:1004500000001F10170000FC04F4141417101714E8
:1004600014F404F40000FF00F7141414141414140A
:10047000F700F7141414171410101F101F1414147D
:10048000F4141010F010F000001F101F0000001FE7
:1004900014000000FC140000F010F01010FF10FF1A
:1004A000141414FF141010101F00000000F010FFAF
:1004B000FFFFFFFFF0F0F0F0F0FFFFFF0000000093
:1004C00000FFFF0F0F0F0F0F3844443844FC4A4A17
:1004D0004A347E02020606027E027E0263554941CC
:1004E000633844443C04407E201E2006027E020203
:1004F00099A5E7A5991C2A492A1C4C7201724C3017
:100500004A4D4D303048784830BC625A463D3E49ED
:100510004949007E0101017E2A2A2A2A2A44445F91
:10052000444440514A444040444A51400000FF0185
:1005300003E080FF000008086B6B08361236243693
:10054000060F090F060000181800000010100030F8
:1005500040FF0101001F01011E00191D1712003C80
:100560003C3C3C00000000002200FF210000010391
:10057000070F1F3F7F0080C0E0F0F8FCFE00000086
:1005800000230026002900000000080002010000EE
:100590000304070000000000000000000000002429
:1005A0000027002A00DB40A4A62EAF2000A1C8D35C
:1005B00000408DAED580A8010204081020408001C3
:1005C0000204081020010204081020000000002589
:1005D0000028002B000404040404040404020202A2
:1005E0000202020303030303030000600000000093
:1005F00000000000000000000000E000000000001B
:10060000000000000000000001E000000000000009
:100610000000000000000001F000000000000000E9
:1006200000000000000003F00000000000000000D7
:10063000000000000007F0000000000000000000C3
:100640000000000007F800000000000000000000AB
:100650000000000FF800000003C0007E000001E071
:10066000007F0FF800000003C000FE000001E00062
:10067000FFEFF800000003C000FE000001E000FFF3
:10068000FFF800000003C000F00000000F007FFE34
:100690007FC0000003C000F00000000F003FFE7F9D
:1006A000F83FF1FBCFFCFEF3BC3DEFE01FFE7FFF08
:1006B0007FFBFFDFFEFEFFBC3DEFE01FC6FFFF7FBD
:1006C000FBFFDFFEFEFFBC3DEFE00FE3C7FE787BE4
:1006D000C3DE1EF0FFBC3DEF0007FF87FC787BC345
:1006E000DE1EF0F83C3DEF0001FFFFF0007BC3C0D1
:1006F0001EF0F03C3DEF0001F37FE03FFBC3CFFE77
:10070000F0F03C3DEF0003E33F807FFBC3DFFEF0F2
:10071000F03C3DEF0007E73C00787BC3DE1EF0F0C5
:100720003C3DEF0007FFBE00787BC3DE1EF0F03CCF
:100730003DEF0007FFFE00787BC3DE1EF0F03C3D7E
:10074000EF000FFFFE007FFBFFDFFEF0F03FFDEF4D
:10075000E00FFFFF007FFBFFDFFEF0F03FFDEFE06B
:100760000FF9FF003E79F9CF9EF0F01F3DE7E01F43
:10077000F1FF0000000000000000000000001F80EA
:10078000FF007FFFFFFFFFFFFFFFFFFFE01C007F79
:10079000007FFFFFFFFEB46D888D18E000001F0092
:1007A0007FFFFFFFFE95AD7DB577E000000F007F76
:1007B000FFFFFFFEA5AD9D8D19E0000006007FFF45
:1007C000FFFFFEB5ADEDB57EE0000000000001804A
:1007D0000000000000000000000380000000000096
:1007E0000000000007C0000000000000000000073B
:1007F000C00000000000000000000FC0000000006A
:1008000000000000001FE0000000000000000000E9
:100810001FE00000000000000000003FE0000000BA
:100820000000000000003FF0000000000000000099
:10083000007FF0000000000000001FF87FF00000C3
:1008400000000000003FFE7FF000000000000000FC
:100850003FFF7FF0000000000000001FFFFBE000F2
:100860000000000000000FFFF9FFC00000000000C2
:10087000000FFFF9FFF800000000000007FFF1FF84
:10088000FF00000000000003FC73FFFF8000000079
:10089000000001FE3FFFFF80000000000000FF1E7F
:1008A0000FFF000000000000007FFE1FFC000000A2
:1008B000000000003FFFFFF8000000000000000FF4
:1008C000DFFFE0000000000000001F19FFC0000073
:1008D00000000000003F3CFF00000000000000009E
:1008E0007E7CF800000000000000007FFE7C00001D
:1008F000000000000000FFFFFC00000000000000FE
:1009000000FFFFFE0000000000000000FFFFFE00EF
:1009100000000000000001FFEFFE000000000000EA
:100920000001FFCFFE0000000000000003FF07FEF3
:100930000000000000000003FC07FE0000000000B3
:10094000000003F003FE0000000000000001800032
:10095000FE000000000000000000007E000000001B
:100960000000000000003E00000000000000000049
:10097000000C000000000000078000FC000003C025
:10098000000000078001FC000003C0000000078099
:1009900001FC000003C0000000078001E00000002F
:1009A0001E000000078001E00000001E007FE3F74A
:1009B0009FF9FDE7787BDFC0FFF7FFBFFDFDFF7804
:1009C0007BDFC0FFF7FFBFFDFDFF787BDFC0F0F7E7
:1009D00087BC3DE1FF787BDE00F0F787BC3DE1F0AE
:1009E000787BDE0000F787803DE1E0787BDE007FEA
:1009F000F7879FFDE1E0787BDE00FFF787BFFDE131
:100A0000E0787BDE00F0F787BC3DE1E0787BDE003C
:100A1000F0F787BC3DE1E0787BDE00F0F787BC3D76
:100A2000E1E0787BDE00FFF7FFBFFDE1E07FFBDF69
:100A3000C0FFF7FFBFFDE1E07FFBDFC07CF3F39F6A
:100A40003DE1E03E7BCFC000000000000000000060
:100A50000000FFFFFFFFFFFFFFFFFFFFC0FFFFFFE3
:100A6000FFFD68DB111A31C0FFFFFFFFFD2B5AFBB2
:100A70006AEFC0FFFFFFFFFD4B5B3B1A33C0FFFF78
:100A8000FFFFFD6B5BDB6AFDC053534431333036EF
:100A900020616C6C6F636174696F6E206661696C54
:100AA0006564001F1C1F1E1F1E1F1F1E1F1E101C03
:100AB00011241FBECFEFD8E0DEBFCDBF23E0A6E9F3
:100AC000B1E001C01D92A930B207E1F711E0A0E04A
:100AD000B1E0E6E6F2E502C005900D92A639B10755
:100AE000D9F715E0C8E5D5E004C02197FE010E94C2
:100AF0000827C735D107C9F70E94491C0C94312932
:100B00000C940000089508953F924F925F926F9267
:100B10007F928F929F92AF92BF92CF92DF92EF928D
:100B2000FF920F931F93CF93DF9300D000D0CDB7E8
:100B3000DEB79C838B833B016A015901DC01ED9197
:100B4000FC910284F385E02D09952801B7E04B0E56
:100B5000511C93E0559447949A95E1F7C6018E0D88
:100B60009F1D9A838983912C812C312CF12CE12CAF
:100B7000C70187709927330C892B59F4F70183E05B
:100B8000F595E7958A95E1F7E80DF91DEA0DFB1D4E
:100B9000349037FE10C0AB81BC81ED91FC91119770
:100BA0000484F585E02D21E030E0A601B701660D53
:100BB000771DCD010995BFEFEB1AFB0A0E151F0536
:100BC000B9F68FEFC81AD80A840C951CA981BA818E
:100BD000CA16DB0659F6AB81BC81ED91FC911197E9
:100BE0000688F789E02DCD010F900F900F900F90A0
:100BF000DF91CF911F910F91FF90EF90DF90CF90F9
:100C0000BF90AF909F908F907F906F905F904F902C
:100C10003F90099408950F931F93CF93DF93EC01B6
:100C2000FB014481558160817181E881F9810280F5
:100C3000F381E02D09958C01E881F9810280F3812F
:100C4000E02D42E050E062E671E0CE010995800FB0
:100C5000911FDF91CF911F910F910895AF92BF9295
:100C6000CF92DF92EF92FF920F931F93CF93DF9378
:100C70006C017B018B01040F151FEB015E01AE18A7
:100C8000BF08C017D10759F06991D601ED91FC91C9
:100C90000190F081E02DC6010995892B79F7C501F6
:100CA000DF91CF911F910F91FF90EF90DF90CF9048
:100CB000BF90AF900895FC01538D448D252F30E0F7
:100CC000842F90E0821B930B541710F0CF96089559
:100CD00001970895FC01918D828D981761F0A28D86
:100CE000AE0FBF2FB11D5D968C91928D9F5F9F734C
:100CF000928F90E008958FEF9FEF08952FB7F894AB
:100D00008091E2019091E301A091E401B091E501AD
:100D10002FBF8093640290936502A0936602B09304
:100D200067028CE592E00E946A0697FF26C02FB703
:100D3000F8948091E2019091E301A091E401B091D7
:100D4000E5012FBF409164025091650260916602F7
:100D500070916702841B950BA60BB70B4091600244
:100D6000509161026091620270916302841795074D
:100D7000A607B707B0F28FEF9FEF0895FC01918DA2
:100D8000828D981731F0828DE80FF11D858D90E0EE
:100D900008958FEF9FEF0895FC01918D228D892F8B
:100DA00090E0805C9F4F821B91098F739927089573
:100DB0008CE592E00E94CC0621E0892B09F420E02A
:100DC000822F089580E090E0892B29F00E94D806B8
:100DD00081110C9400000895FC01A48DA80FB92F77
:100DE000B11DA35ABF4F2C91848D90E001968F7353
:100DF0009927848FA689B7892C93A089B1898C9172
:100E0000837080648C93938D848D981306C00288C0
:100E1000F389E02D80818F7D80830895EF92FF928A
:100E20000F931F93CF93DF93EC0181E0888F9B8D0D
:100E30008C8D98131AC0E889F989808185FF15C0C7
:100E40009FB7F894EE89FF896083E889F9898081EA
:100E50008370806480839FBF81E090E0DF91CF91B9
:100E60001F910F91FF90EF900895F62E0B8D10E0DB
:100E70000F5F1F4F0F731127E02E8C8D8E110CC04A
:100E80000FB607FCFACFE889F989808185FFF5CF95
:100E9000CE010E94EC06F1CFEB8DEC0FFD2FF11D82
:100EA000E35AFF4FF0829FB7F8940B8FEA89FB89D2
:100EB00080818062CFCFCF93DF93EC01888D882330
:100EC000B9F0AA89BB89E889F9898C9185FD03C0AD
:100ED000808186FD0DC00FB607FCF7CF8C9185FF92
:100EE000F2CF808185FFEDCFCE010E94EC06E9CFE5
:100EF000DF91CF910895833081F028F4813099F00B
:100F00008230A9F008958730A9F08830C9F0843084
:100F1000B1F4809180008F7D03C0809180008F7735
:100F200080938000089584B58F7784BD089584B53B
:100F30008F7DFBCF8091B0008F778093B0000895B4
:100F40008091B0008F7DF9CFCF93DF93282F30E0D1
:100F5000F901E957FA4F8491F901E954FA4FD49114
:100F6000F901EB52FA4FC491CC23A1F081110E94F8
:100F70007B07EC2FF0E0EE0FFF1FE358FA4FA5912F
:100F8000B491EC91ED2381E090E009F480E0DF91F1
:100F9000CF91089580E090E0FACF1F93CF93DF9335
:100FA000282F30E0F901E957FA4F8491F901E9540B
:100FB000FA4FD491F901EB52FA4FC491CC23A9F026
:100FC000162F81110E947B07EC2FF0E0EE0FFF1F20
:100FD000E553FA4FA591B4918FB7F894EC911111A4
:100FE00008C0D095DE23DC938FBFDF91CF911F9196
:100FF0000895DE2BF8CFCF93DF9390E0FC01E95406
:10100000FA4F24918B529A4FFC0184918823D1F09E
:1010100090E0880F991FFC01E556FA4FA591B49115
:10102000FC01E553FA4FC591D49161110EC09FB7F1
:10103000F8948C91E22FE0958E238C932881E22303
:10104000E8839FBFDF91CF9108958FB7F894EC911B
:10105000E22BEC938FBFF6CF1F93CF93DF93182F24
:10106000EB0161E00E94FB07209739F460E0812FDB
:10107000DF91CF911F910C94CD07CF3FD10511F493
:1010800061E0F5CFE12FF0E0E957FA4FE491E3306A
:1010900031F140F4E130B1F0E230E1F0C038D10597
:1010A0007CF7E4CFE73029F1E83059F1E430B1F7CB
:1010B00080918000806280938000D0938B00C093E9
:1010C0008A0004C084B5806884BDC7BDDF91CF911C
:1010D0001F91089584B5806284BDC8BDF7CF80910B
:1010E0008000806880938000D0938900C09388003E
:1010F000EDCF8091B00080688093B000C093B300C2
:10110000E5CF8091B00080628093B000C093B400BE
:10111000DDCF3FB7F8948091DB019091DC01A09185
:10112000DD01B091DE0126B5A89B05C02F3F19F067
:101130000196A11DB11D3FBFBA2FA92F982F882757
:10114000BC01CD01620F711D811D911D42E0660F32
:10115000771F881F991F4A95D1F708958F929F9204
:10116000AF92BF92CF92DF92EF92FF924B015C0160
:101170000E9489086B017C010E9489086C197D0915
:101180008E099F09683E734081059105A8F321E00F
:10119000821A9108A108B10888EEC80E83E0D81E13
:1011A000E11CF11C81149104A104B10429F7FF9002
:1011B000EF90DF90CF90BF90AF909F908F90089569
:1011C000EF92FF920F931F93CF93DF93EC01EC808C
:1011D000FD806E157F050CF070C057FF04C0240F12
:1011E000351F50E040E08E819F81FA01E20FF31F2E
:1011F0008E179F071CF49C01241B350B1216130637
:101200000CF05BC0922F842F8695869586958E9DD7
:10121000D0018F9DB00D11246A0F7B1FAF8DB8A137
:10122000A60FB71F477049F188E0841B482F682F2D
:1012300070E0FB01EB58FA4FE491281708F063C007
:10124000621B71092FEF30E002C0359527956A9532
:10125000E2F7E2230130110539F0B0F10230110557
:1012600061F58C91E82702C08C91E82BEC939417E0
:1012700020F12C813D81A20FB31FE92FE41BE83040
:1012800078F00230110521F58E2F9C9190959C935A
:101290002C813D81A20FB31F88508830B0F7E770D2
:1012A000EE2359F0F0E0E359FA4FE49101301105D3
:1012B000F9F010F10230110519F1DF91CF911F9172
:1012C0000F91FF90EF900895E0958C91E823CECF99
:1012D00081E00115110509F480E081959E2F8C9322
:1012E0002C813D81A20FB31F98509830C0F7D7CF03
:1012F0008C91E82BEC93E1CFE0958C91E823FACF29
:101300008C91E827F7CF0130110509F4ADCFE0F259
:101310000230110509F4A5CFAE0DBF1DAECF0F935E
:101320001F93CF93DF9377FF04C0260F371F70E022
:1013300060E0DC011496CD91DC91FB01E20FF31F1C
:10134000CE17DF071CF49E01261B370B121613065F
:101350004CF5FA0157FD3796A3E0F595E795AA9568
:10136000E1F7EC9FD001ED9FB00DFC9FB00D112473
:101370006A0F7B1FDC015F96ED91FC91E60FF71F72
:101380004770552781E090E001C0880F4A95EAF741
:10139000482F0130110559F0A8F02E0F3F1F0230E1
:1013A0001105E1F0DF91CF911F910F9108952E0F5C
:1013B0003F1FE217F307B1F38191DF011197842BEF
:1013C0008C93F7CF80952E0F3F1FE217F30751F351
:1013D0009191DF01119798239C93F7CFE217F307C0
:1013E00009F38191DF01119784278C93F7CF0F9335
:1013F0001F93FA01DC0156964C9156974230E9F062
:101400004330A1F1413061F514964D915C91DA01C0
:10141000AE1BBF0BFD01E21BF30B77FD0BC0DC0124
:1014200016964D915C916417750724F4AB01BF01CA
:101430000E948F091F910F91089514964D915C9110
:10144000DA01A61BB70BBD0161507109DC011696CC
:101450004D915C91DA01AE1BBF0BFD01E21BF30B5A
:1014600077FDE8CFAF010E94E008E4CF16964D91DA
:101470005C91DA01A61BB70BBD0161507109CDCF9C
:101480000F931F93FA01DC0156964C915697423008
:10149000A9F0433091F1413019F514964D915C91CA
:1014A000DA01AE1BBF0BFD013197F7FD04C0AB01A4
:1014B000BF010E94E0081F910F91089514964D916D
:1014C0005C91DA01A61BB70BBD01DC0116964D91AC
:1014D0005C91DA01AE1BBF0BFD013197621B730BF0
:1014E000F7FDE9CFDC0116964D915C91E417F50705
:1014F00014F7AF010E948F09DECF16964D915C91D3
:10150000DA01A61BB70BBD01621B730BCECFFC012A
:1015100077FD64C080859185681779070CF05EC0FF
:1015200057FD5CC082859385481759070CF056C05B
:1015300086898230B1F0833029F1813041F4848191
:101540009581841B950BAB01BC0161507109213061
:10155000310509F108F443C02230310509F463C0B4
:10156000089584819581DC01A61BB70BBD016150F4
:10157000710986819781DC01A41BB50BAD01415037
:101580005109E5CF86819781861B970BBA01AC0183
:1015900041505109DCCFCA0157FD0796A3E095954C
:1015A0008795AA95E1F7A481B5818A9F90018B9FC9
:1015B000300D9A9F300D1124620F731F078CF0A11C
:1015C000E02DE60FF71F4770552721E030E001C0FE
:1015D000220F4A95EAF78081822B80830895CA0101
:1015E00057FD079633E0959587953A95E1F7A481E5
:1015F000B5818A9F90018B9F300D9A9F300D1124E9
:10160000620F731F078CF0A1E02DE60FF71F4770E4
:10161000552781E090E001C0880F4A95EAF7809550
:1016200090818923DACFCA0157FD079623E095956B
:1016300087952A95E1F7A481B5818A9F90018B9FB8
:10164000300D9A9F300D1124620F731F078CF0A18B
:10165000E02DE60FF71F4770552721E030E001C06D
:10166000220F4A95EAF780818227B7CF8EBD00000E
:101670000DB407FEFDCF8EB508950895FC0163708B
:10168000668B8481958126813781613039F06330A2
:1016900029F09187808733872287089531872087B3
:1016A0009387828708952F923F924F925F926F9215
:1016B0007F928F929F92AF92BF92CF92DF92EF92E2
:1016C000FF920F931F93CF93DF93CDB7DEB76A9747
:1016D0000FB6F894DEBF0FBECDBF9A8F898F7A8385
:1016E00069834A01D22E18870F833701BC2CDC0195
:1016F00059962D913C915A972115310509F015C144
:1017000018968D919C911997681779070CF0D7C19D
:101710001A968D919C91481759070CF0D0C14C2C0A
:10172000512CB6E0CB9E600D711D11247C876B8718
:10173000161617060CF0C3C1EA2DF0E0FA87E98708
:1017400093E0EE0FFF1F9A95E1F7F88BEF87CF013B
:10175000840F951F181619060CF0B1C1A98DBA8D0A
:1017600058968C91811104C0BFEABD1508F4D3943A
:10177000A98DBA8DED91FC9111970284F385E02D2E
:10178000CD010995B5E0DB9EC0011124E981FA8104
:10179000FC83EB83312C212C9C0128593F4F388F3F
:1017A0002F8B4A2D50E05E8B4D8BEF89F88DE20D2B
:1017B000F31D44919E828D82D12CC12C69817A8146
:1017C000620D731D7A8B698B842F90E09C8B8B8BC1
:1017D000E98DFA8DA081B18140FF82C0F1E0BF1296
:1017E0006FC0AF126DC01C96ED91FC912F813885B2
:1017F000A4014C0D5D1D69897A89898D9A8D0995A1
:10180000EB89FC89F595E7954E2F5FEFC51AD50A50
:101810006D817E818D899E89680F791F7E836D839E
:1018200098E0C916D10481F6AFEF2A1A3A0AEB8183
:10183000FC81E40DF51DFC83EB83F5E02F163104EC
:1018400009F0B3CF2F81388526153705B9F0A98D5A
:10185000BA8DED91FC91B1E0BB1257C0AB1255C0EF
:1018600069817A816B5F7F4F0088F189E02D830168
:1018700028E030E0A401898D9A8D0995A98DBA8D53
:10188000ED91FC9111970688F789E02DCD016A96BC
:101890000FB6F894DEBF0FBECDBFDF91CF911F9181
:1018A0000F91FF90EF90DF90CF90BF90AF909F90FF
:1018B0008F907F906F905F904F903F902F90099402
:1018C0001E96ED91FC91EF80F88409851A859201AE
:1018D0004D815E816B817C81898D9A8D099590CF38
:1018E0002F8138852615370509F48ACF31E0B312E8
:1018F00007C0A31205C01C96ED91FC91930178CF0F
:101900001E96ED91FC917301E0CF6B857C85641987
:1019100075090684F785E02D73010F8518899201FA
:10192000A401898D9A8D0995A9CFF90134969491D6
:10193000329745915491D91AB7E0DB9E400D511D65
:101940001124F901259134913C8B2B8BFA012590C0
:101950003490FA013296749031963491398B3296E4
:1019600064903196449041E04C1518F04A1508F007
:101970007FC0662D062C000C770B7C836B83842D37
:10198000042C000C990B9E838D83A98DBA8DED914B
:10199000FC9111970284F385E02DCD010995512C1E
:1019A000D12CC12CEA2DF0E0FA87E9872B2D30E00D
:1019B0003C872B87A401440D511D47FC5A95588F35
:1019C0004F8B69817A81660D711D67FC7A957E87E0
:1019D0006D877989C71608F051CF2C2D30E04D81E5
:1019E0005E81420F531FA985BA854A9FC0014B9F54
:1019F000900D5A9F900D1124FC01E80DF91DF88BF4
:101A0000EF87852D612C4F89588D420F531F5E8BB8
:101A10004D8B671408F050C044244394480E8770DF
:101A200041F4C1010196EB89FC89E20DF31DD490CC
:101A30001C01D7FE19C0A98DBA8DED91FC91662DC0
:101A400070E0B1E0BB1219C0AB1217C02D853E8506
:101A5000620F731F0484F585E02D2F8138854D8931
:101A60005E89898D9A8D0995DD0C6394842DD1CF83
:101A70001E821D821C821B8288CF4B815C81640F79
:101A8000751FAB85BC856A9FC0016B9F900D7A9FC7
:101A9000900D112469817A81680F791F0684F7857A
:101AA000E02DEF80F88409851A859D014F855889BE
:101AB000898D9A8D0995D8CF570CC3948ACF6A9691
:101AC0000FB6F894DEBF0FBECDBFDF91CF911F914F
:101AD0000F91FF90EF90DF90CF90BF90AF909F90CD
:101AE0008F907F906F905F904F903F902F900895D0
:101AF0008F929F92AF92CF92EF92FF920F931F938C
:101B0000CF93DF93EC01262F898D9A8D009709F0F2
:101B100051C06A30D1F41D861C868D8948E0849FAF
:101B2000900111248E859F85820F931F9F878E873A
:101B300081E090E0DF91CF911F910F91FF90EF90A6
:101B4000CF90AF909F908F9008956D3089F3CC889F
:101B5000AD888F898823C1F08C859D8536E0C39E32
:101B6000800D911D1124488559854817590764F443
:101B70004E855F851D861C8638E0A39EC00111241A
:101B8000840F951F9F878E87EA88FB8808891989AB
:101B90004E855F856C857D85CE010E94530B2C8917
:101BA0008C859D8546E0249F800D911D11249D8785
:101BB0008C87BECF6A3069F41D861C86FC0138967E
:101BC000E4912D898E859F85E29F800D911D1124C2
:101BD000ADCF6D3009F4ACCFFC013496349163176E
:101BE00008F4A6CF3296E491E61708F4A1CFFC01E1
:101BF000329685909490462F431B342F47E0349FB4
:101C0000800C911C1124F401329634913196E491A8
:101C10003323A9F1EE2399F1CC88F4013596E491B0
:101C2000AD884F89442301F10E2E000CFF0BE30F0A
:101C3000F11DCE9EA001CF9E500D11246C857D8597
:101C4000460F571F68857985641775076CF44E85B4
:101C50005F851D861C86FC013896E491AE9E400D82
:101C6000511D11245F874E87EA88FB8808891989EE
:101C70004E855F856C857D85CE010E94530BF401F6
:101C80003496E4912C898C859D85E29F800D911D71
:101C900011248DCF6F927F928F929F92AF92BF92BD
:101CA000CF92DF92EF92FF920F931F93CF93DF9328
:101CB000EC016B015A0139014801E881F981028484
:101CC000F385E02D0995E881F9810288F389E02DFB
:101CD00087019301A501B601CE010995A501480D23
:101CE000591D41505109E881F9810288F389E02D9D
:101CF0009301B601CE010995E881F9810088F18947
:101D0000E02D9401A501B601CE010995C60CD71CA2
:101D1000B60161507109E881F9810088F189E02DEF
:101D20009401A501CE010995E881F9810688F7891A
:101D3000E02DCE01DF91CF911F910F91FF90EF9099
:101D4000DF90CF90BF90AF909F908F907F906F90DB
:101D500009946F927F928F929F92AF92BF92CF928F
:101D6000DF92EF92FF920F931F93CF93DF935C016B
:101D7000EB016A01490138018701DC01ED91FC9119
:101D80006217730719F5641675062CF0962D872DCA
:101D90003A01C92ED82E9601261937092F5F3F4FD9
:101DA000048CF58DE02DA301BE01C5010995DF91DD
:101DB000CF911F910F91FF90EF90DF90CF90BF9048
:101DC000AF909F908F907F906F9008954615570524
:101DD00091F42617370724F0892D4B01C22FD82FF5
:101DE0009E01281939092F5F3F4F068CF78DE02D92
:101DF000A601B401DACF0284F385E02D0995D5015F
:101E0000ED91FC910488F589E02D83019401A601F0
:101E1000BE01C5010995D501ED91FC910688F789B0
:101E2000E02DC501DF91CF911F910F91FF90EF90B1
:101E3000DF90CF90BF90AF909F908F907F906F90EA
:101E40000994EF92FF920F931F93DC011A960D9164
:101E50001C911B9718962D913C911997ED91FC912F
:101E600000A0F1A1E02D7B0150E040E070E060E0D7
:101E700009951F910F91FF90EF9008954F925F92F7
:101E80006F927F928F929F92AF92BF92CF92DF928A
:101E9000EF92FF920F931F93CF93DF936C012B016F
:101EA0005A0139014801DC01ED91FC910284F3856E
:101EB000E02D0995E201640C751CD601ED91FC91B1
:101EC000C615D7055CF40088F189E02D87019401DF
:101ED000A501BE01C60109952196EFCF0688F789B5
:101EE000E02DC601DF91CF911F910F91FF90EF90F0
:101EF000DF90CF90BF90AF909F908F907F906F902A
:101F00005F904F9009948F929F92AF92BF92CF9221
:101F1000DF92EF92FF920F931F93CF93DF93EC0129
:101F20005B014A016901E881F9810284F385E02DB2
:101F3000099595012C0D3D1D21503109E881F9814C
:101F40000488F589E02D78018401A401B501CE0152
:101F50000995E881F9810688F789E02DCE01DF91A6
:101F6000CF911F910F91FF90EF90DF90CF90BF9096
:101F7000AF909F908F9009948F929F92AF92BF9253
:101F8000CF92DF92EF92FF920F931F93CF93DF9345
:101F9000EC015B014A0169017801E881F981028461
:101FA000F385E02D0995C80CD91C86010150110953
:101FB000E881F9810488F589E02D9501A401B50136
:101FC000CE010995E881F9810688F789E02DCE01D7
:101FD000DF91CF911F910F91FF90EF90DF90CF9005
:101FE000BF90AF909F908F9009940895EF92FF92C9
:101FF0000F931F93DC01ED91FC9100A0F1A1E02D66
:1020000009951F910F91FF90EF9008950F931F93E3
:10201000DC01ED91FC91068CF78DE02D09951F9167
:102020000F9108950F931F93DC01ED91FC91048CA7
:10203000F58DE02D09951F910F910895DC01ED912B
:10204000FC910084F185E02D09942F923F924F92EC
:102050005F926F927F928F929F92AF92BF92CF9238
:10206000DF92EF92FF920F931F93CF93DF9300D0F5
:1020700000D000D0CDB7DEB73C016A013E832D838E
:10208000FC82EB825801A41AB50AB7FE03C0B194D2
:10209000A194B1088D809E80861A970A97FE03C08E
:1020A0009194819491088A149B045CF0902F812F65
:1020B0000D811E819D838E839C2D8D2D6B01692F3B
:1020C000782F0C151D055CF09D818E817E836D83BC
:1020D000692F782F902F812F8601C92ED82E1601B7
:1020E000201A310A2B012D813E81421A530A57FED4
:1020F00003C0519441945108710137FE03C03FEF72
:10210000E31AF30AF594E7948D819E818617970769
:102110005CF5A1E0B0E0BA83A983C016D1064CF10A
:10212000D301ED91FC910484F585E02D2B813C8158
:10213000A8016D817E818A149B041CF04D815E8113
:10214000B801C3010995E418F508F7FE0AC02D810E
:102150003E8189819A81280F391F3E832D83E20CAD
:10216000F31C0F5F1F4FD9CF2FEF3FEF3A83298327
:10217000D4CF26960FB6F894DEBF0FBECDBFDF9149
:10218000CF911F910F91FF90EF90DF90CF90BF9074
:10219000AF909F908F907F906F905F904F903F9007
:1021A0002F90089508958CBD9DBD0895FC01618117
:1021B0009081492F50E08281282F30E0E3EAFAE055
:1021C00081E0861730F47491270F311D8F5F3196AF
:1021D000F8CF633020F0937011F42F5F3F4F6DE61E
:1021E00071E0469FC001479F900D569F900D1124AE
:1021F00005964D5F5F4F5695479556954795840FC9
:10220000951F820F931F67E070E00E94BE2608951D
:102210002091B701260F3327331F21323105ECF40B
:1022200020913202FC0190E080E0243069F082E0ED
:102230000895A091B7012191AC0149565E4FA40FBA
:10224000B52FB11D2C930196861798F38091B70195
:10225000680F6093B70180E0089581E008951092BF
:10226000320281E08093310210920C0261E082E13F
:102270000E94CD0761E083E10E94CD07E9EBF0E029
:1022800080818E7F808380818D7F808388E48093AE
:10229000B80085E48093BC00089510920B02109260
:1022A0000A021092390210925B020E942F1182E8FA
:1022B00095E0909309028093080283E895E090935B
:1022C0000702809306020895CF93DF9391E09093E5
:1022D00096018823B9F0C091B800D091BA008091DE
:1022E000BC008A7B8093BC0060E082E10E94CD0745
:1022F00060E083E10E94CD070E942F11D093BA00C5
:10230000C093B800DF91CF9108958F929F92AF92C2
:10231000BF92CF92DF92EF92FF920F931F93CF93D2
:10232000DF93D0915B02D13208F0D7C0182FC09153
:102330005A020E9489086B017C018091320281114E
:102340006BC082E080933202109331028FEF809352
:10235000300210922F02D0932E02AAE3B2E0EEE0F8
:10236000F2E080E0D81391C010920D0280910D022E
:10237000CC0FC82BC0930D0280910C02813009F064
:1023800088C010920C020E9489086B017C01809128
:102390000D028093BB008091340290913502A09190
:1023A0003602B0913702892B8A2B8B2BA1F00E9429
:1023B0008908009134021091350220913602309143
:1023C00037026C197D098E099F0906171707280720
:1023D000390708F442C08091BC0083FDD8CF85EC5A
:1023E0008093BC000E9489086B017C0180913202BD
:1023F000823009F450C0809130028F3F09F46FC0E1
:1024000080913002803209F46CC0809130028033B8
:1024100009F469C084E026C08091340290913502AD
:10242000A0913602B0913702892B8A2B8B2B09F4AD
:1024300084CF0E9489088090340290903502A09049
:102440003602B09037026C197D098E099F098616F5
:102450009706A806B90608F070CF809133020E9453
:10246000641185E01092390210925B0210923802DA
:10247000DF91CF911F910F91FF90EF90DF90CF9060
:10248000BF90AF909F908F9008959D9191938F5F93
:1024900069CF85EEA5CF8091340290913502A0914D
:1024A0003602B0913702892B8A2B8B2B09F49ECFF1
:1024B0000E94890800913402109135022091360261
:1024C000309137026C197D098E099F09061717078D
:1024D0002807390708F08ACFC0CF81E0C3CF80E05A
:1024E000C1CF82E0BFCF83E0BDCFE0910B028091EE
:1024F0000A02E81730F4F0E0EA51FE4F808190E0E4
:1025000008958FEF9FEF089590910B0280910A023A
:102510002FEF3FEF981748F4E92FF0E0EA51FE4F14
:10252000208130E09F5F90930B02C9010895809154
:102530000A0290910B02891B990B0895CF92DF92AA
:10254000EF92FF920F931F93CF93DF937C01CB0108
:102550008A0120913802222389F0EB016B01C40E1D
:10256000D51ECC15DD0569F06991D701ED91FC917F
:102570000190F081E02DC7010995F3CF642F0E94EF
:102580000811C801DF91CF911F910F91FF90EF903B
:10259000DF90CF900895CF93DF931F92CDB7DEB732
:1025A0006983209138022223F9F020915B022032C6
:1025B00058F021E030E0FC013383228390E080E09A
:1025C0000F90DF91CF91089580913902E82FF0E0CC
:1025D000E65CFD4F998190838F5F809339028093F1
:1025E0005B0281E090E0ECCF61E0CE0101960E94B9
:1025F0000811F7CF81E00C948511CF92DF92EF9212
:10260000FF920F931F93CF93DF93EC016B01142F75
:102610008D8D9E8D009709F454C029A131E030932F
:10262000380220935A021092390210925B02DC01A8
:10263000ED91FC910190F081E02D60E0099576012B
:10264000CC24C394D12C01E011508D8D9E8D1F3F61
:1026500071F1B0E2CB16D104C0F00E94FA128D8D58
:102660009E8D29A10093380220935A0210923902BC
:1026700010925B02DC01ED91FC910190F081E02D64
:1026800060E00995CC24C394D12C8D8D9E8DF701EB
:102690006491DC01ED91FC910190F081E02D0995B0
:1026A000BFEFCB1ADB0AEFEFEE1AFE0ACDCFDF91B8
:1026B000CF911F910F91FF90EF90DF90CF900C94EE
:1026C000FA12EDA5FEA590818BA9809589238083C0
:1026D0007B01115070F1F70184912B8D3C8D232BE0
:1026E00031F00E94360BFFEFEF1AFF0AF2CF28E01D
:1026F00030E040E8E9A5FAA599A9582F5423A9F09C
:102700005081952B9083EBA5FCA590815AA9952B20
:102710009083EBA5FCA550819AA990959523908371
:1027200046952150310931F7DECF508190959523A0
:10273000E9CFDF91CF911F910F91FF90EF90DF9044
:10274000CF9008951F93CF93DF93EC018D8D9E8DD5
:10275000009721F1162F29A131E030933802209300
:102760005A021092390210925B02DC01ED91FC9149
:102770000190F081E02D60E009958D8D9E8DDC014A
:10278000ED91FC910190F081E02D612F09958D8DE7
:102790009E8DDF91CF911F910C94FA12ADA5BEA52D
:1027A0009C918BA9809589238C938B8D9C8D892BF3
:1027B00031F0862FDF91CF911F910C94360B28E0DA
:1027C00030E080E8A9A5BAA599A9462F4823C1F011
:1027D0004C91942B9C93ABA5BCA59C914AA9942B9E
:1027E0009C93ABA5BCA54C919AA9909594239C93DE
:1027F00086952150310931F7DF91CF911F910895CE
:102800004C9190959423E6CF1F93CF93DF93EC01E7
:10281000162F8D8D9E8D892BB1F12DA93EA94FA923
:1028200058AD60E074E284EF90E00E94E62620510B
:1028300031094109510956954795379527952093B8
:10284000B80066EA111167EACE010E94A2138D8DCD
:102850009E8D892B41F129AD3AAD4BAD5CAD60E069
:1028600074E284EF90E00E94E6262051310941098C
:10287000510956954795379527952093B800DF91D4
:10288000CF911F9108958B8D9C8D892B21F08EAD5A
:102890009FAD0E94D310EFA5F8A990818CA98095D7
:1028A00089238083CECFEFA5F8A980819CA9892BAD
:1028B0008083E5CFBF92CF92DF92EF92FF920F938A
:1028C0001F93CF93DF93EC018D8D9E8D892B09F49F
:1028D00084C02DA93EA94FA958AD60E074E284EFF1
:1028E00090E00E94E6262051310941095109569590
:1028F0004795379527952093B80045E068E675E041
:10290000CE010E94FD126C816150CE010E94A21383
:102910002E813F81C901079697FD079633E0959573
:1029200087953A95E1F72C813D81829F7001839FC5
:10293000F00C929FF00C11240F8D18A18D8D9E8D9F
:10294000E00EF11E009709F47DC029A131E030931B
:10295000380220935A021092390210925B02DC0175
:10296000ED91FC910190F081E02D60E40995CC247B
:10297000C394D12CBB24B3948D8D9E8DE016F106AB
:10298000E1F1B0E2CB16D104C0F00E94FA128D8DB5
:102990009E8D29A1B092380220935A0210923902DA
:1029A00010925B02DC01ED91FC910190F081E02D31
:1029B00060E40995CC24C394D12C8D8D9E8DF801B3
:1029C00061918F01DC01ED91FC910190F081E02D8E
:1029D0000995BFEFCB1ADB0ACFCF8B8D9C8D892B4E
:1029E00021F08EAD9FAD0E94D310EFA5F8A9908184
:1029F0008CA980958923808380CF0E94FA128D8DC7
:102A00009E8D892B09F453C029AD3AAD4BAD5CAD19
:102A100060E074E284EF90E00E94E62620513109E4
:102A20004109510956954795379527952093B80048
:102A3000DF91CF911F910F91FF90EF90DF90CF909A
:102A4000BF900895EDA5FEA580819BA9892B808369
:102A5000E016F106A1F2F80181918F012B8D3C8DDA
:102A6000232B19F00E94360BF3CF28E030E040E82A
:102A7000E9A5FAA599A9582F5423A9F05081952BBF
:102A80009083EBA5FCA590815AA9952B9083EBA58B
:102A9000FCA550819AA99095952390834695215045
:102AA000310931F7D5CF508190959523E9CFEFA526
:102AB000F8A980819CA9892B8083BACFCF93DF931B
:102AC000EC018B818823A9F089819A81288131E0EA
:102AD0003093380220935A021092390210925B020E
:102AE0000E94FA1291E0811190E0892FDF91CF913D
:102AF00008950E944D1181E08B83CE010E945E15E6
:102B0000982F8111E1CFF1CF90E080E00895CF932D
:102B1000DF93EC016E817F81072E000C880B990BEF
:102B20000E9450242C853D854E855F850E94AF24F0
:102B30000E94832688810E942C0868857985072E4B
:102B4000000C880B990B0E9450242C853D854E85E6
:102B50005F850E94AF240E9483268A810E942C08F0
:102B60006A857B85072E000C880B990B0E945024E8
:102B70002C853D854E855F850E94AF240E9483266B
:102B80008C81DF91CF910C942C08FC01808591857C
:102B90000C945A140F93DC011896ED91FC910111DD
:102BA00001C001E0048B058B81E090E0938B828B68
:102BB000918B808B5587448737872687CF010F916C
:102BC0000C940B067F928F929F92AF92BF92CF92FE
:102BD000DF92EF92FF920F931F93CF93DF93CDB7C6
:102BE000DEB72C970FB6F894DEBF0FBECDBF7B01CA
:102BF0006C015C018AE0A80EB11CD6010D911D91FB
:102C00006D01F8014085518582858F839385988772
:102C10006485698775847A86A685AB8727852C8726
:102C2000F7012081298331813A8372817B838380FC
:102C30008C82B481BD8395809E82BA1731F0AC142A
:102C4000BD04D9F610E000E015C08710F8CF761764
:102C500031F14115510571F04130510581F7CE0137
:102C600001960E94D610982ECE0107960E94D6108B
:102C70009812E5CFC8012C960FB6F894DEBF0FBEB0
:102C8000CDBFDF91CF911F910F91FF90EF90DF901B
:102C9000CF90BF90AF909F908F907F9008953917FD
:102CA00021F04230510531F3CACF30E02053384F84
:102CB00090E08053984F2817390721F04330510591
:102CC000C9F2BDCF44305105A9F2B9CF2F923F923E
:102CD0004F925F926F927F928F929F92AF92BF922C
:102CE000CF92DF92EF92FF920F931F93CF93DF93D8
:102CF000DC011496ED91FC91EF2B09F41CC15901F4
:102D00001A018C01FC0181819281208131E0309394
:102D1000380220935A021092390210925B02DC01B1
:102D2000ED91FC910280F381E02D41E050E00995A6
:102D3000019709F000C180E00E9485118111FBC05C
:102D4000D12CC12CF801848195817501EC18FD0806
:102D50008E159F0508F47C01D801DC910E9489083A
:102D60002B013C0180913202811173C0CE2DC13202
:102D700008F0C0E2B1E0B093320221E0C5018E1943
:102D80009F09C816D90608F420E020933102EFEF1E
:102D9000E093300210922F028FEF8C0F80932E025F
:102DA000F1E0F0930D0280910D02DD0FD82BD0934E
:102DB0000D0280910C02813009F08FC010920C023C
:102DC0000E9489082B013C0180910D028093BB0079
:102DD0008091340290913502A0913602B091370271
:102DE000892B8A2B8B2BA1F00E9489082091340219
:102DF00030913502409136025091370264197509BD
:102E000086099709261737074807590708F442C06B
:102E10008091BC0083FDD8CF85EC8093BC000E94DC
:102E200089082B013C0180913202813009F459C09C
:102E300080912F028C1710F4C0912F02AEE0B2E007
:102E4000E6EEF1E080E08C1751F19D9191938F5F58
:102E5000FACF8091340290913502A0913602B09160
:102E60003702892B8A2B8B2B09F47CCF0E9489088F
:102E70002091340230913502409136025091370250
:102E800064197509860997092617370748075907EE
:102E900008F068CF809133020E946411C0E0109264
:102EA0000B02C0930A02CE151F0409F044C0410171
:102EB0008C0C9D1CE401CE01881999098E159F0583
:102EC00090F5F80181819281DC01ED91FC91028401
:102ED000F385E02D09958993EECFA5EEA093BC0074
:102EE0009ECF8091340290913502A0913602B0912C
:102EF0003702892B8A2B8B2B09F495CF0E948908E6
:102F000020913402309135024091360250913702BF
:102F1000641975098609970926173707480759075D
:102F200008F081CFB7CFCE0CDF1CCA14DB0408F445
:102F300009CF81E001C080E0DF91CF911F910F9117
:102F4000FF90EF90DF90CF90BF90AF909F908F90C9
:102F50007F906F905F904F903F902F900895FF92D9
:102F60000F931F93CF93DF9300D000D000D01F9218
:102F7000CDB7DEB78C01FB01198227E030E0AE014E
:102F80004F5F5F4FBA01808191810E946616E9818F
:102F9000EF77FA81FB805D814E814F778F81282FFB
:102FA00030E094E0359527959A95E1F7922F990FA7
:102FB000990F291B220F280FD8012C93842F90E002
:102FC00024E0959587952A95E1F7982F990F990F09
:102FD000891B880F840F11968C931197652F70E0D1
:102FE00034E0759567953A95E1F7862F880F880F3D
:102FF000681B660F650F12966C9312974F2D50E069
:1030000064E0559547956A95E1F7842F880F880FFE
:10301000481B440F4F0D13964C9313972F2F30E0FE
:1030200074E0359527957A95E1F7822F880F880F00
:10303000281B220F2F0F14962C9314978E2F90E09D
:10304000F4E095958795FA95E1F7982F990F990FE8
:10305000891B880F8E0F15968C93C80127960FB683
:10306000F894DEBF0FBECDBFDF91CF911F910F91BE
:10307000FF9008950F931F93CF93DF93EC01888106
:103080009981009759F02A813B812617370730F044
:1030900081E0DF91CF911F910F9108958B016F5FB8
:1030A0007F4F0E943328009759F0998388831B83B0
:1030B0000A832C813D81232B59F7FC011082E8CF34
:1030C00080E0E7CFEF92FF920F931F93CF93DF93B0
:1030D00041155105B1F07B01EC010C811D81040FFC
:1030E000151FB8010E943A18882361F028813981A0
:1030F0008C819D81B701820F931F0E9410291D832F
:103100000C8381E0DF91CF911F910F91FF90EF90A1
:103110000895EF92FF920F931F93CF93DF9300D008
:1031200000D0CDB7DEB77C01862F4AE08E010F5F5D
:103130001F4FB80190E00E94FF23F801019000208A
:10314000E9F73197AF01401B510BB801C7010E944D
:1031500062180F900F900F900F90DF91CF911F91F9
:103160000F91FF90EF900895CF93DF9300D0CDB7EC
:10317000DEB769831A8241E050E0BE016F5F7F4F86
:103180000E9462180F900F90DF91CF910895CF9316
:10319000DF93EC0188819981009711F00E94AA27A2
:1031A000198218821D821C821B821A82DF91CF91A4
:1031B0000895EF92FF920F931F93CF93DF93EC014B
:1031C0007B018A01BA010E943A1881110BC0CE011D
:1031D0000E94C718CE01DF91CF911F910F91FF90F0
:1031E000EF9008951D830C83B701888199810E9417
:1031F0001029F0CFCF93DF93EC01FB0186179707DF
:1032000049F0608171816115710541F044815581FA
:103210000E94D918CE01DF91CF9108950E94C7185E
:10322000F9CFFC011182108213821282158214825E
:10323000FB0101900020E9F73197AF01461B570BC6
:103240000C94D918EF92FF920F931F93CF93DF93B3
:10325000EC017B018A0164E671E00E9411191F866E
:103260001E861D861A8681E08B878B858C3070F4D4
:10327000282F2150330BF901ED55F54FE4918230A1
:1032800009F4EF5FE11102C08F5FEECF81E08C8720
:1032900086E0F701DE011A9601900D928A95E1F71A
:1032A000B801CE010E94FA181E821F8284E090E0CD
:1032B00099878887188ADF91CF911F910F91FF908E
:1032C000EF900895AF92BF92CF92DF92EF92FF926C
:1032D0000F931F93CF93DF937C016B015A018901F8
:1032E0002417350720F48B2D5901042F182F64E67D
:1032F00071E0C7010E941119D6011496CD91DC919D
:10330000AC16BD0620F50C171D0708F4E801D60120
:10331000ED91FC911197EC0FFD1F108110826D91C2
:103320007C916A0D7B1D61157105E9F0FB0101902F
:103330000020E9F73197AF01461B570BC7010E94E8
:10334000D918F60180819181C80FD91F1883C70150
:10335000DF91CF911F910F91FF90EF90DF90CF9071
:10336000BF90AF900895C7010E94C718EACFFC0133
:1033700080819181009711F00C94AA2708950E94F2
:10338000F028FC01868197819C01295F3F4F37FF20
:1033900002C0295F3F4F83E0359527958A95E1F775
:1033A00084819581289FA001299F500D389F500D41
:1033B000112470E060E0878D90A10C94FE28FC0140
:1033C000808591850C94C119AF92BF92CF92DF9204
:1033D000EF92FF920F93CF93DF93EC017B015A01A1
:1033E0006901888599850E94C119E885F9850111CF
:1033F00001C001E0048B058B81E090E0938B828B10
:10340000918B808BB586A486D786C686B701CF01FF
:103410000E940B0688859985DF91CF910F91FF90CF
:10342000EF90DF90CF90BF90AF900C945A1485ED41
:103430008093BC008091340290913502A0913602B5
:10344000B09137020796A11DB11D23E0B695A7954F
:10345000979587952A95D1F72091BC0024FD03C04C
:1034600010923202089540913402509135026091D9
:10347000360270913702452B462B472B69F3009794
:10348000A105B10541F02AE22A95F1F700C00197A4
:10349000A109B109E1CF809133020C9464111F920C
:1034A0000F920FB60F9211242F933F934F935F9378
:1034B0006F937F938F939F93AF93BF93EF93FF93FC
:1034C0008CE592E00E94EC06FF91EF91BF91AF91E5
:1034D0009F918F917F916F915F914F913F912F912C
:1034E0000F900FBE0F901F9018951F920F920FB65E
:1034F0000F9211242F938F939F93EF93FF93E0915B
:103500006C02F0916D028081E0917202F091730281
:1035100082FD1BC09081809175028F5F8F73209117
:103520007602821741F0E0917502F0E0E45AFD4F17
:10353000958F80937502FF91EF919F918F912F91BD
:103540000F900FBE0F901F9018958081F4CF1F929F
:103550000F920FB60F9211242F933F938F939F9347
:10356000AF93BF938091E2019091E301A091E401B8
:10357000B091E5013091DA0123E0230F2D3758F5A2
:103580000196A11DB11D2093DA018093E201909371
:10359000E301A093E401B093E5018091DB019091F8
:1035A000DC01A091DD01B091DE010196A11DB11DEC
:1035B0008093DB019093DC01A093DD01B093DE01E9
:1035C000BF91AF919F918F913F912F910F900FBE1F
:1035D0000F901F90189526E8230F0296A11DB11D8C
:1035E000D2CF1F920F920FB60F9211242F933F93B9
:1035F0004F935F936F937F938F939F93AF93BF93FB
:10360000EF93FF938091B900887F803609F44AC018
:10361000F0F5883209F4A7C018F5803109F49BC091
:10362000B8F4882309F4F9C0883009F494C0FF91F4
:10363000EF91BF91AF919F918F917F916F915F912A
:103640004F913F912F910F900FBE0F901F901895A3
:10365000883109F488C0803251F78093300214C059
:10366000803409F49DC040F48033B9F38833F9F60F
:103670008093300285ECB0C0803509F485C0883570
:1036800009F496C0883499F60E94171AD0CF883969
:1036900009F48CC038F5883729F050F4883611F0D9
:1036A000803729F683E0809332021092D90157C007
:1036B000883809F47BC0803919F0803809F0B7CF19
:1036C0008091D901803208F071C0E091D90181E088
:1036D0008E0F8093D9018091BB00F0E0E754FE4F3C
:1036E00080833DC0803B39F0E0F4803A09F479C032
:1036F000883A09F09CCF84E0809332021092B8019E
:103700001092B701E0910802F091090209958091A9
:10371000B70181110FC081E08093B701109297012A
:1037200009C0803C09F4A6CF883C09F4A3CF883BAC
:1037300009F07DCFE091B80181E08E0F8093B80150
:10374000F0E0E956FE4F80818093BB009091B80174
:103750008091B70129C080910D028093BB0085EC58
:103760008093BC0064CF90912F0280912E02981715
:1037700058F5E0912F0281E08E0F80932F02F0E048
:10378000E25FFD4F8081E9CFE0912F0281E08E0F53
:1037900080932F028091BB00F0E0E25FFD4F8083B9
:1037A00090912F0280912E029817C8F285E8D8CF09
:1037B000E0912F0281E08E0F80932F028091BB0059
:1037C000F0E0E25FFD4F80838091310281115CCF98
:1037D00081E080930C0284EA8093BC001092320254
:1037E00026CF85EC8093BC00109232028091D901E3
:1037F000803230F4E091D901F0E0E754FE4F1082BE
:103800006091D90170E0E0910602F091070289EB26
:1038100091E009951092D9010ACF1092300234CF6D
:10382000ECE5F2E01382128288EE93E0A0E0B0E0D3
:1038300084839583A683B78322E431E03183208398
:1038400025EC30E03587248724EC30E03787268765
:1038500020EC30E0318B208B21EC30E0338B228B5D
:1038600022EC30E0358B248B26EC30E0378B268B36
:10387000118E128E138E148EE9EFF2E013821282F3
:1038800084839583A683B78384E591E091838083C5
:103890000895CF93DF93CDB7DEB7A2970FB6F89414
:1038A000DEBF0FBECDBF789484B5826084BD84B581
:1038B000816084BD85B5826085BD85B5816085BD2B
:1038C00080916E00816080936E00109281008091E3
:1038D000810082608093810080918100816080936B
:1038E000810080E8E82EF12C809180008160809337
:1038F00080008091B10084608093B1008091B0001D
:1039000081608093B00080917A00846080937A0017
:1039100080917A00826080937A0080917A00816041
:1039200080937A0080917A00806880937A00109268
:10393000C1008CE190E00E940E275C01DC015596ED
:103940001C92559788E893E157969C938E935697CF
:1039500088EE93E059969C938E93589784E690E076
:103960005B969C938E935A9782E090E00E940E277C
:103970008C018DE090E0F8019183808361E00E94EA
:10398000FB07D5010D931C9382E090E00E940E2767
:103990008C018CE090E0F8019183808360E00E94CC
:1039A000FB07D50115961C930E93149782E090E0C7
:1039B0000E940E278C0182E090E0F80191838083C1
:1039C00060E00E94FB07D50117961C930E93169793
:1039D00080E190E00E940E278C0183E090E0F801E6
:1039E0009183808385E090E09383828386E090E0FA
:1039F000958384838FEF90E0978386839187808778
:103A00009387828761E083E00E94FB0761E085E0A5
:103A10000E94FB0761E086E00E94FB07D501199632
:103A20001C930E93189782E090E00E940E272EE0E0
:103A300030E0FC0131832083D5011B969C938E934B
:103A40001A978AE090E00E940E274C0186E391E0ED
:103A5000F40191838083F382E28200E410E0158315
:103A6000048380E490E00E940E276C01D401169636
:103A70009C91F60113821282F582E48217830683F9
:103A8000F186E08613870287168A158614861786C4
:103A9000168681E0858B848B2FEF3FEF338B228B53
:103AA000318B208B878B108E128E118E2AE031E0A5
:103AB00031832083148E138E29EF32E0368F258FC9
:103AC0008FEF84A385A386A387A390A780E89AE1BC
:103AD000A6E0B0E085AB96ABA7ABB0AF80EA96E8C6
:103AE000A1E0B0E081AF92AFA3AFB4AF80E586AF05
:103AF00017AED4011996DC92CE92189780E094E02C
:103B00000E940E27F60190A3878F892B09F4E1C349
:103B1000C6010E94C119D60116968D919C911797E6
:103B200014966D917C91AC0181970CF4C4C2405401
:103B3000510957FF02C04F5F5F4F5595479562553A
:103B4000710977FF02C06F5F7F4F7595679510E42D
:103B5000E12EF12C02E510E029EC37E0C6010E94CD
:103B6000840582E0F60182A3858D968D892B09F468
:103B7000BAC28CE381A30E944D11D60198968C9114
:103B800087FD1FC061E00E94FB0761E0F60180A590
:103B90000E94CD0761E070E080E090E00E94AE08F6
:103BA00060E0D60198968C910E94CD076AE070E0A3
:103BB00080E090E00E94AE0861E0F60180A50E94DE
:103BC000CD07D6015D968D919C915E97892B09F466
:103BD0004DC3D5962D913D914D915C91D89760E064
:103BE00074E284EF90E00E94E626205131094109F9
:103BF000510956954795379527952093B80044E08D
:103C000063EB75E0C6010E94FD12F601668161500A
:103C1000C6010E94A21344E06FEA75E0C6010E944B
:103C2000FD12D60192968C9160E1813009F064E139
:103C3000C6010E94A21344E06BEA75E0C6010E942F
:103C4000FD128FE8F60185AF84819581803891055A
:103C500009F023C3868197818034910509F02BC335
:103C600082A1813009F017C38FE9D601DD968C93CC
:103C700012E16AEDC6010E94A213612FC6010E94E3
:103C8000A21361E8C6010E94A213F60165ADC60148
:103C90000E94A21369EDC6010E94A213D60192965A
:103CA0008C9162E2813009F061EFC6010E94A2139B
:103CB00046E065EA75E0C6010E94FD12F601858DB9
:103CC000968D892B09F4FBC221AD32AD43AD54ADC5
:103CD00060E074E284EF90E00E94E6262051310912
:103CE0004109510956954795379527952093B80076
:103CF000D40118968D919C910E945A1460ED77E042
:103D000080E090E00E94AE08F5019382828282E01A
:103D100090E00E940E277C0186E090E00E940E2732
:103D20008C0188E6D8018C9389EF92E012969C93DF
:103D30008E93119713961C92139780E290E015963C
:103D40009C938E931497F701118300830E944D1169
:103D5000DD24D394D8011396DC92C8010E945E152D
:103D6000882309F4CDC2F501F586E4868AE090E067
:103D70000E940E27D5011F969C938E931E97B0929A
:103D8000E101A092E0015296DC92529754961C9267
:103D90001E925397ED91FC9161E080810E94CD07C6
:103DA000D5011896ED91FC91178216821186108626
:103DB0008FEF90E093878287CF010E94871586E17D
:103DC000898383E08A838CE08B8382E18C838FE01C
:103DD0008D831E8265E671E0CE0143960E94111923
:103DE00081E190E00E940E278C01AE014D5E5F4F95
:103DF000FE0131967F01BF010E942219CE01439638
:103E00000E94B719D5011E96ED91FC911183008394
:103E1000E0916C02F0916D0282E08083E091680293
:103E2000F09169021082E0916A02F0916B0280E1E8
:103E3000808310927402E0917002F091710286E02A
:103E40008083E0916E02F0916F02808180618083B7
:103E5000E0916E02F0916F02808188608083E09132
:103E60006E02F0916F02808180688083E0916E0223
:103E7000F0916F0280818F7D8083C090E001D090AF
:103E8000E101D6011496ED91FC9180810E94A40776
:103E9000F601228931E0019709F030E0231709F497
:103EA00041C0D601ED91FC918081222309F429C201
:103EB00060E00E94CD07F6010085118570E060E0AA
:103EC000D8018C910E942C0870E060E0F80182819A
:103ED0000E942C0870E060E0D80114968C910E943A
:103EE0002C08F60182819381DC01ED91FC91068022
:103EF000F781E02D0995F60182819381DC01ED9136
:103F0000FC910480F581E02D0995D6011496ED9180
:103F1000FC9180810E94A40721E0019709F020E034
:103F2000F601228BD60152968C915297882309F480
:103F300044C018960D911C9119971A96ED91FC9119
:103F400080818E3008F08E508770806480937C0072
:103F500080917A00806480937A0080917A0086FD57
:103F6000FCCF6091780070917900072E000C880BCF
:103F7000990B0E94502420E030EC4FE754E40E945B
:103F800011264B015C0120E030E0A9010E94492488
:103F900087FDC0C120E030E040E85FE3C501B40127
:103FA0000E94B92618160CF4B9C1F80184869586CA
:103FB000A686B786C8010E948715D60153968D91B3
:103FC0009C9154975A966D917C910E94D226892B90
:103FD00009F066C2F6018289882309F461C28281F0
:103FE0009381DC01ED91FC910680F781E02D09952C
:103FF000F601A280B380D501ED91FC91828093807F
:10400000F6010485158564E671E0CE0143960E94B1
:104010001119B801C7010E94AF176C81CE014396F8
:104020000E9489186AE3CE0143960E94B4188D81DC
:104030008A3040F441E050E06BE671E0CE014396F7
:104040000E9462186D81CE0143960E94891804E097
:1040500010E02AE030E050E040E0BE016D5E7F4FAE
:10406000C501F4010995CE0143960E94B719D60106
:104070001296AD90BC90D501ED91FC918280938019
:10408000F60164857585C7010E94AF17C7010E94BC
:10409000D61069E871E0873008F049C1E82FF0E0F8
:1040A000EC5AFF4D0C9408277A2295216B226E2240
:1040B0007122742277224052510957FF02C04F5F8C
:1040C0005F4F559547956357710977FF02C06F5F42
:1040D0007F4F75956795F0E2EF2EF12C03E710E026
:1040E00029EE35E03BCD61E086A10E94FB0761E04F
:1040F000F60187A10E94FB07D60196968C919697B0
:10410000082E000C990BFC01EB52FA4FE491F0E001
:10411000EE0FFF1FE553FA4F25913491F60136A7B4
:1041200025A7FC01E954FA4FE491D396EC93D39779
:1041300097968C91082E000C990BFC01EB52FA4FCC
:10414000E491F0E0EE0FFF1FE553FA4FA591B49113
:10415000F601B0ABA7A7FC01E954FA4F9491F60120
:1041600094AB8C91E92FE82BEC93D6015B968D9163
:104170009C91892B09F434C01FB7F8948091DF011A
:10418000811127C0EFEDF5E08491E1ECF5E0949129
:10419000E82FF0E0EE0FFF1FE556FA4FA591B4911E
:1041A000EC91E92321F461E08AE00E94CD0761E00F
:1041B0008AE00E94FB078CB580618CBD8CB5806461
:1041C0008CBD61E08DE00E94FB0761E08BE00E9406
:1041D000FB078091DF018F5F8093DF011FBFCDCC94
:1041E00061E0F60184A10E94FB0761E0D60195968B
:1041F0008C910E94FB07F60184A1082E000C990BFC
:10420000FC01EB52FA4FE491F0E0EE0FFF1FE55393
:10421000FA4F25913491D6019A963C932E93999713
:10422000FC01E954FA4FE491D196EC93D19795961D
:104230008C91082E000C990BFC01EB52FA4FE49183
:10424000F0E0EE0FFF1FE553FA4FA591B491F60190
:10425000B4A7A3A7FC01E954FA4F9491F60192ABDD
:104260008C91E92FE095E823EC9387CCF601838DC0
:10427000948D892B21F086AD97AD0E94D310D60185
:104280009F96ED91FC91D0979081D4968C918095DA
:1042900089238083B4CC8FECE8CC8036910559F427
:1042A00086819781409739F482A1813031F480E191
:1042B000D601DD968C9312E0DCCC8FEAF9CFD601E3
:1042C00007A4F0A9E02D8081D4969C91892B80834E
:1042D0000FCD09E81AE0F8016491662341F08CE5FE
:1042E00092E00E940E070F5F1F4F892BA1F742E05B
:1042F00050E062E671E08CE592E00E942E06FFCF6E
:10430000FFCF61E00E94CD07F601808591850E9474
:104310008715FBCD812C912C540147CE812C912CFB
:1043200090E8A92E9FE3B92E40CE6DE671E0C7015B
:104330000E94111902E010E022E330E050E040E07A
:10434000B701C501F4010995C7010E94B719D6014B
:104350001296AD90BC90D501ED91FC918280938036
:10436000D6011C96ED91FC91B1E1B9831A8222E04D
:1043700030E0A701B701808191810E9466166A81B1
:1043800070E086E0759567958A95E1F7072E000C39
:10439000880B990B0E94502420E030E040E85EE357
:1043A0000E94AF246F8F78A389A39AA3698170E0DC
:1043B00090E080E00E944E249B01AC016F8D78A1BB
:1043C00089A19AA10E94A5251A8E198E1C8E1B8E7A
:1043D0001E8E1D8E0E948326CB014AE0B7010E94EB
:1043E000FF23F70101900020E9F73197AF014E1943
:1043F0005F09B701CE0149960E94D9181C8A1B8A11
:104400001E8A1D8A188E1F8ABE01675E7F4FCE01ED
:1044100043960E94FA1867EFCE0143960E94B418A3
:10442000811104C0CE0143960E94C71841E050E0BC
:104430006DE871E0CE0143960E946218811104C0BC
:10444000CE0143960E94C7181A8219821C821B82D1
:104450001E821D82BE016D5E7F4FC7010E94FA1849
:1044600002E010E022E330E042E350E0B701C50192
:10447000F4010995C7010E94B719CE0143960E9425
:10448000B719CE0149960E94B719D60112968D919F
:104490009C91DC01ED91FC910480F581E02D099562
:1044A000F60183899489608D718D0E94D2264C011A
:1044B000892B09F09DC064E671E0CE0143960E940D
:1044C00011190E947E0697FD18C0682FCE014396F1
:1044D0000E94B418F6CF61E771E029CF65E771E07B
:1044E00026CF69E771E023CF6DE771E020CF61E867
:1044F00071E01DCF65E871E01ACF6FE871E0C70188
:104500000E9411198F89988D892B61F0AB88BC8826
:1045100069817A81C5010E9417298C010A191B093A
:10452000892B11F40FEF1FEFC7010E94B7190F3F3E
:104530001F4F09F459C08F89988D892BD9F00B89A9
:104540001C896AE370E0C8010E940529009741F0C8
:104550005C01A01AB10A2FEFA216B20609F0B7C08B
:1045600060E070E0CB010115110519F0C8010E944F
:10457000D8232B01D6011896ED91FC91922D832D15
:10458000BFEF2B16310419F014F09FEF80E0292FB4
:10459000382F37FF02C030E020E037832683962D86
:1045A000872D2FEF6216710419F014F09FEF80E051
:1045B000292F382F37FF02C030E020E031872087D5
:1045C000942D852DAFEF4A16510419F014F09FEF8A
:1045D00080E0292F382F37FF02C030E020E03387FA
:1045E0002287CF010E948715CE0143960E94B719FA
:1045F000F60183899489668977890E94D226892B5E
:1046000009F044C00685178564857585C7010E9439
:10461000AF17B701C8010E94E215D60151969C93CD
:104620008E935097009791F1FC01208921112EC0A3
:104630001296AD90BC90D501ED91FC918080918057
:104640001A8219821C821B821E821D82BC01C70134
:104650000E94FA1802E010E02AE030E050E040E06A
:10466000B701C501F4010995C7010E94B719D60128
:104670001696ED91FC9180810E94A4070197B9F7ED
:10468000D6015096ED91FC91B1E0B08BF6012389F3
:104690003489868997898217930714F4148A138AB8
:1046A000D60153968D919C915497019654969C9364
:1046B0008E935397E0E0F0E0EF2B09F4DECB0E94FD
:1046C000D806882309F4D9CB0E940000D6CB8FEFFF
:1046D000881A980A92E089169104F1F5950150E044
:1046E00040E0BE016D5E7F4FC7010E946219898163
:1046F0009A81009769F10E94D8231B01C7010E948B
:10470000B7192F89388DA5014F5F5F4FBE016D5ED0
:104710007F4FC7010E9462198B899C890097B9F16C
:1047200069817A816115710581F14D895E892D81DB
:104730003E814217530748F10E9410298D819E81C6
:10474000988F8F8B1E821D82C7010E94B719F3CEEE
:1047500060E070E0CB01D1CFA3E08A16910489F626
:10476000950150E040E0BE016D5E7F4FC7010E94A1
:10477000621989819A81009721F00E94D8233B0118
:10478000BDCF60E070E0CB01FACF0E94AA278981FB
:104790009A819C8B8B8B8B819C819E8B8D8B8D8149
:1047A0009E81988F8F8B1A8219821C821B82CACF9E
:1047B0001F93FC0199278827BC01E89411911032BE
:1047C000E9F3193010F01E30C8F31B3251F01D32DE
:1047D00049F4689406C00E940A24610F711D811D6E
:1047E000911D119110531A30B0F33EF490958095BD
:1047F000709561957F4F8F4F9F4F1F910895BB27F5
:104800004A3031F4992322F4BDE2909581959F4F6F
:104810000C942024592F482F372F262F660F771FEF
:10482000881F991F660F771F881F991F620F731FBC
:10483000841F951F660F771F881F991F0895BB2738
:10484000FB015527AA27880F991FAA1FA41710F04C
:10485000A41B83955051B9F7A05DAA3308F0A95D58
:10486000A193009779F7B111B1931192CB010C94F8
:104870003924DC01FC01672F71917723E1F732972E
:1048800004C07C916D9370836291AE17BF07C8F32B
:1048900008950E948B2408F481E00895E89409C0EB
:1048A00097FB3EF490958095709561957F4F8F4F63
:1048B0009F4F9923A9F0F92F96E9BB279395F69579
:1048C000879577956795B795F111F8CFFAF4BB0FF7
:1048D00011F460FF1BC06F5F7F4F8F4F9F4F16C05B
:1048E000882311F096E911C0772321F09EE8872FE5
:1048F000762F05C0662371F096E8862F70E060E0A1
:104900002AF09A95660F771F881FDAF7880F969519
:10491000879597F90895990F0008550FAA0BE0E8BD
:10492000FEEF16161706E807F907C0F01216130671
:10493000E407F50798F0621B730B840B950B39F4B1
:104940000A2661F0232B242B252B21F408950A2617
:1049500009F4A140A6958FEF811D811D08950E9445
:10496000C2240C9433250E94252538F00E942C2562
:1049700020F0952311F00C941C250C942225112471
:104980000C9467250E94442570F3959FC1F3950F01
:1049900050E0551F629FF001729FBB27F00DB11DC3
:1049A000639FAA27F00DB11DAA1F649F6627B00D53
:1049B000A11D661F829F2227B00DA11D621F739F3C
:1049C000B00DA11D621F839FA00D611D221F749F4A
:1049D0003327A00D611D231F849F600D211D822F91
:1049E000762F6A2F11249F5750409AF0F1F08823B8
:1049F0004AF0EE0FFF1FBB1F661F771F881F9150E5
:104A00005040A9F79E3F510580F00C941C250C9452
:104A100067255F3FE4F3983ED4F3869577956795D5
:104A2000B795F795E7959F5FC1F7FE2B880F911D0E
:104A30009695879597F9089597F99F6780E870E0B4
:104A400060E008959FEF80EC089500240A94161604
:104A5000170618060906089500240A94121613066C
:104A6000140605060895092E0394000C11F48823FA
:104A700052F0BB0F40F4BF2B11F460FF04C06F5F16
:104A80007F4F8F4F9F4F089557FD9058440F551FEC
:104A900059F05F3F71F04795880F97FB991F61F0C0
:104AA0009F3F79F087950895121613061406551F37
:104AB000F2CF4695F1DF08C0161617061806991FA3
:104AC000F1CF86957105610508940895E894BB2798
:104AD00066277727CB0197F908952F923F924F923F
:104AE0005F926F927F928F929F92AF92BF92CF927E
:104AF000DF92EF92FF920F931F93CF93DF93CDB787
:104B0000DEB7CA1BDB0B0FB6F894DEBF0FBECDBFFE
:104B100009942A88398848885F846E847D848C84CF
:104B20009B84AA84B984C884DF80EE80FD800C81D8
:104B30001B81AA81B981CE0FD11D0FB6F894DEBFBB
:104B40000FBECDBFED0108955058BB27AA270E9484
:104B5000BC250C9433250E94252538F00E942C2575
:104B600020F039F49F3F19F426F40C9422250EF41A
:104B7000E095E7FB0C941C25E92F0E94442558F38F
:104B8000BA17620773078407950720F079F4A6F532
:104B90000C9466250EF4E0950B2EBA2FA02D0B0178
:104BA000B90190010C01CA01A0011124FF27591B72
:104BB00099F0593F50F4503E68F11A16F040A22F78
:104BC000232F342F4427585FF3CF469537952795E9
:104BD000A795F0405395C9F77EF41F16BA0B620BE8
:104BE000730B840BBAF09150A1F0FF0FBB1F661F2F
:104BF000771F881FC2F70EC0BA0F621F731F841F72
:104C000048F4879577956795B795F7959E3F08F097
:104C1000B0CF9395880F08F09927EE0F9795879559
:104C200008950E9425260C9433250E942C2558F0C7
:104C30000E94252540F029F45F3F29F00C941C25A3
:104C400051110C9467250C9422250E94442568F389
:104C50009923B1F3552391F3951B550BBB27AA2735
:104C600062177307840738F09F5F5F4F220F331F6F
:104C7000441FAA1FA9F335D00E2E3AF0E0E832D037
:104C800091505040E695001CCAF72BD0FE2F29D03A
:104C9000660F771F881FBB1F261737074807AB070C
:104CA000B0E809F0BB0B802DBF01FF2793585F4F81
:104CB0003AF09E3F510578F00C941C250C94672522
:104CC0005F3FE4F3983ED4F3869577956795B79563
:104CD000F7959F5FC9F7880F911D9695879597F96E
:104CE0000895E1E0660F771F881FBB1F62177307E7
:104CF0008407BA0720F0621B730B840BBA0BEE1FFC
:104D000088F7E09508950E948A266894B1110C9462
:104D1000672508950E944C2588F09F5798F0B92F79
:104D20009927B751B0F0E1F0660F771F881F991FE0
:104D30001AF0BA95C9F714C0B13091F00E946625F7
:104D4000B1E008950C946625672F782F8827B85F07
:104D500039F0B93FCCF3869577956795B395D9F738
:104D60003EF490958095709561957F4F8F4F9F4F42
:104D700008950E948B2408F48FEF0895AA1BBB1B93
:104D800051E107C0AA1FBB1FA617B70710F0A61B4B
:104D9000B70B881F991F5A95A9F780959095BC016C
:104DA000CD01089597FB072E16F4009407D077FDE8
:104DB00009D00E94BE2607FC05D03EF4909581954F
:104DC0009F4F0895709561957F4F0895A1E21A2E27
:104DD000AA1BBB1BFD010DC0AA1FBB1FEE1FFF1F9F
:104DE000A217B307E407F50720F0A21BB30BE40BEF
:104DF000F50B661F771F881F991F1A9469F7609536
:104E00007095809590959B01AC01BD01CF010895EF
:104E1000EE0FFF1F0590F491E02D09940F931F935F
:104E2000CF93DF938230910510F482E090E0E0911F
:104E30000703F091080330E020E0B0E0A0E03097F5
:104E400099F42115310509F44AC0281B390B243087
:104E50003105D8F58A819B816115710589F1FB01C6
:104E600093838283FE0111C04081518102811381AD
:104E700048175907E0F04817590799F4109761F05F
:104E800012960C93129713961C933296CF01DF91D2
:104E9000CF911F910F91089500930703109308037A
:104EA000F4CF2115310551F04217530738F0A9010D
:104EB000DB019A01BD01DF01F801C1CFEF01F9CF9C
:104EC0009093080380930703CDCFFE01E20FF31FF9
:104ED000819391932250310939832883D7CF209130
:104EE000050330910603232B41F4209102013091F8
:104EF00003013093060320930503209100013091B4
:104F000001012115310541F42DB73EB7409104014F
:104F100050910501241B350BE0910503F091060328
:104F2000E217F307A0F42E1B3F0B2817390778F080
:104F3000AC014E5F5F4F2417350748F04E0F5F1FDF
:104F40005093060340930503819391939FCFF0E024
:104F5000E0E09CCFCF93DF930097E9F0FC0132971C
:104F600013821282A0910703B0910803ED0130E093
:104F700020E01097A1F420813181820F931F2091AE
:104F80000503309106032817390709F061C0F09333
:104F90000603E0930503DF91CF910895EA01CE1750
:104FA000DF07E8F54A815B819E0141155105B1F7A4
:104FB000E901FB83EA8349915991C40FD51FEC178E
:104FC000FD0761F4808191810296840F951FE901AC
:104FD00099838883828193819B838A83F0E0E0E0D8
:104FE00012968D919C9113970097B9F52D913C9154
:104FF0001197CD010296820F931F209105033091E6
:1050000006032817390739F6309751F5109208032F
:1050100010920703B0930603A0930503BCCFD3837C
:10502000C28340815181840F951FC817D90761F44D
:105030004E5F5F4F88819981480F591F518340838C
:105040008A819B81938382832115310509F0B0CF3A
:10505000F0930803E09307039ECFFD01DC01C0CF6E
:1050600013821282D7CFB0E0A0E0E9E3F8E20C941B
:105070006F258C01009751F4CB010E940E278C0103
:10508000C801CDB7DEB7E0E10C948B25FC01E60F3B
:10509000F71F9C0122503109E217F30708F49DC065
:1050A000D901CD91DC911197C617D70798F0C5307B
:1050B000D10530F3CE0104978617970708F3C61B76
:1050C000D70B2297C193D1936D937C93CF010E940C
:1050D000AA27D6CF5B01AC1ABD0A4C018C0E9D1ECF
:1050E000A0910703B0910803512C412CF12CE12C25
:1050F000109731F580910503909106038815990565
:1051000009F05CC04616570608F058C080910001AF
:1051100090910101009741F48DB79EB74091040131
:1051200050910501841B950BE817F90708F055C04D
:10513000F0930603E0930503F90171836083A0CF28
:105140008D919C91119712966C90129713967C906A
:105150001397A815B90559F56C0142E0C40ED11C8E
:10516000CA14DB0420F1AC014A195B09DA0112967A
:10517000159780F06282738251834083D9016D93C9
:105180007C93E114F10471F0D7011396FC93EE9334
:10519000129776CF22968C0F9D1FF9019183808301
:1051A000F301EFCFF0930803E093070369CF4816AC
:1051B000590608F42C017D01D3019ACFCB010E943E
:1051C0000E277C01009749F0AE01B8010E94F52836
:1051D000C8010E94AA27870153CF10E000E050CFFA
:1051E00081E090E0F8940C943129FB01DC0102C0CD
:1051F00001900D9241505040D8F70895DC0101C054
:105200006D9341505040E0F70895FC01819186175D
:1052100021F08823D9F7992708953197CF01089570
:10522000FB01DC0101900D920020E1F70895FB01E4
:1052300051915523A9F0BF01DC014D914517411152
:10524000E1F759F4CD010190002049F04D9140154E
:105250004111C9F3FB014111EFCF81E090E00197CB
:065260000895F894FFCF51
:1052660000000903800000000000780D2E0684155A
:105276000A06870AF50F1E10F60F121006102510E3
:10528600F50F3E0B0414F709400A3E0F210FA90E35
:105296004A0E00000000E419CA15C515DF19000002
:1052A60000000E072E065B065B07CC066A06BE06E6
:1052B60000000000CB129E128415F50F971284127F
:1052C60075120D0A00537A6961210030004D6F6E28
:1052D6000054756500576564005468750046726928
:1052E600005361740053756E002D2D2D004300434D
:0652F6006F6C6F723A00BC
:00000001FF
