:020000040000FA
:100000000C9453050C947B050C947B050C947B0598
:100010000C947B050C947B050C947B050C941715B4
:100020000C947B050C947B050C947B050C947B0550
:100030000C947B050C947B050C947B050C947B0540
:100040000C94EF150C947B050C94BD150C9497152E
:100050000C947B050C947B050C947B050C947B0520
:100060000C9439160C947B0500000000003E5B4F99
:100070005B3E3E6B4F6B3E1C3E7C3E1C183C7E3C08
:10008000181C577D571C1C5E7F5E1C00183C180016
:10009000FFE7C3E7FF0018241800FFE7DBE7FF30A6
:1000A000483A060E2629792926407F050507407F14
:1000B00005253F5A3CE73C5A7F3E1C1C08081C1C87
:1000C0003E7F14227F22145F5F005F5F06097F017D
:1000D0007F006689956A606060606094A2FFA29468
:1000E00008047E040810207E201008082A1C080836
:1000F0001C2A08081E101010100C1E0C1E0C303884
:100100003E3830060E3E0E06000000000000005F84
:1001100000000007000700147F147F14242A7F2AA0
:100120001223130864623649562050000807030062
:10013000001C2241000041221C002A1C7F1C2A08AE
:10014000083E080800807030000808080808000011
:1001500060600020100804023E5149453E00427F85
:10016000400072494949462141494D331814127FD4
:100170001027454545393C4A494931412111090774
:100180003649494936464949291E000014000000F5
:1001900040340000000814224114141414140041C7
:1001A00022140802015909063E415D594E7C121184
:1001B000127C7F494949363E414141227F414141BC
:1001C0003E7F494949417F090909013E4141517337
:1001D0007F0808087F00417F41002040413F017FA8
:1001E000081422417F404040407F021C027F7F0470
:1001F00008107F3E4141413E7F090909063E4151B9
:10020000215E7F09192946264949493203017F01A8
:10021000033F4040403F1F2040201F3F4038403FA9
:10022000631408146303047804036159494D4300BF
:100230007F4141410204081020004141417F0402F6
:10024000010204404040404000030708002054548D
:1002500078407F284444383844444428384444286B
:100260007F385454541800087E090218A4A49C78BE
:100270007F0804047800447D40002040403D007F1A
:100280001028440000417F40007C047804787C08FA
:100290000404783844444438FC18242418182424CE
:1002A00018FC7C08040408485454542404043F44B3
:1002B000243C4040207C1C2040201C3C4030403CE2
:1002C00044281028444C9090907C4464544C440042
:1002D00008364100000077000000413608000201A6
:1002E0000204023C2623263C1EA1A161123A404092
:1002F000207A38545455592155557941225454780F
:1003000042215554784020545579400C1E527212A7
:100310003955555559395454545939555454580030
:1003200000457C410002457D420001457C407D1234
:1003300011127DF0282528F07C5455450020545496
:100340007C547C0A097F4932494949323A44444441
:100350003A324A4848303A4141217A3A424020787C
:10036000009DA0A07D3D4242423D3D4040403D3C7D
:1003700024FF2424487E4943662B2FFC2F2BFF09A2
:1003800029F620C0887E0903205454794100004496
:100390007D413048484A32384040227A007A0A0A81
:1003A000727D0D19317D2629292F282629292926F4
:1003B00030484D4020380808080808080808382F39
:1003C00010C8ACBA2F102834FA00007B00000814C3
:1003D0002A142222142A14085500550055AA55AA99
:1003E00055AAFF55FF55FF000000FF00101010FF39
:1003F00000141414FF001010FF00FF1010F010F094
:10040000141414FC001414F700FF0000FF00FF1484
:1004100014F404FC141417101F10101F101F1414D0
:10042000141F00101010F0000000001F101010101A
:100430001F10101010F010000000FF10101010100E
:1004400010101010FF10000000FF140000FF00FF4C
:1004500000001F10170000FC04F4141417101714E8
:1004600014F404F40000FF00F7141414141414140A
:10047000F700F7141414171410101F101F1414147D
:10048000F4141010F010F000001F101F0000001FE7
:1004900014000000FC140000F010F01010FF10FF1A
:1004A000141414FF141010101F00000000F010FFAF
:1004B000FFFFFFFFF0F0F0F0F0FFFFFF0000000093
:1004C00000FFFF0F0F0F0F0F3844443844FC4A4A17
:1004D0004A347E02020606027E027E0263554941CC
:1004E000633844443C04407E201E2006027E020203
:1004F00099A5E7A5991C2A492A1C4C7201724C3017
:100500004A4D4D303048784830BC625A463D3E49ED
:100510004949007E0101017E2A2A2A2A2A44445F91
:10052000444440514A444040444A51400000FF0185
:1005300003E080FF000008086B6B08361236243693
:10054000060F090F060000181800000010100030F8
:1005500040FF0101001F01011E00191D1712003C80
:100560003C3C3C00000000002200FF210000010391
:10057000070F1F3F7F0080C0E0F0F8FCFE00000086
:1005800000230026002900000000080002010000EE
:100590000304070000000000000000000000002429
:1005A0000027002A00DB40A4A62EAF2000A1C8D35C
:1005B00000408DAED580A8010204081020408001C3
:1005C0000204081020010204081020000000002589
:1005D0000028002B000404040404040404020202A2
:1005E0000202020303030303030000600000000093
:1005F00000000000000000000000E000000000001B
:10060000000000000000000001E000000000000009
:100610000000000000000001F000000000000000E9
:1006200000000000000003F00000000000000000D7
:10063000000000000007F0000000000000000000C3
:100640000000000007F800000000000000000000AB
:100650000000000FF800000003C0007E000001E071
:10066000007F0FF800000003C000FE000001E00062
:10067000FFEFF800000003C000FE000001E000FFF3
:10068000FFF800000003C000F00000000F007FFE34
:100690007FC0000003C000F00000000F003FFE7F9D
:1006A000F83FF1FBCFFCFEF3BC3DEFE01FFE7FFF08
:1006B0007FFBFFDFFEFEFFBC3DEFE01FC6FFFF7FBD
:1006C000FBFFDFFEFEFFBC3DEFE00FE3C7FE787BE4
:1006D000C3DE1EF0FFBC3DEF0007FF87FC787BC345
:1006E000DE1EF0F83C3DEF0001FFFFF0007BC3C0D1
:1006F0001EF0F03C3DEF0001F37FE03FFBC3CFFE77
:10070000F0F03C3DEF0003E33F807FFBC3DFFEF0F2
:10071000F03C3DEF0007E73C00787BC3DE1EF0F0C5
:100720003C3DEF0007FFBE00787BC3DE1EF0F03CCF
:100730003DEF0007FFFE00787BC3DE1EF0F03C3D7E
:10074000EF000FFFFE007FFBFFDFFEF0F03FFDEF4D
:10075000E00FFFFF007FFBFFDFFEF0F03FFDEFE06B
:100760000FF9FF003E79F9CF9EF0F01F3DE7E01F43
:10077000F1FF0000000000000000000000001F80EA
:10078000FF007FFFFFFFFFFFFFFFFFFFE01C007F79
:10079000007FFFFFFFFEB46D888D18E000001F0092
:1007A0007FFFFFFFFE95AD7DB577E000000F007F76
:1007B000FFFFFFFEA5AD9D8D19E0000006007FFF45
:1007C000FFFFFEB5ADEDB57EE0000000000001804A
:1007D0000000000000000000000380000000000096
:1007E0000000000007C0000000000000000000073B
:1007F000C00000000000000000000FC0000000006A
:1008000000000000001FE0000000000000000000E9
:100810001FE00000000000000000003FE0000000BA
:100820000000000000003FF0000000000000000099
:10083000007FF0000000000000001FF87FF00000C3
:1008400000000000003FFE7FF000000000000000FC
:100850003FFF7FF0000000000000001FFFFBE000F2
:100860000000000000000FFFF9FFC00000000000C2
:10087000000FFFF9FFF800000000000007FFF1FF84
:10088000FF00000000000003FC73FFFF8000000079
:10089000000001FE3FFFFF80000000000000FF1E7F
:1008A0000FFF000000000000007FFE1FFC000000A2
:1008B000000000003FFFFFF8000000000000000FF4
:1008C000DFFFE0000000000000001F19FFC0000073
:1008D00000000000003F3CFF00000000000000009E
:1008E0007E7CF800000000000000007FFE7C00001D
:1008F000000000000000FFFFFC00000000000000FE
:1009000000FFFFFE0000000000000000FFFFFE00EF
:1009100000000000000001FFEFFE000000000000EA
:100920000001FFCFFE0000000000000003FF07FEF3
:100930000000000000000003FC07FE0000000000B3
:10094000000003F003FE0000000000000001800032
:10095000FE000000000000000000007E000000001B
:100960000000000000003E00000000000000000049
:10097000000C000000000000078000FC000003C025
:10098000000000078001FC000003C0000000078099
:1009900001FC000003C0000000078001E00000002F
:1009A0001E000000078001E00000001E007FE3F74A
:1009B0009FF9FDE7787BDFC0FFF7FFBFFDFDFF7804
:1009C0007BDFC0FFF7FFBFFDFDFF787BDFC0F0F7E7
:1009D00087BC3DE1FF787BDE00F0F787BC3DE1F0AE
:1009E000787BDE0000F787803DE1E0787BDE007FEA
:1009F000F7879FFDE1E0787BDE00FFF787BFFDE131
:100A0000E0787BDE00F0F787BC3DE1E0787BDE003C
:100A1000F0F787BC3DE1E0787BDE00F0F787BC3D76
:100A2000E1E0787BDE00FFF7FFBFFDE1E07FFBDF69
:100A3000C0FFF7FFBFFDE1E07FFBDFC07CF3F39F6A
:100A40003DE1E03E7BCFC000000000000000000060
:100A50000000FFFFFFFFFFFFFFFFFFFFC0FFFFFFE3
:100A6000FFFD68DB111A31C0FFFFFFFFFD2B5AFBB2
:100A70006AEFC0FFFFFFFFFD4B5B3B1A33C0FFFF78
:100A8000FFFFFD6B5BDB6AFDC053534431333036EF
:100A900020616C6C6F636174696F6E206661696C54
:100AA00065640002581711241FBECFEFD8E0DEBFE7
:100AB000CDBF22E0ACE6B1E001C01D92AE3EB20770
:100AC000E1F711E0A0E0B1E0EAEBFBE302C0059042
:100AD0000D92AC36B107D9F715E0C3E5D5E004C0F7
:100AE0002197FE010E94D71BC235D107C9F70E948A
:100AF00091170C94DB1D0C9400003F924F925F9273
:100B00006F927F928F929F92AF92BF92CF92DF921D
:100B1000EF92FF920F931F93CF93DF9300D000D0FB
:100B2000CDB7DEB79C838B833B016A015901DC01A1
:100B3000ED91FC910284F385E02D09952801B7E041
:100B40004B0E511C93E0559447949A95E1F7C601DA
:100B50008E0D9F1D9A838983912C812C312CF12C31
:100B6000E12CC70187709927330C892B59F4F701C1
:100B700083E0F595E7958A95E1F7E80DF91DEA0D13
:100B8000FB1D349037FE10C0AB81BC81ED91FC9110
:100B900011970484F585E02D21E030E0A601B7012E
:100BA000660D771DCD010995BFEFEB1AFB0A0E15F7
:100BB0001F05B9F68FEFC81AD80A840C951CA981B5
:100BC000BA81CA16DB0659F6AB81BC81ED91FC9166
:100BD00011970688F789E02DCD010F900F900F90A7
:100BE0000F90DF91CF911F910F91FF90EF90DF90C9
:100BF000CF90BF90AF909F908F907F906F905F90BD
:100C00004F903F9009940F931F93CF93DF93EC0184
:100C1000FB014481558160817181E881F981028005
:100C2000F381E02D09958C01E881F9810280F3813F
:100C3000E02D42E050E063E671E0CE010995800FBF
:100C4000911FDF91CF911F910F910895AF92BF92A5
:100C5000CF92DF92EF92FF920F931F93CF93DF9388
:100C60006C017B018B01040F151FEB015E01AE18B7
:100C7000BF08C017D10759F06991D601ED91FC91D9
:100C80000190F081E02DC6010995892B79F7C50106
:100C9000DF91CF911F910F91FF90EF90DF90CF9058
:100CA000BF90AF90089508950895FC01538D448D31
:100CB000252F30E0842F90E0821B930B541710F007
:100CC000CF96089501970895FC01918D828D981714
:100CD00061F0A28DAE0FBF2FB11D5D968C91928DEC
:100CE0009F5F9F73928F90E008958FEF9FEF08951D
:100CF000FC01918D828D981731F0828DE80FF11DE6
:100D0000858D90E008958FEF9FEF0895FC01918D00
:100D1000228D892F90E0805C9F4F821B91098F73F9
:100D20009927089581E492E00E94860621E0892BAC
:100D300009F420E0822F089580E090E0892B29F0CB
:100D40000E94920681110C9400000895FC01A48D6C
:100D5000A80FB92FB11DA35ABF4F2C91848D90E0DD
:100D600001968F739927848FA689B7892C93A089C0
:100D7000B1898C91837080648C93938D848D98134A
:100D800006C00288F389E02D80818F7D80830895DD
:100D9000EF92FF920F931F93CF93DF93EC0181E0CB
:100DA000888F9B8D8C8D98131AC0E889F989808172
:100DB00085FF15C09FB7F894EE89FF896083E889A5
:100DC000F98980818370806480839FBF81E090E097
:100DD000DF91CF911F910F91FF90EF900895F62E24
:100DE0000B8D10E00F5F1F4F0F731127E02E8C8DBE
:100DF0008E110CC00FB607FCFACFE889F989808103
:100E000085FFF5CFCE010E94A606F1CFEB8DEC0F4A
:100E1000FD2FF11DE35AFF4FF0829FB7F8940B8F1F
:100E2000EA89FB8980818062CFCFCF93DF93EC0189
:100E3000888D8823B9F0AA89BB89E889F9898C91C2
:100E400085FD03C0808186FD0DC00FB607FCF7CF7E
:100E50008C9185FFF2CF808185FFEDCFCE010E947E
:100E6000A606E9CFDF91CF910895833081F028F471
:100E7000813099F08230A9F008958730A9F0883048
:100E8000C9F08430B1F4809180008F7D03C08091DF
:100E900080008F7780938000089584B58F7784BD1C
:100EA000089584B58F7DFBCF8091B0008F778093BC
:100EB000B00008958091B0008F7DF9CFCF93DF937C
:100EC000282F30E0F901E957FA4F8491F901E954EC
:100ED000FA4FD491F901EB52FA4FC491CC23A1F00F
:100EE00081110E943507EC2FF0E0EE0FFF1FE35851
:100EF000FA4FA591B491EC91ED2381E090E009F4D3
:100F000080E0DF91CF91089580E090E0FACF1F93C9
:100F1000CF93DF93282F30E0F901E957FA4F8491FE
:100F2000F901E954FA4FD491F901EB52FA4FC49107
:100F3000CC23A9F0162F81110E943507EC2FF0E089
:100F4000EE0FFF1FE553FA4FA591B4918FB7F894B8
:100F5000EC91111108C0D095DE23DC938FBFDF9197
:100F6000CF911F910895DE2BF8CFCF93DF9390E0C0
:100F7000FC01E954FA4F24918B529A4FFC01849161
:100F80008823D1F090E0880F991FFC01E556FA4FB5
:100F9000A591B491FC01E553FA4FC591D49161112B
:100FA0000EC09FB7F8948C91E22FE0958E238C931E
:100FB0002881E223E8839FBFDF91CF9108958FB707
:100FC000F894EC91E22BEC938FBFF6CF3FB7F894F7
:100FD00080912D0290912E02A0912F02B0913002AB
:100FE00026B5A89B05C02F3F19F00196A11DB11D84
:100FF0003FBFBA2FA92F982F8827BC01CD01620FC0
:10100000711D811D911D42E0660F771F881F991F7A
:101010004A95D1F708958F929F92AF92BF92CF9247
:10102000DF92EF92FF924B015C010E94E6076B0199
:101030007C010E94E6076C197D098E099F09683EB4
:10104000734081059105A8F321E0821A9108A10857
:10105000B10888EEC80E83E0D81EE11CF11C811493
:101060009104A104B10429F7FF90EF90DF90CF9095
:10107000BF90AF909F908F900895EF92FF920F9343
:101080001F93CF93DF93EC01EC80FD806E157F05FD
:101090000CF070C057FF04C0240F351F50E040E033
:1010A0008E819F81FA01E20FF31F8E179F071CF4B8
:1010B0009C01241B350B121613060CF05BC0922FFB
:1010C000842F8695869586958E9DD0018F9DB00D37
:1010D00011246A0F7B1FAF8DB8A1A60FB71F4770F1
:1010E00049F188E0841B482F682F70E0FB01EB5822
:1010F000FA4FE491281708F063C0621B71092FEFC3
:1011000030E002C0359527956A95E2F7E223013079
:10111000110539F0B0F10230110561F58C91E82725
:1011200002C08C91E82BEC93941720F12C813D8127
:10113000A20FB31FE92FE41BE83078F0023011054D
:1011400021F58E2F9C9190959C932C813D81A20F2F
:10115000B31F88508830B0F7E770EE2359F0F0E005
:10116000E359FA4FE49101301105F9F010F1023022
:10117000110519F1DF91CF911F910F91FF90EF9021
:101180000895E0958C91E823CECF81E001151105FB
:1011900009F480E081959E2F8C932C813D81A20FD4
:1011A000B31F98509830C0F7D7CF8C91E82BEC93B1
:1011B000E1CFE0958C91E823FACF8C91E827F7CF27
:1011C0000130110509F4ADCFE0F20230110509F448
:1011D000A5CFAE0DBF1DAECF0F931F93CF93DF935F
:1011E00077FF04C0260F371F70E060E0DC01149623
:1011F000CD91DC91FB01E20FF31FCE17DF071CF44A
:101200009E01261B370B121613064CF5FA0157FDEB
:101210003796A3E0F595E795AA95E1F7EC9FD00105
:10122000ED9FB00DFC9FB00D11246A0F7B1FDC01F8
:101230005F96ED91FC91E60FF71F4770552781E00F
:1012400090E001C0880F4A95EAF7482F0130110558
:1012500059F0A8F02E0F3F1F02301105E1F0DF9189
:10126000CF911F910F9108952E0F3F1FE217F307A3
:10127000B1F38191DF011197842B8C93F7CF809587
:101280002E0F3F1FE217F30751F39191DF011197E2
:1012900098239C93F7CFE217F30709F38191DF01BD
:1012A000119784278C93F7CF0F931F93FA01DC01DA
:1012B00056964C9156974230E9F04330A1F14130B7
:1012C00061F514964D915C91DA01AE1BBF0BFD01E7
:1012D000E21BF30B77FD0BC0DC0116964D915C9180
:1012E0006417750724F4AB01BF010E94EC081F913D
:1012F0000F91089514964D915C91DA01A61BB70BDE
:10130000BD0161507109DC0116964D915C91DA01C5
:10131000AE1BBF0BFD01E21BF30B77FDE8CFAF0166
:101320000E943D08E4CF16964D915C91DA01A61B10
:10133000B70BBD0161507109CDCF0F931F93FA0117
:10134000DC0156964C9156974230A9F0433091F10A
:10135000413019F514964D915C91DA01AE1BBF0B2B
:10136000FD013197F7FD04C0AB01BF010E943D08AC
:101370001F910F91089514964D915C91DA01A61B6F
:10138000B70BBD01DC0116964D915C91DA01AE1BE5
:10139000BF0BFD013197621B730BF7FDE9CFDC0139
:1013A00016964D915C91E417F50714F7AF010E9472
:1013B000EC08DECF16964D915C91DA01A61BB70BB7
:1013C000BD01621B730BCECFFC0177FD64C080852D
:1013D0009185681779070CF05EC057FD5CC0828567
:1013E0009385481759070CF056C086898230B1F0B2
:1013F000833029F1813041F484819581841B950BE0
:10140000AB01BC01615071092130310509F108F4CB
:1014100043C02230310509F463C008958481958169
:10142000DC01A61BB70BBD01615071098681978154
:10143000DC01A41BB50BAD0141505109E5CF8681FC
:101440009781861B970BBA01AC0141505109DCCF43
:10145000CA0157FD0796A3E095958795AA95E1F7F0
:10146000A481B5818A9F90018B9F300D9A9F300D8A
:101470001124620F731F078CF0A1E02DE60FF71FF8
:101480004770552721E030E001C0220F4A95EAF766
:101490008081822B80830895CA0157FD079633E02F
:1014A000959587953A95E1F7A481B5818A9F90013A
:1014B0008B9F300D9A9F300D1124620F731F078C84
:1014C000F0A1E02DE60FF71F4770552781E090E06F
:1014D00001C0880F4A95EAF7809590818923DACF79
:1014E000CA0157FD079623E0959587952A95E1F760
:1014F000A481B5818A9F90018B9F300D9A9F300DFA
:101500001124620F731F078CF0A1E02DE60FF71F67
:101510004770552721E030E001C0220F4A95EAF7D5
:1015200080818227B7CF08958EBD00000DB407FEDD
:10153000FDCF8EB508958CBD9DBD08950895FC0125
:101540006370668B8481958126813781613039F0A3
:10155000633029F091878087338722870895318708
:1015600020879387828708952F923F924F925F92B0
:101570006F927F928F929F92AF92BF92CF92DF92A3
:10158000EF92FF920F931F93CF93DF93CDB7DEB708
:101590006A970FB6F894DEBF0FBECDBF9A8F898FC2
:1015A0007A8369834A01D22E18870F833701BC2CB6
:1015B000DC0159962D913C915A972115310509F07E
:1015C00015C118968D919C911997681779070CF0A1
:1015D000D7C11A968D919C91481759070CF0D0C12C
:1015E0004C2C512CB6E0CB9E600D711D11247C87D4
:1015F0006B87161617060CF0C3C1EA2DF0E0FA87C8
:10160000E98793E0EE0FFF1F9A95E1F7F88BEF87DC
:10161000CF01840F951F181619060CF0B1C1A98DC2
:10162000BA8D58968C91811104C0BFEABD1508F49B
:10163000D394A98DBA8DED91FC9111970284F38515
:10164000E02DCD010995B5E0DB9EC0011124E981B3
:10165000FA81FC83EB83312C212C9C0128593F4FCC
:10166000388F2F8B4A2D50E05E8B4D8BEF89F88D94
:10167000E20DF31D44919E828D82D12CC12C698193
:101680007A81620D731D7A8B698B842F90E09C8B1D
:101690008B8BE98DFA8DA081B18140FF82C0F1E092
:1016A000BF126FC0AF126DC01C96ED91FC912F81DF
:1016B0003885A4014C0D5D1D69897A89898D9A8DC3
:1016C0000995EB89FC89F595E7954E2F5FEFC51AD3
:1016D000D50A6D817E818D899E89680F791F7E83F1
:1016E0006D8398E0C916D10481F6AFEF2A1A3A0A41
:1016F000EB81FC81E40DF51DFC83EB83F5E02F16F7
:10170000310409F0B3CF2F81388526153705B9F09C
:10171000A98DBA8DED91FC91B1E0BB1257C0AB120F
:1017200055C069817A816B5F7F4F0088F189E02D18
:10173000830128E030E0A401898D9A8D0995A98D57
:10174000BA8DED91FC9111970688F789E02DCD01B6
:101750006A960FB6F894DEBF0FBECDBFDF91CF9172
:101760001F910F91FF90EF90DF90CF90BF90AF90BF
:101770009F908F907F906F905F904F903F902F90B1
:1017800009941E96ED91FC91EF80F88409851A85E5
:1017900092014D815E816B817C81898D9A8D099545
:1017A00090CF2F8138852615370509F48ACF31E08F
:1017B000B31207C0A31205C01C96ED91FC919301D2
:1017C00078CF1E96ED91FC917301E0CF6B857C85FF
:1017D000641975090684F785E02D73010F85188952
:1017E0009201A401898D9A8D0995A9CFF9013496AA
:1017F0009491329745915491D91AB7E0DB9E400DF0
:10180000511D1124F901259134913C8B2B8BFA0148
:1018100025903490FA013296749031963491398B38
:10182000329664903196449041E04C1518F04A1578
:1018300008F07FC0662D062C000C770B7C836B8331
:10184000842D042C000C990B9E838D83A98DBA8D59
:10185000ED91FC9111970284F385E02DCD0109955E
:10186000512CD12CC12CEA2DF0E0FA87E9872B2DE1
:1018700030E03C872B87A401440D511D47FC5A954D
:10188000588F4F8B69817A81660D711D67FC7A953F
:101890007E876D877989C71608F051CF2C2D30E0EF
:1018A0004D815E81420F531FA985BA854A9FC001B1
:1018B0004B9F900D5A9F900D1124FC01E80DF91DCE
:1018C000F88BEF87852D612C4F89588D420F531F60
:1018D0005E8B4D8B671408F050C044244394480E2F
:1018E000877041F4C1010196EB89FC89E20DF31D7B
:1018F000D4901C01D7FE19C0A98DBA8DED91FC9131
:10190000662D70E0B1E0BB1219C0AB1217C02D8577
:101910003E85620F731F0484F585E02D2F81388585
:101920004D895E89898D9A8D0995DD0C6394842D8E
:10193000D1CF1E821D821C821B8288CF4B815C818D
:10194000640F751FAB85BC856A9FC0016B9F900DAE
:101950007A9F900D112469817A81680F791F06841E
:10196000F785E02DEF80F88409851A859D014F8564
:101970005889898D9A8D0995D8CF570CC3948ACFF1
:101980006A960FB6F894DEBF0FBECDBFDF91CF9140
:101990001F910F91FF90EF90DF90CF90BF90AF908D
:1019A0009F908F907F906F905F904F903F902F907F
:1019B00008958F929F92AF92CF92EF92FF920F93E2
:1019C0001F93CF93DF93EC01262F898D9A8D00977B
:1019D00009F051C06A30D1F41D861C868D8948E01B
:1019E000849F900111248E859F85820F931F9F876E
:1019F0008E8781E090E0DF91CF911F910F91FF9052
:101A0000EF90CF90AF909F908F9008956D3089F3B5
:101A1000CC88AD888F898823C1F08C859D8536E080
:101A2000C39E800D911D112448855985481759077B
:101A300064F44E855F851D861C8638E0A39EC00138
:101A40001124840F951F9F878E87EA88FB88088959
:101A500019894E855F856C857D85CE010E94B40A0B
:101A60002C898C859D8546E0249F800D911D112435
:101A70009D878C87BECF6A3069F41D861C86FC0169
:101A80003896E4912D898E859F85E29F800D911D6A
:101A90001124ADCF6D3009F4ACCFFC0134963491F4
:101AA000631708F4A6CF3296E491E61708F4A1CFA5
:101AB000FC01329685909490462F431B342F47E0CB
:101AC000349F800C911C1124F4013296349131968C
:101AD000E4913323A9F1EE2399F1CC88F4013596F2
:101AE000E491AD884F89442301F10E2E000CFF0BC9
:101AF000E30FF11DCE9EA001CF9E500D11246C85E9
:101B00007D85460F571F68857985641775076CF4C6
:101B10004E855F851D861C86FC013896E491AE9E3D
:101B2000400D511D11245F874E87EA88FB88088984
:101B300019894E855F856C857D85CE010E94B40A2A
:101B4000F4013496E4912C898C859D85E29F800D6B
:101B5000911D11248DCF6F927F928F929F92AF92A1
:101B6000BF92CF92DF92EF92FF920F931F93CF938A
:101B7000DF93EC016B015A0139014801E881F981D9
:101B80000284F385E02D0995E881F9810288F389C3
:101B9000E02D87019301A501B601CE010995A501AC
:101BA000480D591D41505109E881F9810288F38996
:101BB000E02D9301B601CE010995E881F9810088F5
:101BC000F189E02D9401A501B601CE010995C60C5D
:101BD000D71CB60161507109E881F9810088F1894B
:101BE000E02D9401A501CE010995E881F9810688CF
:101BF000F789E02DCE01DF91CF911F910F91FF90DA
:101C0000EF90DF90CF90BF90AF909F908F907F909C
:101C10006F9009946F927F928F929F92AF92BF9232
:101C2000CF92DF92EF92FF920F931F93CF93DF93A8
:101C30005C01EB016A01490138018701DC01ED918A
:101C4000FC916217730719F5641675062CF0962D32
:101C5000872D3A01C92ED82E9601261937092F5FF4
:101C60003F4F048CF58DE02DA301BE01C501099500
:101C7000DF91CF911F910F91FF90EF90DF90CF9068
:101C8000BF90AF909F908F907F906F900895461572
:101C9000570591F42617370724F0892D4B01C22FE1
:101CA000D82F9E01281939092F5F3F4F068CF78DD9
:101CB000E02DA601B401DACF0284F385E02D099569
:101CC000D501ED91FC910488F589E02D8301940103
:101CD000A601BE01C5010995D501ED91FC910688CB
:101CE000F789E02DC501DF91CF911F910F91FF90F2
:101CF000EF90DF90CF90BF90AF909F908F907F90AC
:101D00006F900994EF92FF920F931F93DC011A9644
:101D10000D911C911B9718962D913C911997ED915F
:101D2000FC9100A0F1A1E02D7B0150E040E070E0CB
:101D300060E009951F910F91FF90EF9008954F92E9
:101D40005F926F927F928F929F92AF92BF92CF924B
:101D5000DF92EF92FF920F931F93CF93DF936C016B
:101D60002B015A0139014801DC01ED91FC910284FB
:101D7000F385E02D0995E201640C751CD601ED9107
:101D8000FC91C615D7055CF40088F189E02D870128
:101D90009401A501BE01C60109952196EFCF0688E1
:101DA000F789E02DC601DF91CF911F910F91FF9030
:101DB000EF90DF90CF90BF90AF909F908F907F90EB
:101DC0006F905F904F9009948F929F92AF92BF92C5
:101DD000CF92DF92EF92FF920F931F93CF93DF93F7
:101DE000EC015B014A016901E881F9810284F38514
:101DF000E02D099595012C0D3D1D21503109E881FB
:101E0000F9810488F589E02D78018401A401B501E8
:101E1000CE010995E881F9810688F789E02DCE0188
:101E2000DF91CF911F910F91FF90EF90DF90CF90B6
:101E3000BF90AF909F908F9009948F929F92AF9296
:101E4000BF92CF92DF92EF92FF920F931F93CF93A7
:101E5000DF93EC015B014A0169017801E881F981B6
:101E60000284F385E02D0995C80CD91C8601015028
:101E70001109E881F9810488F589E02D9501A40113
:101E8000B501CE010995E881F9810688F789E02D31
:101E9000CE01DF91CF911F910F91FF90EF90DF90D6
:101EA000CF90BF90AF909F908F9009940895EF923C
:101EB000FF920F931F93DC01ED91FC9100A0F1A123
:101EC000E02D09951F910F91FF90EF9008950F93CA
:101ED0001F93DC01ED91FC91068CF78DE02D0995A7
:101EE0001F910F9108950F931F93DC01ED91FC91C9
:101EF000048CF58DE02D09951F910F910895DC015B
:101F0000ED91FC910084F185E02D09942F923F9290
:101F10004F925F926F927F928F929F92AF92BF92F9
:101F2000CF92DF92EF92FF920F931F93CF93DF93A5
:101F300000D000D000D0CDB7DEB73C016A013E83AF
:101F40002D83FC82EB825801A41AB50AB7FE03C0A8
:101F5000B194A194B1088D809E80861A970A97FE4D
:101F600003C09194819491088A149B045CF0902F93
:101F7000812F0D811E819D838E839C2D8D2D6B0164
:101F8000692F782F0C151D055CF09D818E817E8355
:101F90006D83692F782F902F812F8601C92ED82E1F
:101FA0001601201A310A2B012D813E81421A530A53
:101FB00057FE03C0519441945108710137FE03C08C
:101FC0003FEFE31AF30AF594E7948D819E8186171B
:101FD00097075CF5A1E0B0E0BA83A983C016D106EB
:101FE0004CF1D301ED91FC910484F585E02D2B811A
:101FF0003C81A8016D817E818A149B041CF04D8177
:102000005E81B801C3010995E418F508F7FE0AC01E
:102010002D813E8189819A81280F391F3E832D832E
:10202000E20CF31C0F5F1F4FD9CF2FEF3FEF3A8326
:102030002983D4CF26960FB6F894DEBF0FBECDBF4E
:10204000DF91CF911F910F91FF90EF90DF90CF9094
:10205000BF90AF909F908F907F906F905F904F90C8
:102060003F902F90089508952091DC01260F33278B
:10207000331F21323105ECF420910002FC0190E085
:1020800080E0243069F082E00895A091DC01219184
:10209000AC0144545E4FA40FB52FB11D2C93019693
:1020A000861798F38091DC01680F6093DC0180E073
:1020B000089581E008951092000281E08093020269
:1020C0001092010261E082E10E94870761E083E1F2
:1020D0000E948707E9EBF0E080818E7F808380811A
:1020E0008D7F808388E48093B80085E48093BC0072
:1020F0000895CF93DF9391E09093BB018823B9F0CB
:10210000C091B800D091BA008091BC008A7B8093C6
:10211000BC0060E082E10E94870760E083E10E94EA
:1021200087070E945B10D093BA00C093B800DF917C
:10213000CF910895E091390280913802E81730F488
:10214000F0E0EA56FE4F808190E008958FEF9FEF18
:10215000089590913902809138022FEF3FEF981740
:1021600048F4E92FF0E0EA56FE4F208130E09F5F0F
:1021700090933902C90108958091380290913902F3
:10218000891B990B0895CF92DF92EF92FF920F93E4
:102190001F93CF93DF937C01CB018A01209127020B
:1021A000222389F0EB016B01C40ED51ECC15DD0591
:1021B00069F06991D701ED91FC910190F081E02DDA
:1021C000C7010995F3CF642F0E943410C801DF9135
:1021D000CF911F910F91FF90EF90DF90CF900895D6
:1021E000CF93DF931F92CDB7DEB76983209127028B
:1021F0002223F9F020913602203258F021E030E01D
:10220000FC013383228390E080E00F90DF91CF9137
:10221000089580913702E82FF0E0EA58FE4F998147
:1022200090838F5F809337028093360281E090E045
:10223000ECCF61E0CE0101960E943410F7CFCF922F
:10224000DF92EF92FF920F931F93CF93DF93D09182
:10225000360281E0D13208F09CC0C09126020E9473
:10226000E6076B017C018091000281116CC082E065
:102270008093000281E0809302028FEF8093FF0140
:1022800010922402D0932302A6E7B1E0E3E0F2E04B
:1022900080E0D8138DC01092250280912502CC0FCA
:1022A000C82BC093250280910102813009F084C0BF
:1022B000109201020E94E6076B017C0180912502C9
:1022C0008093BB008091B7019091B801A091B901B2
:1022D000B091BA01892B8A2B8B2BA1F00E94E607C3
:1022E0000091B7011091B8012091B9013091BA0164
:1022F0006C197D098E099F090617170728073907EA
:1023000008F442C08091BC0083FDD8CF85EC809357
:10231000BC000E94E6076B017C01809100028230C4
:1023200009F44CC08091FF018F3F09F469C080918E
:10233000FF01803209F466C08091FF01803309F407
:1023400063C084E026C08091B7019091B801A0914C
:10235000B901B091BA01892B8A2B8B2B09F483CF59
:102360000E94E6070091B7011091B8012091B901D0
:102370003091BA016C197D098E099F09061717075C
:102380002807390708F06FCF8091B6010E947910B5
:1023900085E0109237021092360210922702DF91E8
:1023A000CF911F910F91FF90EF90DF90CF90089504
:1023B0009D9191938F5F6DCF85EEA9CF8091B701ED
:1023C0009091B801A091B901B091BA01892B8A2BE3
:1023D0008B2B09F4A2CF0E94E6070091B701109160
:1023E000B8012091B9013091BA016C197D098E09AB
:1023F0009F09061717072807390708F08ECFC4CFA3
:1024000080E0C7CF82E0C5CF83E0C3CFCF92DF9219
:10241000EF92FF920F931F93CF93DF93EC016B0129
:10242000142F8D8D9E8D009709F454C029A131E0A1
:102430003093270220932602109237021092360220
:10244000DC01ED91FC910190F081E02D60E00995B7
:102450007601CC24C394D12C01E011508D8D9E8D3A
:102460001F3F71F1B0E2CB16D104C0F00E941F11E2
:102470008D8D9E8D29A10093270220932602109214
:10248000370210923602DC01ED91FC910190F0814F
:10249000E02D60E00995CC24C394D12C8D8D9E8DC8
:1024A000F7016491DC01ED91FC910190F081E02D48
:1024B0000995BFEFCB1ADB0AEFEFEE1AFE0ACDCF7C
:1024C000DF91CF911F910F91FF90EF90DF90CF9010
:1024D0000C941F11EDA5FEA590818BA980958923F1
:1024E00080837B01115070F1F70184912B8D3C8D1D
:1024F000232B31F00E94940AFFEFEF1AFF0AF2CF6C
:1025000028E030E040E8E9A5FAA599A9582F54231E
:10251000A9F05081952B9083EBA5FCA590815AA939
:10252000952B9083EBA5FCA550819AA990959523B6
:10253000908346952150310931F7DECF5081909537
:102540009523E9CFDF91CF911F910F91FF90EF90ED
:10255000DF90CF9008951F93CF93DF93EC018D8D83
:102560009E8D009721F1162F29A131E0309327028B
:10257000209326021092370210923602DC01ED9170
:10258000FC910190F081E02D60E009958D8D9E8D8C
:10259000DC01ED91FC910190F081E02D612F099516
:1025A0008D8D9E8DDF91CF911F910C941F11ADA544
:1025B000BEA59C918BA9809589238C938B8D9C8D36
:1025C000892B31F0862FDF91CF911F910C94940AC3
:1025D00028E030E080E8A9A5BAA599A9462F4823AC
:1025E000C1F04C91942B9C93ABA5BCA59C914AA99E
:1025F000942B9C93ABA5BCA54C919AA99095942340
:102600009C9386952150310931F7DF91CF911F912D
:1026100008954C9190959423E6CF1F93CF93DF9329
:10262000EC01162F8D8D9E8D892BB1F12DA93EA920
:102630004FA958AD60E074E284EF90E00E94B51BB2
:1026400020513109410951095695479537952795EC
:102650002093B80066EA111167EACE010E94AB121E
:102660008D8D9E8D892B41F129AD3AAD4BAD5CAD81
:1026700060E074E284EF90E00E94B51B20513109C4
:102680004109510956954795379527952093B800EC
:10269000DF91CF911F9108958B8D9C8D892B21F017
:1026A0008EAD9FAD0E949B0AEFA5F8A990818CA9E1
:1026B000809589238083CECFEFA5F8A980819CA93E
:1026C000892B8083E5CFBF92CF92DF92EF92FF926A
:1026D0000F931F93CF93DF93EC018D8D9E8D892BEC
:1026E00009F484C02DA93EA94FA958AD60E074E259
:1026F00084EF90E00E94B51B205131094109510936
:1027000056954795379527952093B80045E068E69C
:1027100075E0CE010E9406126C816150CE010E94CC
:10272000AB122E813F81C901079697FD079633E0D2
:10273000959587953A95E1F72C813D81829F7001AF
:10274000839FF00C929FF00C11240F8D18A18D8D9A
:102750009E8DE00EF11E009709F47DC029A131E0A5
:1027600030932702209326021092370210923602ED
:10277000DC01ED91FC910190F081E02D60E4099580
:10278000CC24C394D12CBB24B3948D8D9E8DE016A4
:10279000F106E1F1B0E2CB16D104C0F00E941F11A6
:1027A0008D8D9E8D29A1B092270220932602109232
:1027B000370210923602DC01ED91FC910190F0811C
:1027C000E02D60E40995CC24C394D12C8D8D9E8D91
:1027D000F80161918F01DC01ED91FC910190F08194
:1027E000E02D0995BFEFCB1ADB0ACFCF8B8D9C8DE7
:1027F000892B21F08EAD9FAD0E949B0AEFA5F8A911
:1028000090818CA980958923808380CF0E941F119D
:102810008D8D9E8D892B09F453C029AD3AAD4BADFA
:102820005CAD60E074E284EF90E00E94B51B205143
:1028300031094109510956954795379527952093B8
:10284000B800DF91CF911F910F91FF90EF90DF9033
:10285000CF90BF900895EDA5FEA580819BA9892BFF
:102860008083E016F106A1F2F80181918F012B8D92
:102870003C8D232B19F00E94940AF3CF28E030E01E
:1028800040E8E9A5FAA599A9582F5423A9F0508149
:10289000952B9083EBA5FCA590815AA9952B90834D
:1028A000EBA5FCA550819AA9909595239083469518
:1028B0002150310931F7D5CF508190959523E9CF3B
:1028C000EFA5F8A980819CA9892B8083BACF90E0DD
:1028D00080E00895FC01808591850C9463130F932B
:1028E000DC011896ED91FC91011101C001E0048B0F
:1028F000058B81E090E0938B828B918B808B558749
:10290000448737872687CF010F910C9403060E94D6
:10291000BF1DFC01868197819C01295F3F4F37FFD6
:1029200002C0295F3F4F83E0359527958A95E1F7EF
:1029300084819581289FA001299F500D389F500DBB
:10294000112470E060E0878D90A10C94CD1DFC01F6
:10295000808591850C948914AF92BF92CF92DF92BB
:10296000EF92FF920F93CF93DF93EC017B015A011B
:102970006901888599850E948914E885F985011186
:1029800001C001E0048B058B81E090E0938B828B8A
:10299000918B808BB586A486D786C686B701CF017A
:1029A0000E94030688859985DF91CF910F91FF9052
:1029B000EF90DF90CF90BF90AF900C94631385EDB4
:1029C0008093BC008091B7019091B801A091B901AA
:1029D000B091BA010796A11DB11D23E0B695A79548
:1029E000979587952A95D1F72091BC0024FD03C0C7
:1029F0001092000208954091B7015091B801609182
:102A0000B9017091BA01452B462B472B69F300970A
:102A1000A105B10541F02AE22A95F1F700C001971E
:102A2000A109B109E1CF8091B6010C9479101F92F0
:102A30000F920FB60F9211242F933F934F935F93F2
:102A40006F937F938F939F93AF93BF93EF93FF9376
:102A500080913D0290913E02A0913F02B0914002D0
:102A6000892B8A2B8B2BC1F190913C028091000025
:102A700089278093000080913D0290913E02A091B1
:102A80003F02B0914002181619061A061B069CF464
:102A900080913D0290913E02A0913F02B091400290
:102AA0000197A109B10980933D0290933E02A09342
:102AB0003F02B0934002FF91EF91BF91AF919F9180
:102AC0008F917F916F915F914F913F912F910F90D7
:102AD0000FBE0F901F90189580910001E3EAFAE075
:102AE000E4919FEF90930001E13051F030F0E2303B
:102AF00069F060E00E948707DECF10926E00F9CF88
:102B000090916F009D7F90936F00F3CF9091700034
:102B10009D7F9093700091E09093B0009091B100F0
:102B2000987F94609093B1001092B300E2CF1F920F
:102B30000F920FB60F9211242F933F934F935F93F1
:102B40006F937F938F939F93AF93BF93EF93FF9375
:102B500081E492E00E94A606FF91EF91BF91AF91B0
:102B60009F918F917F916F915F914F913F912F91A5
:102B70000F900FBE0F901F9018951F920F920FB6D7
:102B80000F9211242F938F939F93EF93FF93E091D4
:102B90005102F09152028081E0915702F091580267
:102BA00082FD1BC0908180915A028F5F8F732091AC
:102BB0005B02821741F0E0915A02F0E0EF5BFD4FBB
:102BC000958F80935A02FF91EF919F918F912F9152
:102BD0000F900FBE0F901F9018958081F4CF1F9219
:102BE0000F920FB60F9211242F933F938F939F93C1
:102BF000AF93BF938091290290912A02A0912B025A
:102C0000B0912C023091280223E0230F2D3758F584
:102C10000196A11DB11D2093280280932902909353
:102C20002A02A0932B02B0932C0280912D02909146
:102C30002E02A0912F02B09130020196A11DB11D6C
:102C400080932D0290932E02A0932F02B093300216
:102C5000BF91AF919F918F913F912F910F900FBE98
:102C60000F901F90189526E8230F0296A11DB11D05
:102C7000D2CF1F920F920FB60F9211242F933F9332
:102C80004F935F936F937F938F939F93AF93BF9374
:102C9000EF93FF938091B900887F803609F44AC092
:102CA000F0F5883209F4A7C018F5803109F49BC00B
:102CB000B8F4882309F4F9C0883009F494C0FF916E
:102CC000EF91BF91AF919F918F917F916F915F91A4
:102CD0004F913F912F910F900FBE0F901F9018951D
:102CE000883109F488C0803251F78093FF0114C005
:102CF000803409F49DC040F48033B9F38833F9F689
:102D00008093FF0185ECB0C0803509F485C088351B
:102D100009F496C0883499F60E94DF14D0CF883920
:102D200009F48CC038F5883729F050F4883611F052
:102D3000803729F683E0809300021092FE0157C08D
:102D4000883809F47BC0803919F0803809F0B7CF92
:102D50008091FE01803208F071C0E091FE0181E0B7
:102D60008E0F8093FE018091BB00F0E0E252FE4F97
:102D700080833DC0803B39F0E0F4803A09F479C0AB
:102D8000883A09F09CCF84E0809300021092DD0124
:102D90001092DC01E0913402F091350209958091A6
:102DA000DC0181110FC081E08093DC011092BC0135
:102DB00009C0803C09F4A6CF883C09F4A3CF883B26
:102DC00009F07DCFE091DD0181E08E0F8093DD0180
:102DD000F0E0E454FE4F80818093BB009091DD01D0
:102DE0008091DC0129C0809125028093BB0085EC95
:102DF0008093BC0064CF90912402809123029817A5
:102E000058F5E091240281E08E0F80932402F0E0D7
:102E1000ED5FFD4F8081E9CFE091240281E08E0FCC
:102E2000809324028091BB00F0E0ED5FFD4F808332
:102E300090912402809123029817C8F285E8D8CF98
:102E4000E091240281E08E0F809324028091BB00E8
:102E5000F0E0ED5FFD4F80838091020281115CCF35
:102E600081E08093010284EA8093BC00109200020A
:102E700026CF85EC8093BC00109200028091FE0169
:102E8000803230F4E091FE01F0E0E252FE4F108219
:102E90006091FE0170E0E0913202F09133028EED1C
:102EA00091E009951092FE010ACF1092FF0134CFF4
:102EB000E1E4F2E01382128288EE93E0A0E0B0E059
:102EC00084839583A683B78323E431E03183208311
:102ED00025EC30E03587248724EC30E037872687DF
:102EE00020EC30E0318B208B21EC30E0338B228BD7
:102EF00022EC30E0358B248B26EC30E0378B268BB0
:102F0000118E128E138E148EEEEDF2E01382128269
:102F100084839583A683B78385E591E0918380833D
:102F20000895CF93DF9300D000D000D0CDB7DEB7A7
:102F3000789484B5826084BD84B5816084BD85B594
:102F4000826085BD85B5816085BD80916E008160A0
:102F500080936E0010928100809181008260809346
:102F6000810080918100816080938100A0E8EA2E39
:102F7000F12C809180008160809380008091B1006D
:102F800084608093B1008091B00081608093B00034
:102F900080917A00846080937A0080917A008260C8
:102FA00080937A0080917A00816080937A0080918A
:102FB0007A00806880937A001092C10087E090E0E8
:102FC0000E94DD1B4C010FEF1FEFDC0111961C93DB
:102FD0000E9313961C930E931297E0915102F09169
:102FE000520282E08083E0914D02F0914E02108205
:102FF000E0914F02F091500280E1808310925902DB
:10300000E0915502F091560286E08083E0915302F0
:10301000F0915402808180618083E0915302F091AD
:103020005402808188608083E0915302F0915402C1
:10303000808180688083E0915302F0915402808106
:103040008F7D80838DE090E08D939C9361E00E9462
:10305000B5078CE090E0F4019383828360E00E94E6
:10306000B5078AE090E00E94DD1B5C0187E391E0F8
:10307000D50111969C938E931396FC92EE92129723
:1030800080E4682E712C15967C926E92149780E4E1
:1030900090E00E94DD1B6C01F5019681D60113962C
:1030A0001C921E9212971596FC92EE921497179608
:1030B0007C926E9216971996FC92EE9218971B9638
:1030C0007C926E921A9756961C9256971D961C9259
:1030D0001E921C971F961C921E921E9781E0559679
:1030E0008C93559754968C93549753961C930E93A8
:1030F000529751961C930E93509757968C935797CF
:1031000058961C9258975A961C921E9259972BE0EB
:1031100031E011963C932E935C961C921E925B9725
:103120002EED32E05E963C932E935D978FEF949652
:103130008C93949795968C93959796968C93969757
:1031400097968C93979798969C9380E89AE1A6E03F
:10315000B0E0F60185AB96ABA7ABB0AF80EA96E8DE
:10316000A1E0B0E081AF92AFA3AFB4AF80E586AF8E
:1031700017AED5011996DC92CE92189780E094E0B4
:103180000E94DD1BF60190A3878F892B09F444C2AE
:10319000C6010E948914D60116968D919C911797AD
:1031A00014966D917C91AC0181970CF427C1405429
:1031B000510957FF02C04F5F5F4F559547956255C4
:1031C000710977FF02C06F5F7F4F75956795E0E4E7
:1031D000EE2EF12C02E510E029EC37E0C6010E944A
:1031E0007D0582E0F60182A3858D968D892B09F4F9
:1031F0001DC18CE381A31092390210923802109203
:103200003702109236020E945B1083E596E090939D
:1032100035028093340284E596E0909333028093E4
:103220003202D60198968C9187FD1FC061E00E9402
:10323000B50761E0F60180A50E94870761E070E0B4
:1032400080E090E00E940B0860E0D60198968C9197
:103250000E9487076AE070E080E090E00E940B081F
:1032600061E0F60180A50E948707D6015D968D91E9
:103270009C915E97892B09F49CC1D5962D913D9127
:103280004D915C91D89760E074E284EF90E00E94E9
:10329000B51B20513109410951095695479537957C
:1032A00027952093B80044E063EB75E0C6010E94C7
:1032B0000612F60166816150C6010E94AB1244E01D
:1032C0006FEA75E0C6010E940612D60192968C91B3
:1032D00060E1813009F064E1C6010E94AB1244E074
:1032E0006BEA75E0C6010E9406128FE8F60185AF11
:1032F000848195818038910509F072C1868197811A
:103300008034910509F07AC182A1813009F066C14B
:103310008FE9D601DD968C9312E16AEDC6010E9419
:10332000AB12612FC6010E94AB1261E8C6010E9478
:10333000AB12F60165ADC6010E94AB1269EDC60184
:103340000E94AB12D60192968C9162E2813009F014
:1033500061EFC6010E94AB1246E065EA75E0C60166
:103360000E940612F601858D968D892B09F44AC1BB
:1033700021AD32AD43AD54AD60E074E284EF90E036
:103380000E94B51B205131094109510956954795B5
:10339000379527952093B800D50118968D919C916B
:1033A0000E94631360ED77E080E090E00E940B08DC
:1033B000F401B582A4821A8219821C821B821E82A9
:1033C0001D8266E070E090E080E00E94021D0097A0
:1033D00009F439C19A83898325E030E03C832B834B
:1033E0002D813E81232B09F480C125E030E03E830E
:1033F0002D8366E671E00E94D41D30C14052510910
:1034000057FF02C04F5F5F4F55954795635771094E
:1034100077FF02C06F5F7F4F7595679590E2E92E49
:10342000F12C03E710E029EE35E0D8CE61E086A16B
:103430000E94B50761E0F60187A10E94B507D60199
:1034400096968C919697082E000C990BFC01EB52E6
:10345000FA4FE491F0E0EE0FFF1FE553FA4F25918C
:103460003491F60136A725A7FC01E954FA4FE491FF
:10347000D396EC93D39797968C91082E000C990BCA
:10348000FC01EB52FA4FE491F0E0EE0FFF1FE55321
:10349000FA4FA591B491F601B0ABA7A7FC01E9548E
:1034A000FA4F9491F60194AB8C91E92FE82BEC93B1
:1034B000D6015B968D919C91892B09F434C01FB77E
:1034C000F89480913102811127C0EFEDF5E08491ED
:1034D000E1ECF5E09491E82FF0E0EE0FFF1FE556E8
:1034E000FA4FA591B491EC91E92321F461E08AE0CF
:1034F0000E94870761E08AE00E94B5078CB5806171
:103500008CBD8CB580648CBD61E08DE00E94B507F8
:1035100061E08BE00E94B507809131028F5F80935C
:1035200031021FBF7ECE61E0F60184A10E94B50783
:1035300061E0D60195968C910E94B507F60184A1B1
:10354000082E000C990BFC01EB52FA4FE491F0E0CD
:10355000EE0FFF1FE553FA4F25913491D6019A964D
:103560003C932E939997FC01E954FA4FE491D1963C
:10357000EC93D19795968C91082E000C990BFC0139
:10358000EB52FA4FE491F0E0EE0FFF1FE553FA4FD4
:10359000A591B491F601B4A7A3A7FC01E954FA4F91
:1035A0009491F60192AB8C91E92FE095E823EC938E
:1035B00038CEF601838D948D892B21F086AD97ADA1
:1035C0000E949B0AD6019F96ED91FC91D097908125
:1035D000D4968C9180958923808365CE8FEC99CE8B
:1035E0008036910559F486819781409739F482A1FC
:1035F000813031F480E1D601DD968C9312E08DCEDE
:103600008FEAF9CFD60107A4F0A9E02D8081D496E6
:103610009C91892B8083C0CE09E81AE0F80164915F
:10362000662341F081E492E00E94C8060F5F1F4FBD
:10363000892BA1F742E050E063E671E081E492E07B
:103640000E942606FFCF89819A81009709F050C019
:103650001A8219821E821D821C821B8202E010E0E7
:103660002AE030E04AE050E0BE016F5F7F4FC501C5
:103670000E94AC1489819A81009711F00E94791CF4
:1036800090923B0280923A0280E0E82E80E0F82E91
:1036900000913A0210913B02F80182810E945E077C
:1036A00021E0019709F020E0D80116968C91169739
:1036B000821789F012968C910E945E0721E081307A
:1036C000910509F020E0F80126830197A1F461E05B
:1036D00080810E948707E114F104D1F20E949206D2
:1036E0008823B1F20E940000D3CFDC011C927DCE72
:1036F0000E94791CADCF60E08081EBCF2F923F928A
:103700004F925F926F927F928F929F92AF92BF92F1
:10371000CF92DF92EF92FF920F931F93CF93DF939D
:10372000CDB7DEB7CA1BDB0B0FB6F894DEBF0FBEFA
:10373000CDBF09942A88398848885F846E847D8447
:103740008C849B84AA84B984C884DF80EE80FD8049
:103750000C811B81AA81B981CE0FD11D0FB6F894BF
:10376000DEBF0FBECDBFED010895A1E21A2EAA1B48
:10377000BB1BFD010DC0AA1FBB1FEE1FFF1FA21721
:10378000B307E407F50720F0A21BB30BE40BF50B1E
:10379000661F771F881F991F1A9469F760957095A7
:1037A000809590959B01AC01BD01CF010895EE0F6E
:1037B000FF1F0590F491E02D09940F931F93CF9371
:1037C000DF938230910510F482E090E0E091EC020A
:1037D000F091ED0230E020E0B0E0A0E0309799F405
:1037E0002115310509F44AC0281B390B2430310555
:1037F000D8F58A819B816115710589F1FB0193835D
:103800008283FE0111C040815181028113814817DA
:103810005907E0F04817590799F4109761F012968C
:103820000C93129713961C933296CF01DF91CF9190
:103830001F910F9108950093EC021093ED02F4CFC5
:103840002115310551F04217530738F0A901DB016A
:103850009A01BD01DF01F801C1CFEF01F9CF9093CB
:10386000ED028093EC02CDCFFE01E20FF31F8193B6
:1038700091932250310939832883D7CF2091EA02CE
:103880003091EB02232B41F420910301309104018C
:103890003093EB022093EA02209101013091020162
:1038A0002115310541F42DB73EB7409105015091E6
:1038B0000601241B350BE091EA02F091EB02E217BE
:1038C000F307A0F42E1B3F0B2817390778F0AC0143
:1038D0004E5F5F4F2417350748F04E0F5F1F509320
:1038E000EB024093EA02819391939FCFF0E0E0E0F6
:1038F0009CCFCF93DF930097E9F0FC0132971382BE
:103900001282A091EC02B091ED02ED0130E020E0D6
:103910001097A1F420813181820F931F2091EA0238
:103920003091EB022817390709F061C0F093EB02E0
:10393000E093EA02DF91CF910895EA01CE17DF0705
:10394000E8F54A815B819E0141155105B1F7E90116
:10395000FB83EA8349915991C40FD51FEC17FD07EA
:1039600061F4808191810296840F951FE90199830A
:103970008883828193819B838A83F0E0E0E01296C2
:103980008D919C9113970097B9F52D913C911197CA
:10399000CD010296820F931F2091EA023091EB0233
:1039A0002817390739F6309751F51092ED02109229
:1039B000EC02B093EB02A093EA02BCCFD383C283A4
:1039C00040815181840F951FC817D90761F44E5F5C
:1039D0005F4F88819981480F591F518340838A81A5
:1039E0009B81938382832115310509F0B0CFF09339
:1039F000ED02E093EC029ECFFD01DC01C0CF13820B
:103A00001282D7CFB0E0A0E0E8E0FDE10C94801B8B
:103A10008C01009751F4CB010E94DD1B8C01C80181
:103A2000CDB7DEB7E0E10C949C1BFC01E60FF71F5D
:103A30009C0122503109E217F30708F49DC0D90117
:103A4000CD91DC911197C617D70798F0C530D105F5
:103A500030F3CE0104978617970708F3C61BD70BE0
:103A60002297C193D1936D937C93CF010E94791CCF
:103A7000D6CF5B01AC1ABD0A4C018C0E9D1EA091E5
:103A8000EC02B091ED02512C412CF12CE12C10975D
:103A900031F58091EA029091EB028815990509F0C1
:103AA0005CC04616570608F058C0809101019091FD
:103AB0000201009741F48DB79EB7409105015091E6
:103AC0000601841B950BE817F90708F055C0F09321
:103AD000EB02E093EA02F90171836083A0CF8D913C
:103AE0009C91119712966C90129713967C90139755
:103AF000A815B90559F56C0142E0C40ED11CCA14D1
:103B0000DB0420F1AC014A195B09DA011296159722
:103B100080F06282738251834083D9016D937C93DC
:103B2000E114F10471F0D7011396FC93EE93129710
:103B300076CF22968C0F9D1FF90191838083F3012C
:103B4000EFCFF093ED02E093EC0269CF48165906EF
:103B500008F42C017D01D3019ACFCB010E94DD1B1B
:103B60007C01009749F0AE01B8010E94C41DC80154
:103B70000E94791C870153CF10E000E050CF81E014
:103B800090E0F8940C94DB1DFB01DC0102C0019075
:103B90000D9241505040D8F70895DC0101C06D935B
:103BA00041505040E0F70895FB01DC0101900D9277
:103BB0000020E1F70895F894FFCFFF0000EE0280A7
:103BC0000000000000D90C260667143310E40956E3
:103BD0000F7F0F570F730F670F860F560F9F0A0D3A
:103BE0001354099D099F0E820E0A0EAB0D000000B2
:103BF00000AC146F146A14A71400000000C8062655
:103C0000065506150786066406780600000000F0D3
:103C100010C3106714560FBC10A9109A100D0A009B
:063C2000537A69612100E6
:107E0000112484B714BE81FFF0D085E080938100F7
:107E100082E08093C00088E18093C10086E0809377
:107E2000C20080E18093C4008EE0C9D0259A86E02C
:107E300020E33CEF91E0309385002093840096BBD3
:107E4000B09BFECF1D9AA8958150A9F7CC24DD24C4
:107E500088248394B5E0AB2EA1E19A2EF3E0BF2EE7
:107E6000A2D0813461F49FD0082FAFD0023811F036
:107E7000013811F484E001C083E08DD089C08234E0
:107E800011F484E103C0853419F485E0A6D080C0E4
:107E9000853579F488D0E82EFF2485D0082F10E0AE
:107EA000102F00270E291F29000F111F8ED06801E7
:107EB0006FC0863521F484E090D080E0DECF843638
:107EC00009F040C070D06FD0082F6DD080E0C81688
:107ED00080E7D80618F4F601B7BEE895C0E0D1E017
:107EE00062D089930C17E1F7F0E0CF16F0E7DF06D8
:107EF00018F0F601B7BEE89568D007B600FCFDCFD4
:107F0000A601A0E0B1E02C9130E011968C91119780
:107F100090E0982F8827822B932B1296FA010C0160
:107F200087BEE89511244E5F5F4FF1E0A038BF0790
:107F300051F7F601A7BEE89507B600FCFDCF97BE46
:107F4000E89526C08437B1F42ED02DD0F82E2BD052
:107F50003CD0F601EF2C8F010F5F1F4F84911BD097
:107F6000EA94F801C1F70894C11CD11CFA94CF0C13
:107F7000D11C0EC0853739F428D08EE10CD085E9AC
:107F80000AD08FE07ACF813511F488E018D01DD067
:107F900080E101D065CF982F8091C00085FFFCCF94
:107FA0009093C60008958091C00087FFFCCF809118
:107FB000C00084FD01C0A8958091C6000895E0E648
:107FC000F0E098E1908380830895EDDF803219F02E
:107FD00088E0F5DFFFCF84E1DECF1F93182FE3DFCA
:107FE0001150E9F7F2DF1F91089580E0E8DFEE27F6
:047FF000FF270994CA
:027FFE00040479
:00000001FF
