:100000000C9459050C9481050C9481050C94810580
:100010000C9481050C9481050C9481050C949D1A17
:100020000C9481050C9481050C9481050C94810538
:100030000C9481050C9481050C9481050C94810528
:100040000C94771B0C9481050C94451B0C941F1B7E
:100050000C9481050C9481050C9481050C94810508
:100060000C94C11B0C94810500000000003E5B4F06
:100070005B3E3E6B4F6B3E1C3E7C3E1C183C7E3C08
:10008000181C577D571C1C5E7F5E1C00183C180016
:10009000FFE7C3E7FF0018241800FFE7DBE7FF30A6
:1000A000483A060E2629792926407F050507407F14
:1000B00005253F5A3CE73C5A7F3E1C1C08081C1C87
:1000C0003E7F14227F22145F5F005F5F06097F017D
:1000D0007F006689956A606060606094A2FFA29468
:1000E00008047E040810207E201008082A1C080836
:1000F0001C2A08081E101010100C1E0C1E0C303884
:100100003E3830060E3E0E06000000000000005F84
:1001100000000007000700147F147F14242A7F2AA0
:100120001223130864623649562050000807030062
:10013000001C2241000041221C002A1C7F1C2A08AE
:10014000083E080800807030000808080808000011
:1001500060600020100804023E5149453E00427F85
:10016000400072494949462141494D331814127FD4
:100170001027454545393C4A494931412111090774
:100180003649494936464949291E000014000000F5
:1001900040340000000814224114141414140041C7
:1001A00022140802015909063E415D594E7C121184
:1001B000127C7F494949363E414141227F414141BC
:1001C0003E7F494949417F090909013E4141517337
:1001D0007F0808087F00417F41002040413F017FA8
:1001E000081422417F404040407F021C027F7F0470
:1001F00008107F3E4141413E7F090909063E4151B9
:10020000215E7F09192946264949493203017F01A8
:10021000033F4040403F1F2040201F3F4038403FA9
:10022000631408146303047804036159494D4300BF
:100230007F4141410204081020004141417F0402F6
:10024000010204404040404000030708002054548D
:1002500078407F284444383844444428384444286B
:100260007F385454541800087E090218A4A49C78BE
:100270007F0804047800447D40002040403D007F1A
:100280001028440000417F40007C047804787C08FA
:100290000404783844444438FC18242418182424CE
:1002A00018FC7C08040408485454542404043F44B3
:1002B000243C4040207C1C2040201C3C4030403CE2
:1002C00044281028444C9090907C4464544C440042
:1002D00008364100000077000000413608000201A6
:1002E0000204023C2623263C1EA1A161123A404092
:1002F000207A38545455592155557941225454780F
:1003000042215554784020545579400C1E527212A7
:100310003955555559395454545939555454580030
:1003200000457C410002457D420001457C407D1234
:1003300011127DF0282528F07C5455450020545496
:100340007C547C0A097F4932494949323A44444441
:100350003A324A4848303A4141217A3A424020787C
:10036000009DA0A07D3D4242423D3D4040403D3C7D
:1003700024FF2424487E4943662B2FFC2F2BFF09A2
:1003800029F620C0887E0903205454794100004496
:100390007D413048484A32384040227A007A0A0A81
:1003A000727D0D19317D2629292F282629292926F4
:1003B00030484D4020380808080808080808382F39
:1003C00010C8ACBA2F102834FA00007B00000814C3
:1003D0002A142222142A14085500550055AA55AA99
:1003E00055AAFF55FF55FF000000FF00101010FF39
:1003F00000141414FF001010FF00FF1010F010F094
:10040000141414FC001414F700FF0000FF00FF1484
:1004100014F404FC141417101F10101F101F1414D0
:10042000141F00101010F0000000001F101010101A
:100430001F10101010F010000000FF10101010100E
:1004400010101010FF10000000FF140000FF00FF4C
:1004500000001F10170000FC04F4141417101714E8
:1004600014F404F40000FF00F7141414141414140A
:10047000F700F7141414171410101F101F1414147D
:10048000F4141010F010F000001F101F0000001FE7
:1004900014000000FC140000F010F01010FF10FF1A
:1004A000141414FF141010101F00000000F010FFAF
:1004B000FFFFFFFFF0F0F0F0F0FFFFFF0000000093
:1004C00000FFFF0F0F0F0F0F3844443844FC4A4A17
:1004D0004A347E02020606027E027E0263554941CC
:1004E000633844443C04407E201E2006027E020203
:1004F00099A5E7A5991C2A492A1C4C7201724C3017
:100500004A4D4D303048784830BC625A463D3E49ED
:100510004949007E0101017E2A2A2A2A2A44445F91
:10052000444440514A444040444A51400000FF0185
:1005300003E080FF000008086B6B08361236243693
:10054000060F090F060000181800000010100030F8
:1005500040FF0101001F01011E00191D1712003C80
:100560003C3C3C00000000002200FF210000010391
:10057000070F1F3F7F0080C0E0F0F8FCFE00000086
:1005800000230026002900000000080002010000EE
:100590000304070000000000000000000000002429
:1005A0000027002A00DB40A4A62EAF2000A1C8D35C
:1005B00000408DAED580A800006000000000000063
:1005C0000000000000000000E0000000000000004B
:1005D00000000000000001E000000000000000003A
:1005E000000000000001F00000000000000000001A
:1005F0000000000003F00000000000000000000008
:1006000000000007F00000000000000000000000F3
:10061000000007F8000000000000000000000000DB
:10062000000FF800000003C0007E000001E0007F22
:100630000FF800000003C000FE000001E000FFEF23
:10064000F800000003C000FE000001E000FFFFF81A
:1006500000000003C000F00000000F007FFE7FC01C
:10066000000003C000F00000000F003FFE7FF83FD5
:10067000F1FBCFFCFEF3BC3DEFE01FFE7FFF7FFBF5
:10068000FFDFFEFEFFBC3DEFE01FC6FFFF7FFBFF6D
:10069000DFFEFEFFBC3DEFE00FE3C7FE787BC3DE6D
:1006A0001EF0FFBC3DEF0007FF87FC787BC3DE1E1A
:1006B000F0F83C3DEF0001FFFFF0007BC3C01EF0EF
:1006C000F03C3DEF0001F37FE03FFBC3CFFEF0F0D5
:1006D0003C3DEF0003E33F807FFBC3DFFEF0F03CD7
:1006E0003DEF0007E73C00787BC3DE1EF0F03C3DA9
:1006F000EF0007FFBE00787BC3DE1EF0F03C3DEF4D
:100700000007FFFE00787BC3DE1EF0F03C3DEF00EB
:100710000FFFFE007FFBFFDFFEF0F03FFDEFE00F7D
:10072000FFFF007FFBFFDFFEF0F03FFDEFE00FF982
:10073000FF003E79F9CF9EF0F01F3DE7E01FF1FF8B
:100740000000000000000000000000001F80FF000B
:100750007FFFFFFFFFFFFFFFFFFFE01C007F007F29
:10076000FFFFFFFEB46D888D18E000001F007FFFC3
:10077000FFFFFE95AD7DB577E000000F007FFFFF26
:10078000FFFEA5AD9D8D19E0000006007FFFFFFF75
:10079000FEB5ADEDB57EE000000000000180000078
:1007A00000000000000000038000000000000000C6
:1007B000000007C000000000000000000007C000AB
:1007C00000000000000000000FC00000000000005A
:1007D0000000001FE00000000000000000001FE01B
:1007E0000000000000000000003FE00000000000EA
:1007F000000000003FF00000000000000000007F4B
:10080000F0000000000000001FF87FF00000000072
:100810000000003FFE7FF0000000000000003FFFEE
:100820007FF0000000000000001FFFFBE000000060
:10083000000000000FFFF9FFC00000000000000FE3
:10084000FFF9FFF800000000000007FFF1FFFF00C4
:10085000000000000003FC73FFFF800000000000A8
:1008600001FE3FFFFF80000000000000FF1E0FFFA1
:10087000000000000000007FFE1FFC0000000000E0
:1008800000003FFFFFF8000000000000000FDFFF46
:10089000E0000000000000001F19FFC00000000081
:1008A0000000003F3CFF00000000000000007E7CD4
:1008B000F800000000000000007FFE7C0000000047
:1008C00000000000FFFFFC0000000000000000FF2F
:1008D000FFFE0000000000000000FFFFFE0000001F
:1008E0000000000001FFEFFE00000000000000011A
:1008F000FFCFFE0000000000000003FF07FE000025
:10090000000000000003FC07FE00000000000000E3
:1009100003F003FE00000000000000018000FE0064
:100920000000000000000000007E00000000000049
:10093000000000003E000000000000000000000C6D
:10094000000000000000078000FC000003C0000061
:1009500000078001FC000003C0000000078001FCCC
:10096000000003C0000000078001E00000001E003E
:100970000000078001E00000001E007FE3F79FF900
:10098000FDE7787BDFC0FFF7FFBFFDFDFF787BDF72
:10099000C0FFF7FFBFFDFDFF787BDFC0F0F787BC2E
:1009A0003DE1FF787BDE00F0F787BC3DE1F0787B2E
:1009B000DE0000F787803DE1E0787BDE007FF7878F
:1009C0009FFDE1E0787BDE00FFF787BFFDE1E07887
:1009D0007BDE00F0F787BC3DE1E0787BDE00F0F7DE
:1009E00087BC3DE1E0787BDE00F0F787BC3DE1E0CD
:1009F000787BDE00FFF7FFBFFDE1E07FFBDFC0FF9C
:100A0000F7FFBFFDE1E07FFBDFC07CF3F39F3DE13B
:100A1000E03E7BCFC00000000000000000000000AE
:100A2000FFFFFFFFFFFFFFFFFFFFC0FFFFFFFFFD17
:100A300068DB111A31C0FFFFFFFFFD2B5AFB6AEF85
:100A4000C0FFFFFFFFFD4B5B3B1A33C0FFFFFFFF03
:100A5000FD6B5BDB6AFDC05353443133303620619C
:100A60006C6C6F636174696F6E206661696C65643C
:100A70000001020408102040800102040810200137
:100A8000020408102000000000250028002B0004AC
:100A90000404040404040402020202020203030325
:100AA000030303021F1C1F1E1F1E1F1F1E1F1E00ED
:100AB000E01C11241FBECFEFD8E0DEBFCDBF23E086
:100AC000AEE9B1E001C01D92A832B207E1F711E032
:100AD000A0E0B1E0E0EAF7E502C005900D92AE3982
:100AE000B107D9F715E0C9E5D5E004C02197FE01AB
:100AF0000E949E29C835D107C9F70E94231D0C9476
:100B0000CE2B0C940000089508953F924F925F926F
:100B10006F927F928F929F92AF92BF92CF92DF920D
:100B2000EF92FF920F931F93CF93DF9300D000D0EB
:100B3000CDB7DEB79C838B833B016A015901DC0191
:100B4000ED91FC910284F385E02D09952801B7E031
:100B50004B0E511C93E0559447949A95E1F7C601CA
:100B60008E0D9F1D9A838983912C812C312CF12C21
:100B7000E12CC70187709927330C892B59F4F701B1
:100B800083E0F595E7958A95E1F7E80DF91DEA0D03
:100B9000FB1D349037FE10C0AB81BC81ED91FC9100
:100BA00011970484F585E02D21E030E0A601B7011E
:100BB000660D771DCD010995BFEFEB1AFB0A0E15E7
:100BC0001F05B9F68FEFC81AD80A840C951CA981A5
:100BD000BA81CA16DB0659F6AB81BC81ED91FC9156
:100BE00011970688F789E02DCD010F900F900F9097
:100BF0000F90DF91CF911F910F91FF90EF90DF90B9
:100C0000CF90BF90AF909F908F907F906F905F90AC
:100C10004F903F90099408950F931F93CF93DF93C4
:100C2000EC01FB014481558160817181E881F9818A
:100C30000280F381E02D09958C01E881F981028021
:100C4000F381E02D42E050E063E671E0CE010995CA
:100C5000800F911FDF91CF911F910F910895AF9257
:100C6000BF92CF92DF92EF92FF920F931F93CF9399
:100C7000DF936C017B018B01040F151FEB015E01FB
:100C8000AE18BF08C017D10759F06991D601ED9190
:100C9000FC910190F081E02DC6010995892B79F72F
:100CA000C501DF91CF911F910F91FF90EF90DF90E1
:100CB000CF90BF90AF900895FC01538D448D252FA8
:100CC00030E0842F90E0821B930B541710F0CF96E6
:100CD000089501970895FC01918D828D981761F018
:100CE000A28DAE0FBF2FB11D5D968C91928D9F5F2F
:100CF0009F73928F90E008958FEF9FEF08952FB725
:100D0000F8948091FB019091FC01A091FD01B091BC
:100D1000FE012FBF80937D0290937E02A0937F02FD
:100D2000B093800285E792E00E946B0697FF26C091
:100D30002FB7F8948091FB019091FC01A091FD01E7
:100D4000B091FE012FBF40917D0250917E026091D3
:100D50007F0270918002841B950BA60BB70B40910C
:100D6000790250917A0260917B0270917C02841723
:100D70009507A607B707B0F28FEF9FEF0895FC0124
:100D8000918D828D981731F0828DE80FF11D858D40
:100D900090E008958FEF9FEF0895FC01918D228DD3
:100DA000892F90E0805C9F4F821B91098F73992758
:100DB000089585E792E00E94CD0621E0892B09F491
:100DC00020E0822F089580E090E0892B29F00E9496
:100DD000D90681110C9400000895FC01A48DA80F80
:100DE000B92FB11DA35ABF4F2C91848D90E001966D
:100DF0008F739927848FA689B7892C93A089B1898D
:100E00008C91837080648C93938D848D981306C02D
:100E10000288F389E02D80818F7D80830895EF9291
:100E2000FF920F931F93CF93DF93EC0181E0888FA4
:100E30009B8D8C8D98131AC0E889F989808185FF74
:100E400015C09FB7F894EE89FF896083E889F98916
:100E500080818370806480839FBF81E090E0DF9118
:100E6000CF911F910F91FF90EF900895F62E0B8D6B
:100E700010E00F5F1F4F0F731127E02E8C8D8E1126
:100E80000CC00FB607FCFACFE889F989808185FF8D
:100E9000F5CFCE010E94ED06F1CFEB8DEC0FFD2FCB
:100EA000F11DE35AFF4FF0829FB7F8940B8FEA8948
:100EB000FB8980818062CFCFCF93DF93EC01888D57
:100EC0008823B9F0AA89BB89E889F9898C9185FDC5
:100ED00003C0808186FD0DC00FB607FCF7CF8C9153
:100EE00085FFF2CF808185FFEDCFCE010E94ED0618
:100EF000E9CFDF91CF910895833081F028F48130DC
:100F000099F08230A9F008958730A9F08830C9F0AF
:100F10008430B1F4809180008F7D03C08091800087
:100F20008F7780938000089584B58F7784BD08956E
:100F300084B58F7DFBCF8091B0008F778093B00018
:100F400008958091B0008F7DF9CFCF93DF93282F44
:100F500030E0F901E957FA4F8491F901EF58F54F64
:100F6000D491F901E157F54FC491CC23A1F081113F
:100F70000E947C07EC2FF0E0EE0FFF1FE358FA4FC2
:100F8000A591B491EC91ED2381E090E009F480E02B
:100F9000DF91CF91089580E090E0FACF1F93CF9337
:100FA000DF93282F30E0F901E957FA4F8491F901D6
:100FB000EF58F54FD491F901E157F54FC491CC2387
:100FC000A9F0162F81110E947C07EC2FF0E0EE0FA4
:100FD000FF1FEB57F54FA591B4918FB7F894EC91A3
:100FE000111108C0D095DE23DC938FBFDF91CF9124
:100FF0001F910895DE2BF8CFCF93DF9390E0FC0193
:10100000EF58F54F24918157954FFC018491882327
:10101000D1F090E0880F991FFC01E556FA4FA59199
:10102000B491FC01EB57F54FC591D49161110EC0FD
:101030009FB7F8948C91E22FE0958E238C932881B2
:10104000E223E8839FBFDF91CF9108958FB7F89493
:10105000EC91E22BEC938FBFF6CF1F93CF93DF93EE
:10106000182FEB0161E00E94FC07209739F460E043
:10107000812FDF91CF911F910C94CE07CF3FD105E7
:1010800011F461E0F5CFE12FF0E0E957FA4FE49178
:10109000E33031F140F4E130B1F0E230E1F0C0385A
:1010A000D1057CF7E4CFE73029F1E83059F1E4309D
:1010B000B1F780918000806280938000D0938B0094
:1010C000C0938A0004C084B5806884BDC7BDDF9129
:1010D000CF911F91089584B5806284BDC8BDF7CFBC
:1010E00080918000806880938000D0938900C093B5
:1010F0008800EDCF8091B00080688093B000C093ED
:10110000B300E5CF8091B00080628093B000C093BF
:10111000B400DDCF3FB7F8948091E3019091E401F2
:10112000A091E501B091E60126B5A89B05C02F3F2F
:1011300019F00196A11DB11D3FBFBA2FA92F982FFD
:101140008827BC01CD01620F711D811D911D42E0F8
:10115000660F771F881F991F4A95D1F708958F92C0
:101160009F92AF92BF92CF92DF92EF92FF924B018C
:101170005C010E948A086B017C010E948A086C193C
:101180007D098E099F09683E734081059105A8F38A
:1011900021E0821A9108A108B10888EEC80E83E008
:1011A000D81EE11CF11C81149104A104B10429F79B
:1011B000FF90EF90DF90CF90BF90AF909F908F9077
:1011C0000895EF92FF920F931F93CF93DF93EC015B
:1011D000EC80FD806E157F050CF070C057FF04C0D9
:1011E000240F351F50E040E08E819F81FA01E20F0D
:1011F000F31F8E179F071CF49C01241B350B12163E
:1012000013060CF05BC0922F842F869586958695E9
:101210008E9DD0018F9DB00D11246A0F7B1FAF8D65
:10122000B8A1A60FB71F477049F188E0841B482F6B
:10123000682F70E0FB01EB58FA4FE491281708F093
:1012400063C0621B71092FEF30E002C0359527950E
:101250006A95E2F7E2230130110539F0B0F102306E
:10126000110561F58C91E82702C08C91E82BEC9375
:10127000941720F12C813D81A20FB31FE92FE41BAD
:10128000E83078F00230110521F58E2F9C91909571
:101290009C932C813D81A20FB31F88508830B0F7FA
:1012A000E770EE2359F0F0E0E359FA4FE491013092
:1012B0001105F9F010F10230110519F1DF91CF910C
:1012C0001F910F91FF90EF900895E0958C91E82386
:1012D000CECF81E00115110509F480E081959E2FA4
:1012E0008C932C813D81A20FB31F98509830C0F78A
:1012F000D7CF8C91E82BEC93E1CFE0958C91E8234C
:10130000FACF8C91E827F7CF0130110509F4ADCF62
:10131000E0F20230110509F4A5CFAE0DBF1DAECF2E
:101320000F931F93CF93DF9377FF04C0260F371FD0
:1013300070E060E0DC011496CD91DC91FB01E20FDE
:10134000F31FCE17DF071CF49E01261B370B121666
:1013500013064CF5FA0157FD3796A3E0F595E7958E
:10136000AA95E1F7EC9FD001ED9FB00DFC9FB00D69
:1013700011246A0F7B1FDC015F96ED91FC91E60F53
:10138000F71F4770552781E090E001C0880F4A950C
:10139000EAF7482F0130110559F0A8F02E0F3F1F32
:1013A00002301105E1F0DF91CF911F910F91089567
:1013B0002E0F3F1FE217F307B1F38191DF01119761
:1013C000842B8C93F7CF80952E0F3F1FE217F307E6
:1013D00051F39191DF01119798239C93F7CFE21776
:1013E000F30709F38191DF01119784278C93F7CFDD
:1013F0000F931F93FA01DC0156964C915697423099
:10140000E9F04330A1F1413061F514964D915C91C2
:10141000DA01AE1BBF0BFD01E21BF30B77FD0BC026
:10142000DC0116964D915C916417750724F4AB01AD
:10143000BF010E9490091F910F91089514964D913C
:101440005C91DA01A61BB70BBD0161507109DC018B
:1014500016964D915C91DA01AE1BBF0BFD01E21BAC
:10146000F30B77FDE8CFAF010E94E108E4CF1696B9
:101470004D915C91DA01A61BB70BBD01615071095A
:10148000CDCF0F931F93FA01DC0156964C915697DE
:101490004230A9F0433091F1413019F514964D9145
:1014A0005C91DA01AE1BBF0BFD013197F7FD04C063
:1014B000AB01BF010E94E1081F910F91089514969E
:1014C0004D915C91DA01A61BB70BBD01DC011696AC
:1014D0004D915C91DA01AE1BBF0BFD013197621B90
:1014E000730BF7FDE9CFDC0116964D915C91E41783
:1014F000F50714F7AF010E949009DECF16964D91C3
:101500005C91DA01A61BB70BBD01621B730BCECF3A
:10151000FC0177FD64C080859185681779070CF020
:101520005EC057FD5CC082859385481759070CF053
:1015300056C086898230B1F0833029F1813041F480
:1015400084819581841B950BAB01BC0161507109AD
:101550002130310509F108F443C02230310509F486
:1015600063C0089584819581DC01A61BB70BBD0182
:101570006150710986819781DC01A41BB50BAD0117
:1015800041505109E5CF86819781861B970BBA019F
:10159000AC0141505109DCCFCA0157FD0796A3E0C9
:1015A00095958795AA95E1F7A481B5818A9F9001C9
:1015B0008B9F300D9A9F300D1124620F731F078C83
:1015C000F0A1E02DE60FF71F4770552721E030E02E
:1015D00001C0220F4A95EAF78081822B808308950B
:1015E000CA0157FD079633E0959587953A95E1F73F
:1015F000A481B5818A9F90018B9F300D9A9F300DF9
:101600001124620F731F078CF0A1E02DE60FF71F66
:101610004770552781E090E001C0880F4A95EAF7AE
:10162000809590818923DACFCA0157FD079623E080
:10163000959587952A95E1F7A481B5818A9F9001B8
:101640008B9F300D9A9F300D1124620F731F078CF2
:10165000F0A1E02DE60FF71F4770552721E030E09D
:1016600001C0220F4A95EAF780818227B7CF8EBD4D
:1016700000000DB407FEFDCF8EB508950895FC015E
:101680006370668B8481958126813781613039F062
:10169000633029F0918780873387228708953187C7
:1016A00020879387828708952F923F924F925F926F
:1016B0006F927F928F929F92AF92BF92CF92DF9262
:1016C000EF92FF920F931F93CF93DF93CDB7DEB7C7
:1016D0006A970FB6F894DEBF0FBECDBF9A8F898F81
:1016E0007A8369834A01D22E18870F833701BC2C75
:1016F000DC0159962D913C915A972115310509F03D
:1017000015C118968D919C911997681779070CF05F
:10171000D7C11A968D919C91481759070CF0D0C1EA
:101720004C2C512CB6E0CB9E600D711D11247C8792
:101730006B87161617060CF0C3C1EA2DF0E0FA8786
:10174000E98793E0EE0FFF1F9A95E1F7F88BEF879B
:10175000CF01840F951F181619060CF0B1C1A98D81
:10176000BA8D58968C91811104C0BFEABD1508F45A
:10177000D394A98DBA8DED91FC9111970284F385D4
:10178000E02DCD010995B5E0DB9EC0011124E98172
:10179000FA81FC83EB83312C212C9C0128593F4F8B
:1017A000388F2F8B4A2D50E05E8B4D8BEF89F88D53
:1017B000E20DF31D44919E828D82D12CC12C698152
:1017C0007A81620D731D7A8B698B842F90E09C8BDC
:1017D0008B8BE98DFA8DA081B18140FF82C0F1E051
:1017E000BF126FC0AF126DC01C96ED91FC912F819E
:1017F0003885A4014C0D5D1D69897A89898D9A8D82
:101800000995EB89FC89F595E7954E2F5FEFC51A91
:10181000D50A6D817E818D899E89680F791F7E83AF
:101820006D8398E0C916D10481F6AFEF2A1A3A0AFF
:10183000EB81FC81E40DF51DFC83EB83F5E02F16B5
:10184000310409F0B3CF2F81388526153705B9F05B
:10185000A98DBA8DED91FC91B1E0BB1257C0AB12CE
:1018600055C069817A816B5F7F4F0088F189E02DD7
:10187000830128E030E0A401898D9A8D0995A98D16
:10188000BA8DED91FC9111970688F789E02DCD0175
:101890006A960FB6F894DEBF0FBECDBFDF91CF9131
:1018A0001F910F91FF90EF90DF90CF90BF90AF907E
:1018B0009F908F907F906F905F904F903F902F9070
:1018C00009941E96ED91FC91EF80F88409851A85A4
:1018D00092014D815E816B817C81898D9A8D099504
:1018E00090CF2F8138852615370509F48ACF31E04E
:1018F000B31207C0A31205C01C96ED91FC91930191
:1019000078CF1E96ED91FC917301E0CF6B857C85BD
:10191000641975090684F785E02D73010F85188910
:101920009201A401898D9A8D0995A9CFF901349668
:101930009491329745915491D91AB7E0DB9E400DAE
:10194000511D1124F901259134913C8B2B8BFA0107
:1019500025903490FA013296749031963491398BF7
:10196000329664903196449041E04C1518F04A1537
:1019700008F07FC0662D062C000C770B7C836B83F0
:10198000842D042C000C990B9E838D83A98DBA8D18
:10199000ED91FC9111970284F385E02DCD0109951D
:1019A000512CD12CC12CEA2DF0E0FA87E9872B2DA0
:1019B00030E03C872B87A401440D511D47FC5A950C
:1019C000588F4F8B69817A81660D711D67FC7A95FE
:1019D0007E876D877989C71608F051CF2C2D30E0AE
:1019E0004D815E81420F531FA985BA854A9FC00170
:1019F0004B9F900D5A9F900D1124FC01E80DF91D8D
:101A0000F88BEF87852D612C4F89588D420F531F1E
:101A10005E8B4D8B671408F050C044244394480EED
:101A2000877041F4C1010196EB89FC89E20DF31D39
:101A3000D4901C01D7FE19C0A98DBA8DED91FC91EF
:101A4000662D70E0B1E0BB1219C0AB1217C02D8536
:101A50003E85620F731F0484F585E02D2F81388544
:101A60004D895E89898D9A8D0995DD0C6394842D4D
:101A7000D1CF1E821D821C821B8288CF4B815C814C
:101A8000640F751FAB85BC856A9FC0016B9F900D6D
:101A90007A9F900D112469817A81680F791F0684DD
:101AA000F785E02DEF80F88409851A859D014F8523
:101AB0005889898D9A8D0995D8CF570CC3948ACFB0
:101AC0006A960FB6F894DEBF0FBECDBFDF91CF91FF
:101AD0001F910F91FF90EF90DF90CF90BF90AF904C
:101AE0009F908F907F906F905F904F903F902F903E
:101AF00008958F929F92AF92CF92EF92FF920F93A1
:101B00001F93CF93DF93EC01262F898D9A8D009739
:101B100009F051C06A30D1F41D861C868D8948E0D9
:101B2000849F900111248E859F85820F931F9F872C
:101B30008E8781E090E0DF91CF911F910F91FF9010
:101B4000EF90CF90AF909F908F9008956D3089F374
:101B5000CC88AD888F898823C1F08C859D8536E03F
:101B6000C39E800D911D112448855985481759073A
:101B700064F44E855F851D861C8638E0A39EC001F7
:101B80001124840F951F9F878E87EA88FB88088918
:101B900019894E855F856C857D85CE010E94540B29
:101BA0002C898C859D8546E0249F800D911D1124F4
:101BB0009D878C87BECF6A3069F41D861C86FC0128
:101BC0003896E4912D898E859F85E29F800D911D29
:101BD0001124ADCF6D3009F4ACCFFC0134963491B3
:101BE000631708F4A6CF3296E491E61708F4A1CF64
:101BF000FC01329685909490462F431B342F47E08A
:101C0000349F800C911C1124F4013296349131964A
:101C1000E4913323A9F1EE2399F1CC88F4013596B0
:101C2000E491AD884F89442301F10E2E000CFF0B87
:101C3000E30FF11DCE9EA001CF9E500D11246C85A7
:101C40007D85460F571F68857985641775076CF485
:101C50004E855F851D861C86FC013896E491AE9EFC
:101C6000400D511D11245F874E87EA88FB88088943
:101C700019894E855F856C857D85CE010E94540B48
:101C8000F4013496E4912C898C859D85E29F800D2A
:101C9000911D11248DCF6F927F928F929F92AF9260
:101CA000BF92CF92DF92EF92FF920F931F93CF9349
:101CB000DF93EC016B015A0139014801E881F98198
:101CC0000284F385E02D0995E881F9810288F38982
:101CD000E02D87019301A501B601CE010995A5016B
:101CE000480D591D41505109E881F9810288F38955
:101CF000E02D9301B601CE010995E881F9810088B4
:101D0000F189E02D9401A501B601CE010995C60C1B
:101D1000D71CB60161507109E881F9810088F18909
:101D2000E02D9401A501CE010995E881F98106888D
:101D3000F789E02DCE01DF91CF911F910F91FF9098
:101D4000EF90DF90CF90BF90AF909F908F907F905B
:101D50006F9009946F927F928F929F92AF92BF92F1
:101D6000CF92DF92EF92FF920F931F93CF93DF9367
:101D70005C01EB016A01490138018701DC01ED9149
:101D8000FC916217730719F5641675062CF0962DF1
:101D9000872D3A01C92ED82E9601261937092F5FB3
:101DA0003F4F048CF58DE02DA301BE01C5010995BF
:101DB000DF91CF911F910F91FF90EF90DF90CF9027
:101DC000BF90AF909F908F907F906F900895461531
:101DD000570591F42617370724F0892D4B01C22FA0
:101DE000D82F9E01281939092F5F3F4F068CF78D98
:101DF000E02DA601B401DACF0284F385E02D099528
:101E0000D501ED91FC910488F589E02D83019401C1
:101E1000A601BE01C5010995D501ED91FC91068889
:101E2000F789E02DC501DF91CF911F910F91FF90B0
:101E3000EF90DF90CF90BF90AF909F908F907F906A
:101E40006F900994EF92FF920F931F93DC011A9603
:101E50000D911C911B9718962D913C911997ED911E
:101E6000FC9100A0F1A1E02D7B0150E040E070E08A
:101E700060E009951F910F91FF90EF9008954F92A8
:101E80005F926F927F928F929F92AF92BF92CF920A
:101E9000DF92EF92FF920F931F93CF93DF936C012A
:101EA0002B015A0139014801DC01ED91FC910284BA
:101EB000F385E02D0995E201640C751CD601ED91C6
:101EC000FC91C615D7055CF40088F189E02D8701E7
:101ED0009401A501BE01C60109952196EFCF0688A0
:101EE000F789E02DC601DF91CF911F910F91FF90EF
:101EF000EF90DF90CF90BF90AF909F908F907F90AA
:101F00006F905F904F9009948F929F92AF92BF9283
:101F1000CF92DF92EF92FF920F931F93CF93DF93B5
:101F2000EC015B014A016901E881F9810284F385D2
:101F3000E02D099595012C0D3D1D21503109E881B9
:101F4000F9810488F589E02D78018401A401B501A7
:101F5000CE010995E881F9810688F789E02DCE0147
:101F6000DF91CF911F910F91FF90EF90DF90CF9075
:101F7000BF90AF909F908F9009948F929F92AF9255
:101F8000BF92CF92DF92EF92FF920F931F93CF9366
:101F9000DF93EC015B014A0169017801E881F98175
:101FA0000284F385E02D0995C80CD91C86010150E7
:101FB0001109E881F9810488F589E02D9501A401D2
:101FC000B501CE010995E881F9810688F789E02DF0
:101FD000CE01DF91CF911F910F91FF90EF90DF9095
:101FE000CF90BF90AF909F908F9009940895EF92FB
:101FF000FF920F931F93DC01ED91FC9100A0F1A1E2
:10200000E02D09951F910F91FF90EF9008950F9388
:102010001F93DC01ED91FC91068CF78DE02D099565
:102020001F910F9108950F931F93DC01ED91FC9187
:10203000048CF58DE02D09951F910F910895DC0119
:10204000ED91FC910084F185E02D09942F923F924F
:102050004F925F926F927F928F929F92AF92BF92B8
:10206000CF92DF92EF92FF920F931F93CF93DF9364
:1020700000D000D000D0CDB7DEB73C016A013E836E
:102080002D83FC82EB825801A41AB50AB7FE03C067
:10209000B194A194B1088D809E80861A970A97FE0C
:1020A00003C09194819491088A149B045CF0902F52
:1020B000812F0D811E819D838E839C2D8D2D6B0123
:1020C000692F782F0C151D055CF09D818E817E8314
:1020D0006D83692F782F902F812F8601C92ED82EDE
:1020E0001601201A310A2B012D813E81421A530A12
:1020F00057FE03C0519441945108710137FE03C04B
:102100003FEFE31AF30AF594E7948D819E818617D9
:1021100097075CF5A1E0B0E0BA83A983C016D106A9
:102120004CF1D301ED91FC910484F585E02D2B81D8
:102130003C81A8016D817E818A149B041CF04D8135
:102140005E81B801C3010995E418F508F7FE0AC0DD
:102150002D813E8189819A81280F391F3E832D83ED
:10216000E20CF31C0F5F1F4FD9CF2FEF3FEF3A83E5
:102170002983D4CF26960FB6F894DEBF0FBECDBF0D
:10218000DF91CF911F910F91FF90EF90DF90CF9053
:10219000BF90AF909F908F907F906F905F904F9087
:1021A0003F902F90089508958CBD9DBD0895FC012A
:1021B00061819081492F50E08281282F30E0E4EA4C
:1021C000FAE081E0861730F47491270F311D8F5F9C
:1021D0003196F8CF633020F0937011F42F5F3F4FAA
:1021E0006DE671E0469FC001479F900D569F900D90
:1021F000112405964D5F5F4F569547955695479527
:10220000840F951F820F931F67E070E00E9454298E
:1022100008952091BF01260F3327331F2132310546
:10222000ECF420914B02FC0190E080E0243069F056
:1022300082E00895A091BF012191AC0141565E4F0B
:10224000A40FB52FB11D2C930196861798F380919A
:10225000BF01680F6093BF0180E0089581E0089599
:1022600010924B0281E080934A021092250261E0B5
:1022700082E10E94CE0761E083E10E94CE07E9EB94
:10228000F0E080818E7F808380818D7F808388E4F1
:102290008093B80085E48093BC00089510922402D6
:1022A0001092230210925202109274020E94301176
:1022B00083E895E0909322028093210284E895E0E0
:1022C0009093200280931F020895CF93DF9391E0B3
:1022D00090939E018823B9F0C091B800D091BA00C4
:1022E0008091BC008A7B8093BC0060E082E10E9408
:1022F000CE0760E083E10E94CE070E943011D093A8
:10230000BA00C093B800DF91CF9108958F929F9249
:10231000AF92BF92CF92DF92EF92FF920F931F93F3
:10232000CF93DF93D0917402D13208F0D7C0182F29
:10233000C09173020E948A086B017C0180914B025C
:1023400081116BC082E080934B0210934A028FEFA1
:102350008093490210924802D0934702A3E5B2E06D
:10236000E7E2F2E080E0D81391C01092260280915B
:102370002602CC0FC82BC093260280912502813003
:1023800009F088C0109225020E948A086B017C0126
:10239000809126028093BB0080914D0290914E0265
:1023A000A0914F02B0915002892B8A2B8B2BA1F068
:1023B0000E948A0800914D0210914E0220914F0216
:1023C000309150026C197D098E099F090617170775
:1023D0002807390708F442C08091BC0083FDD8CF9C
:1023E00085EC8093BC000E948A086B017C0180917F
:1023F0004B02823009F450C0809149028F3F09F4AA
:102400006FC080914902803209F46CC0809149020A
:10241000803309F469C084E026C080914D02909118
:102420004E02A0914F02B0915002892B8A2B8B2B28
:1024300009F484CF0E948A0880904D0290904E0249
:10244000A0904F02B09050026C197D098E099F092F
:1024500086169706A806B90608F070CF80914C0240
:102460000E94651185E0109252021092740210923F
:102470005102DF91CF911F910F91FF90EF90DF906C
:10248000CF90BF90AF909F908F9008959D91919322
:102490008F5F69CF85EEA5CF80914D0290914E025E
:1024A000A0914F02B0915002892B8A2B8B2B09F4FB
:1024B0009ECF0E948A0800914D0210914E022091F9
:1024C0004F02309150026C197D098E099F09061741
:1024D00017072807390708F08ACFC0CF81E0C3CF9C
:1024E00080E0C1CF82E0BFCF83E0BDCFE091240286
:1024F00080912302E81730F4F0E0E150FE4F808134
:1025000090E008958FEF9FEF0895909124028091BD
:1025100023022FEF3FEF981748F4E92FF0E0E15046
:10252000FE4F208130E09F5F90932402C9010895FF
:102530008091230290912402891B990B0895CF92D8
:10254000DF92EF92FF920F931F93CF93DF937C0163
:10255000CB018A0120915102222389F0EB016B010A
:10256000C40ED51ECC15DD0569F06991D701ED913A
:10257000FC910190F081E02DC7010995F3CF642F04
:102580000E940911C801DF91CF911F910F91FF9017
:10259000EF90DF90CF900895CF93DF931F92CDB748
:1025A000DEB76983209151022223F9F02091740251
:1025B000203258F021E030E0FC013383228390E0A8
:1025C00080E00F90DF91CF91089580915202E82F23
:1025D000F0E0ED5AFD4F998190838F5F8093520216
:1025E0008093740281E090E0ECCF61E0CE0101962F
:1025F0000E940911F7CF81E00C948611CF92DF92EF
:10260000EF92FF920F931F93CF93DF93EC016B0137
:10261000142F8D8D9E8D009709F454C029A131E0AF
:10262000309351022093730210925202109274025E
:10263000DC01ED91FC910190F081E02D60E00995C5
:102640007601CC24C394D12C01E011508D8D9E8D48
:102650001F3F71F1B0E2CB16D104C0F00E94FB1213
:102660008D8D9E8D29A100935102209373021092AB
:10267000520210927402DC01ED91FC910190F08104
:10268000E02D60E00995CC24C394D12C8D8D9E8DD6
:10269000F7016491DC01ED91FC910190F081E02D56
:1026A0000995BFEFCB1ADB0AEFEFEE1AFE0ACDCF8A
:1026B000DF91CF911F910F91FF90EF90DF90CF901E
:1026C0000C94FB12EDA5FEA590818BA98095892322
:1026D00080837B01115070F1F70184912B8D3C8D2B
:1026E000232B31F00E94370BFFEFEF1AFF0AF2CFD6
:1026F00028E030E040E8E9A5FAA599A9582F54232D
:10270000A9F05081952B9083EBA5FCA590815AA947
:10271000952B9083EBA5FCA550819AA990959523C4
:10272000908346952150310931F7DECF5081909545
:102730009523E9CFDF91CF911F910F91FF90EF90FB
:10274000DF90CF9008951F93CF93DF93EC018D8D91
:102750009E8D009721F1162F29A131E0309351026F
:10276000209373021092520210927402DC01ED91D8
:10277000FC910190F081E02D60E009958D8D9E8D9A
:10278000DC01ED91FC910190F081E02D612F099524
:102790008D8D9E8DDF91CF911F910C94FB12ADA575
:1027A000BEA59C918BA9809589238C938B8D9C8D44
:1027B000892B31F0862FDF91CF911F910C94370B2D
:1027C00028E030E080E8A9A5BAA599A9462F4823BA
:1027D000C1F04C91942B9C93ABA5BCA59C914AA9AC
:1027E000942B9C93ABA5BCA54C919AA9909594234E
:1027F0009C9386952150310931F7DF91CF911F913C
:1028000008954C9190959423E6CF1F93CF93DF9337
:10281000EC01162F8D8D9E8D892BB1F12DA93EA92E
:102820004FA958AD60E074E284EF90E00E947C29EB
:1028300020513109410951095695479537952795FA
:102840002093B80066EA111167EACE010E94A31333
:102850008D8D9E8D892B41F129AD3AAD4BAD5CAD8F
:1028600060E074E284EF90E00E947C2920513109FD
:102870004109510956954795379527952093B800FA
:10288000DF91CF911F9108958B8D9C8D892B21F025
:102890008EAD9FAD0E94D410EFA5F8A990818CA9B0
:1028A000809589238083CECFEFA5F8A980819CA94C
:1028B000892B8083E5CFBF92CF92DF92EF92FF9278
:1028C0000F931F93CF93DF93EC018D8D9E8D892BFA
:1028D00009F484C02DA93EA94FA958AD60E074E267
:1028E00084EF90E00E947C2920513109410951096F
:1028F00056954795379527952093B80045E068E6AB
:1029000075E0CE010E94FE126C816150CE010E94E2
:10291000A3132E813F81C901079697FD079633E0E7
:10292000959587953A95E1F72C813D81829F7001BD
:10293000839FF00C929FF00C11240F8D18A18D8DA8
:102940009E8DE00EF11E009709F47DC029A131E0B3
:10295000309351022093730210925202109274022B
:10296000DC01ED91FC910190F081E02D60E409958E
:10297000CC24C394D12CBB24B3948D8D9E8DE016B2
:10298000F106E1F1B0E2CB16D104C0F00E94FB12D7
:102990008D8D9E8D29A1B0925102209373021092C9
:1029A000520210927402DC01ED91FC910190F081D1
:1029B000E02D60E40995CC24C394D12C8D8D9E8D9F
:1029C000F80161918F01DC01ED91FC910190F081A2
:1029D000E02D0995BFEFCB1ADB0ACFCF8B8D9C8DF5
:1029E000892B21F08EAD9FAD0E94D410EFA5F8A9E0
:1029F00090818CA980958923808380CF0E94FB12CF
:102A00008D8D9E8D892B09F453C029AD3AAD4BAD08
:102A10005CAD60E074E284EF90E00E947C2920517C
:102A200031094109510956954795379527952093C6
:102A3000B800DF91CF911F910F91FF90EF90DF9041
:102A4000CF90BF900895EDA5FEA580819BA9892B0D
:102A50008083E016F106A1F2F80181918F012B8DA0
:102A60003C8D232B19F00E94370BF3CF28E030E088
:102A700040E8E9A5FAA599A9582F5423A9F0508157
:102A8000952B9083EBA5FCA590815AA9952B90835B
:102A9000EBA5FCA550819AA9909595239083469526
:102AA0002150310931F7D5CF508190959523E9CF49
:102AB000EFA5F8A980819CA9892B8083BACFCF93F9
:102AC000DF93EC018B818823A9F089819A81288189
:102AD00031E030935102209373021092520210920F
:102AE00074020E94FB1291E0811190E0892FDF9126
:102AF000CF9108950E944E1181E08B83CE010E94F8
:102B00005F15982F8111E1CFF1CF90E080E008951B
:102B1000CF93DF93EC016E817F81072E000C880B31
:102B2000990B0E94D7262C853D854E855F850E9496
:102B300036270E94192988810E942D086885798589
:102B4000072E000C880B990B0E94D7262C853D85FB
:102B50004E855F850E9436270E9419298A810E942E
:102B60002D086A857B85072E000C880B990B0E9427
:102B7000D7262C853D854E855F850E9436270E948D
:102B800019298C81DF91CF910C942D08FB019C01B8
:102B90002A5F3F4F6217730799F020813181DC0172
:102BA00017963C932E9316972281338119963C9366
:102BB0002E931897248135811B963C932E931A9758
:102BC0000C948815FC01808591850C945B140F93FF
:102BD000DC011896ED91FC91011101C001E0048B1C
:102BE000058B81E090E0938B828B918B808B558756
:102BF000448737872687CF010F910C940C067F926C
:102C00008F929F92AF92BF92CF92DF92EF92FF92FC
:102C10000F931F93CF93DF93CDB7DEB72C970FB6EB
:102C2000F894DEBF0FBECDBF7B015C0122E0A20E97
:102C3000B11C6C01ACE0CA0ED11CF50101911191DF
:102C40005F01D80118964D915C9119971A962C91B5
:102C50001A972F831B969C911B9798871C966C91B3
:102C60001C9769871D967C901D977A861E96AC915D
:102C7000AB87F80187858C87F70180818983318153
:102C80003A8372817B8383808C82B481BD839580FB
:102C90009E82BA1731F0CA14DB0479F610E000E026
:102CA00015C08710F8CF761731F14115510571F035
:102CB0004130510581F7CE0101960E94D710982E20
:102CC000CE0107960E94D7109812E5CFC8012C9626
:102CD0000FB6F894DEBF0FBECDBFDF91CF911F912D
:102CE0000F91FF90EF90DF90CF90BF90AF909F90AB
:102CF0008F907F900895391721F04230510531F3BC
:102D0000CACF90E08053984F30E02053384F82175D
:102D1000930721F043305105C9F2BDCF443051052E
:102D2000A9F2B9CF2F923F924F925F926F927F920A
:102D30008F929F92AF92BF92CF92DF92EF92FF92CB
:102D40000F931F93CF93DF93DC011496ED91FC91C9
:102D5000EF2B09F41CC159011A018C01FC0181817E
:102D60009281208131E030935102209373021092BE
:102D7000520210927402DC01ED91FC910280F38109
:102D8000E02D41E050E00995019709F000C180E095
:102D90000E9486118111FBC0D12CC12CF8018481C5
:102DA00095817501EC18FD088E159F0508F47C01CE
:102DB000D801DC910E948A082B013C0180914B02D2
:102DC000811173C0CE2DC13208F0C0E2B1E0B093E2
:102DD0004B0221E0C5018E199F09C816D90608F4D7
:102DE00020E020934A02EFEFE0934902109248025C
:102DF0008FEF8C0F80934702F1E0F09326028091D1
:102E00002602DD0FD82BD093260280912502813037
:102E100009F08FC0109225020E948A082B013C0104
:102E2000809126028093BB0080914D0290914E02CA
:102E3000A0914F02B0915002892B8A2B8B2BA1F0CD
:102E40000E948A0820914D0230914E0240914F021B
:102E5000509150026419750986099709261737079A
:102E60004807590708F442C08091BC0083FDD8CFC1
:102E700085EC8093BC000E948A082B013C01809164
:102E80004B02813009F459C0809148028C1710F42C
:102E9000C0914802A7E2B2E0EFEFF1E080E08C17CA
:102EA00051F19D9191938F5FFACF80914D02909156
:102EB0004E02A0914F02B0915002892B8A2B8B2B8E
:102EC00009F47CCF0E948A0820914D0230914E0275
:102ED00040914F0250915002641975098609970973
:102EE000261737074807590708F068CF80914C022A
:102EF0000E946511C0E010922402C0932302CE15F7
:102F00001F0409F044C041018C0C9D1CE401CE015A
:102F1000881999098E159F0590F5F8018181928194
:102F2000DC01ED91FC910284F385E02D09958993F4
:102F3000EECFA5EEA093BC009ECF80914D02909164
:102F40004E02A0914F02B0915002892B8A2B8B2BFD
:102F500009F495CF0E948A0820914D0230914E02CB
:102F600040914F02509150026419750986099709E2
:102F7000261737074807590708F081CFB7CFCE0C7F
:102F8000DF1CCA14DB0408F409CF81E001C080E033
:102F9000DF91CF911F910F91FF90EF90DF90CF9035
:102FA000BF90AF909F908F907F906F905F904F9069
:102FB0003F902F900895FF920F931F93CF93DF932D
:102FC00000D000D000D01F92CDB7DEB78C01FB013E
:102FD000198227E030E0AE014F5F5F4FBA01808178
:102FE00091810E949216E981EF77FA81FB805D81E1
:102FF0004E814F778F81282F30E094E035952795CB
:103000009A95E1F7922F990F990F291B220F280FFC
:10301000D8012C93842F90E024E0959587952A95EC
:10302000E1F7982F990F990F891B880F840F11963C
:103030008C931197652F70E034E0759567953A95FC
:10304000E1F7862F880F880F681B660F650F1296B1
:103050006C9312974F2D50E064E0559547956A9513
:10306000E1F7842F880F880F481B440F4F0D1396EC
:103070004C9313972F2F30E074E0359527957A9570
:10308000E1F7822F880F880F281B220F2F0F14962D
:103090002C9314978E2F90E0F4E095958795FA95F0
:1030A000E1F7982F990F990F891B880F8E0F1596AE
:1030B0008C93C80127960FB6F894DEBF0FBECDBF24
:1030C000DF91CF911F910F91FF900895CF93DF93E0
:1030D000DC0114962D913C911597232B79F0FB017F
:1030E000CD91DC9160817181CE010E94B42B00975B
:1030F00029F08C1B9D0BDF91CF9108958FEF9FEFEF
:10310000FACF0F931F93CF93DF93EC0188819981BE
:10311000009759F02A813B812617370730F081E06C
:10312000DF91CF911F910F9108958B016F5F7F4FBA
:103130000E94D02A009759F0998388831B830A83C1
:103140002C813D81232B59F7FC011082E8CF80E0D0
:10315000E7CFEF92FF920F931F93CF93DF93411529
:103160005105B1F07B01EC010C811D81040F151F8D
:10317000B8010E948118882361F0288139818C81EF
:103180009D81B701820F931F0E94AD2B1D830C837D
:1031900081E0DF91CF911F910F91FF90EF90089503
:1031A000EF92FF920F931F93CF93DF9300D000D045
:1031B000CDB7DEB77C01862F4AE08E010F5F1F4F2F
:1031C000B80190E00E948626F80101900020E9F7FE
:1031D0003197AF01401B510BB801C7010E94A918DC
:1031E0000F900F900F900F90DF91CF911F910F9143
:1031F000FF90EF900895CF93DF9300D0CDB7DEB767
:1032000069831A8241E050E0BE016F5F7F4F0E94E8
:10321000A9180F900F90DF91CF910895CF93DF936E
:10322000EC0188819981009711F00E94472A198248
:1032300018821D821C821B821A82DF91CF91089511
:10324000EF92FF920F931F93CF93DF93EC017B01DB
:103250008A01BA010E94811881110BC0CE010E941F
:103260000E19CE01DF91CF911F910F91FF90EF903A
:1032700008951D830C83B701888199810E94AD2B2D
:10328000F0CFCF93DF93EC01FB018617970749F04E
:10329000608171816115710541F0448155810E9401
:1032A0002019CE01DF91CF9108950E940E19F9CF18
:1032B000FC01118210821382128215821482FB019A
:1032C00001900020E9F73197AF01461B570B0C9492
:1032D0002019DF92EF92FF920F931F93CF93DF930A
:1032E000EC017B018A0165E671E00E9458191F8696
:1032F0001E861D861A8681E08B878B858C3070F444
:10330000282F2150330BF901EC55F54FE491823011
:1033100009F4EF5FE11102C08F5FEECFDD24D3949B
:10332000DC8688EE93E09A8B898B86E0F701DE01DC
:103330001A9601900D928A95E1F7B801CE010E948C
:103340004119DE82DF8284E090E099878887188ABD
:10335000DF91CF911F910F91FF90EF90DF90089533
:10336000AF92BF92CF92DF92EF92FF920F931F9393
:10337000CF93DF937C016B015A0189012417350734
:1033800020F48B2D5901042F182F65E671E0C70139
:103390000E945819D6011496CD91DC91AC16BD0649
:1033A00020F50C171D0708F4E801D601ED91FC91FA
:1033B0001197EC0FFD1F108110826D917C916A0DA9
:1033C0007B1D61157105E9F0FB0101900020E9F713
:1033D0003197AF01461B570BC7010E942019F60118
:1033E00080819181C80FD91F1883C701DF91CF91C8
:1033F0001F910F91FF90EF90DF90CF90BF90AF9013
:103400000895C7010E940E19EACFFC0180819181C5
:10341000009711F00C94472A08950E948D2BFC010F
:10342000868197819C01295F3F4F37FF02C0295F4A
:103430003F4F83E0359527958A95E1F78481958103
:10344000289FA001299F500D389F500D112470E036
:1034500060E0878D90A10C949B2BFC018085918569
:103460000C940F1AAF92BF92CF92DF92EF92FF921D
:103470000F93CF93DF93EC017B015A01690188859B
:1034800099850E940F1AE885F985011101C001E0B4
:10349000048B058B81E090E0938B828B918B808BEA
:1034A000B586A486D786C686B701CF010E940C06D2
:1034B00088859985DF91CF910F91FF90EF90DF90F4
:1034C000CF90BF90AF900C945B1485ED8093BC00BF
:1034D00080914D0290914E02A0914F02B091500206
:1034E0000796A11DB11D23E0B695A79597958795E1
:1034F0002A95D1F72091BC0024FD03C010924B0205
:10350000089540914D0250914E0260914F0270918A
:103510005002452B462B472B69F30097A105B105B7
:1035200041F02AE22A95F1F700C00197A109B109FB
:10353000E1CF80914C020C9465111F920F920FB64F
:103540000F9211242F933F934F935F936F937F9329
:103550008F939F93AF93BF93EF93FF938091F70166
:103560009091F801A091F901B091FA01892B8A2B71
:103570008B2BD1F19091F601E091F401F091F501DE
:103580008081892780838091F7019091F801A09133
:10359000F901B091FA01181619061A061B069CF4D7
:1035A0008091F7019091F801A091F901B091FA0191
:1035B0000197A109B1098093F7019093F801A093B5
:1035C000F901B093FA01FF91EF91BF91AF919F91F3
:1035D0008F917F916F915F914F913F912F910F90BC
:1035E0000FBE0F901F90189580910001E3EAFAE05A
:1035F000E4919FEF90930001E13051F030F0E23020
:1036000069F060E00E94CE07DECF10926E00F9CF25
:1036100090916F009D7F90936F00F3CF9091700019
:103620009D7F9093700091E09093B0009091B100D5
:10363000987F94609093B1001092B300E2CF1F92F4
:103640000F920FB60F9211242F933F934F935F93D6
:103650006F937F938F939F93AF93BF93EF93FF935A
:1036600085E792E00E94ED06FF91EF91BF91AF9147
:103670009F918F917F916F915F914F913F912F918A
:103680000F900FBE0F901F9018951F920F920FB6BC
:103690000F9211242F938F939F93EF93FF93E091B9
:1036A0008502F09186028081E0918B02F0918C027C
:1036B00082FD1BC0908180918E028F5F8F7320915D
:1036C0008F02821741F0E0918E02F0E0EB58FD4F3F
:1036D000958F80938E02FF91EF919F918F912F9103
:1036E0000F900FBE0F901F9018958081F4CF1F92FE
:1036F0000F920FB60F9211242F933F938F939F93A6
:10370000AF93BF938091FB019091FC01A091FD01CB
:10371000B091FE013091E20123E0230F2D3758F5DF
:103720000196A11DB11D2093E2018093FB019093AE
:10373000FC01A093FD01B093FE018091E301909103
:10374000E401A091E501B091E6010196A11DB11D32
:103750008093E3019093E401A093E501B093E60127
:10376000BF91AF919F918F913F912F910F900FBE7D
:103770000F901F90189526E8230F0296A11DB11DEA
:10378000D2CF1F920F920FB60F9211242F933F9317
:103790004F935F936F937F938F939F93AF93BF9359
:1037A000EF93FF938091B900887F803609F44AC077
:1037B000F0F5883209F4A7C018F5803109F49BC0F0
:1037C000B8F4882309F4F9C0883009F494C0FF9153
:1037D000EF91BF91AF919F918F917F916F915F9189
:1037E0004F913F912F910F900FBE0F901F90189502
:1037F000883109F488C0803251F78093490214C09F
:10380000803409F49DC040F48033B9F38833F9F66D
:103810008093490285ECB0C0803509F485C08835B5
:1038200009F496C0883499F60E94651AD0CF883979
:1038300009F48CC038F5883729F050F4883611F037
:10384000803729F683E080934B021092E10157C044
:10385000883809F47BC0803919F0803809F0B7CF77
:103860008091E101803208F071C0E091E10181E0D6
:103870008E0F8093E1018091BB00F0E0EF53FE4F8B
:1038800080833DC0803B39F0E0F4803A09F479C090
:10389000883A09F09CCF84E080934B021092C001DB
:1038A0001092BF01E0912102F091220209958091CE
:1038B000BF0181110FC081E08093BF0110929F0171
:1038C00009C0803C09F4A6CF883C09F4A3CF883B0B
:1038D00009F07DCFE091C00181E08E0F8093C0019F
:1038E000F0E0E156FE4F80818093BB009091C001D3
:1038F0008091BF0129C0809126028093BB0085EC96
:103900008093BC0064CF9091480280914702981741
:1039100058F5E091480281E08E0F80934802F0E074
:10392000E95DFD4F8081E9CFE091480281E08E0F93
:10393000809348028091BB00F0E0E95DFD4F8083F9
:1039400090914802809147029817C8F285E8D8CF35
:10395000E091480281E08E0F809348028091BB0085
:10396000F0E0E95DFD4F808380914A0281115CCFD8
:1039700081E08093250284EA8093BC0010924B0280
:1039800026CF85EC8093BC0010924B028091E10120
:10399000803230F4E091E101F0E0EF53FE4F10820D
:1039A0006091E10170E0E0911F02F091200281EC52
:1039B00091E009951092E1010ACF1092490234CFAB
:1039C000E5E7F2E01382128288EE93E0A0E0B0E037
:1039D00084839583A683B78323E431E031832083F6
:1039E00025EC30E03587248724EC30E037872687C4
:1039F00020EC30E0318B208B21EC30E0338B228BBC
:103A000022EC30E0358B248B26EC30E0378B268B94
:103A1000118E128E138E148EE2E1F3E01382128265
:103A200084839583A683B78385E591E09183808322
:103A3000EEE1F3E08FEF90E09183808313821282B6
:103A4000158214820895CF93DF93CDB7DEB7A69782
:103A50000FB6F894DEBF0FBECDBF789484B58260F8
:103A600084BD84B5816084BD85B5826085BD85B522
:103A7000816085BD80916E00816080936E001092A0
:103A8000810080918100826080938100809181001B
:103A900081608093810080E8E82EF12C8091800085
:103AA0008160809380008091B10084608093B10038
:103AB0008091B00081608093B00080917A00846032
:103AC00080937A0080917A00826080937A0080915E
:103AD0007A00816080937A0080917A008068809378
:103AE0007A001092C1008EE190E00E94AB295C0147
:103AF000DC0157961C92579788E893E159969C935E
:103B00008E93589788EE93E05B969C938E935A978A
:103B100084E690E05D969C938E935C9782E090E0C3
:103B20000E94AB298C018DE090E0F80191838083A5
:103B300061E00E94FC07D5010D931C9382E090E0A8
:103B40000E94AB298C018CE090E0F8019183808386
:103B500060E00E94FC07D50115961C930E93149704
:103B600082E090E00E94AB298C0182E090E0F801B5
:103B70009183808360E00E94FC07D50117961C9317
:103B80000E93169780E190E00E94AB298C0183E0B0
:103B900090E0F8019183808385E090E093838283B5
:103BA00086E090E0958384838FEF90E0978386830F
:103BB000918780879387828761E083E00E94FC077A
:103BC00061E085E00E94FC0761E086E00E94FC075E
:103BD000D50119961C930E93189782E090E00E94ED
:103BE000AB292EE030E0FC0131832083D5011B9608
:103BF0009C938E931A978AE090E00E94AB294C0127
:103C000087E391E0F40191838083F382E28200E410
:103C100010E01583048380E490E00E94AB296C01DE
:103C2000D40116969C91F60113821282F582E482E9
:103C300017830683F186E08613870287168A158626
:103C400014861786168681E0858B848B2FEF3FEFD5
:103C5000338B228B318B208B878B108E128E118EA3
:103C60002BE031E031832083148E138E22E133E088
:103C7000368F258F8FEF84A385A386A387A390A774
:103C800080E89AE1A6E0B0E085AB96ABA7ABB0AF19
:103C900080EA96E8A1E0B0E081AF92AFA3AFB4AF05
:103CA00080E586AF17AED4011996DC92CE921897B4
:103CB00080E094E00E94AB29F60190A3878F892BC6
:103CC00009F40DC4C6010E940F1AD60116968D91F3
:103CD0009C91179714966D917C91AC0181970CF48F
:103CE000F0C24054510957FF02C04F5F5F4F5595D6
:103CF00047956255710977FF02C06F5F7F4F7595D9
:103D0000679510E4E12EF12C02E510E027E937E099
:103D1000C6010E94850582E0F60182A3858D968DFD
:103D2000892B09F4E6C28CE381A30E944E11D601CF
:103D300098968C9187FD1FC061E00E94FC0761E0AE
:103D4000F60180A50E94CE0761E070E080E090E07F
:103D50000E94AF0860E0D60198968C910E94CE0731
:103D60006AE070E080E090E00E94AF0861E0F60158
:103D700080A50E94CE07D6015D968D919C915E979D
:103D8000892B09F479C3D5962D913D914D915C9184
:103D9000D89760E074E284EF90E00E947C29205183
:103DA0003109410951095695479537952795209333
:103DB000B80044E063EB75E0C6010E94FE12F60114
:103DC00066816150C6010E94A31344E06FEA75E06A
:103DD000C6010E94FE12D60192968C9160E181305C
:103DE00009F064E1C6010E94A31344E06BEA75E0A8
:103DF000C6010E94FE128FE8F60185AF848195818D
:103E00008038910509F04FC38681978180349105F0
:103E100009F057C382A1813009F043C38FE9D6016D
:103E2000DD968C9312E16AEDC6010E94A313612F07
:103E3000C6010E94A31361E8C6010E94A313F60104
:103E400065ADC6010E94A31369EDC6010E94A313CC
:103E5000D60192968C9162E2813009F061EFC60141
:103E60000E94A31346E065EA75E0C6010E94FE12B7
:103E7000F601858D968D892B09F427C321AD32ADCE
:103E800043AD54AD60E074E284EF90E00E947C2981
:103E90002051310941095109569547953795279584
:103EA0002093B800D40118968D919C910E945B14C8
:103EB00060ED77E080E090E00E94AF08F50193822A
:103EC000828282E090E00E94AB297C0186E090E053
:103ED0000E94AB298C0188E6D8018C9382E193E0A3
:103EE00012969C938E93119713961C92139780E2CF
:103EF00090E015969C938E931497F701118300839D
:103F00000E944E11DD24D394D8011396DC92C8018F
:103F10000E945F15882309F4F9C2F501F586E4864D
:103F20008CE090E00E94AB29DC011D921C92F5010F
:103F30009787868787E090E00E94AB298C01DC019F
:103F40001696DC92169788E090E011969C938E93DB
:103F500082E390E013969C938E93129788EE93E001
:103F600015969C938E93149761E088E00E94FC075D
:103F7000F501138B028BB092F301A092F201D48A67
:103F8000168A158A0190F081E02D61E080810E94FF
:103F9000CE07D50118968D919C911A8219821C82A8
:103FA0001B822FEF30E03E832D83FE0131966F019F
:103FB000BF010E94C61586E1898383E08A838DE074
:103FC0008B838AE08C8386E38D831E8266E671E0B4
:103FD000CE0143960E94581983E190E00E94AB29DC
:103FE0008C01AE014D5E5F4FB6010E946919CE0192
:103FF00043960E94051AD5011E96ED91FC91808191
:1040000091810196DC01AA0FBB1FAE0FBF1F0D935C
:104010001C939183808305970CF079C2E09185020F
:10402000F091860282E08083E0918102F091820229
:104030001082E0918302F091840280E180831092EB
:104040008D02E0918902F0918A0286E08083E091FE
:104050008702F0918802808180618083E0918702ED
:10406000F0918802808188608083E0918702F091DE
:104070008802808180688083E0918702F0918802C5
:1040800080818F7D8083E090F201F090F301D70171
:104090001496ED91FC9180810E94A507F701248977
:1040A00031E0019709F030E0231709F441C0D7014E
:1040B000ED91FC918081222309F42CC260E00E94E2
:1040C000CE07F7010085118570E060E0D8018C9182
:1040D0000E942D0870E060E0F80182810E942D08A6
:1040E00070E060E0D80114968C910E942D08F701D1
:1040F00082819381DC01ED91FC910680F781E02DB6
:104100000995F70182819381DC01ED91FC91048096
:10411000F581E02D0995D7011496ED91FC918081F0
:104120000E94A50721E0019709F020E0F701248B08
:10413000D70154968C915497882309F444C018965B
:104140000D911C9119971A96ED91FC9180818E30FA
:1041500008F08E508770806480937C0080917A0094
:10416000806480937A0080917A0086FDFCCF609114
:10417000780070917900072E000C880B990B0E9433
:10418000D72620E030EC4FE754E40E94A7284B01EB
:104190005C0120E030E0A9010E94D02687FDC3C168
:1041A00020E030E040E85FE3C501B4010E944F2900
:1041B00018160CF4BCC1F80184869586A686B786CD
:1041C000C8010E948815D70155968D919C915697EC
:1041D0005C966D917C910E946829892B09F065C2DB
:1041E000F7018489882309F460C282819381DC010C
:1041F000ED91FC910680F781E02D0995F701A280F1
:10420000B380D501ED91FC9182809380F701048504
:10421000158565E671E0CE0143960E945819B801F4
:10422000C6010E94DB176C81CE0143960E94D01814
:104230006AE3CE0143960E94FB188D818A3040F4D8
:1042400041E050E06CE671E0CE0143960E94A9186F
:104250006D81CE0143960E94D01804E010E02AE060
:1042600030E050E040E0BE016D5E7F4FC501F401DB
:104270000995CE0143960E94051AD7011296AD907A
:10428000BC90D501ED91FC9182809380F70164850B
:104290007585C6010E94DB17C6010E94D7106AE827
:1042A00071E0873008F04CC1E82FF0E0E65AFE4D8F
:1042B0000C949E297F239E227023732376237923D7
:1042C0007C234052510957FF02C04F5F5F4F559505
:1042D00047956357710977FF02C06F5F7F4F7595F0
:1042E0006795F0E2EF2EF12C03E710E027EB35E0C5
:1042F0000FCD61E086A10E94FC0761E0F60187A175
:104300000E94FC07D60196968C919697082E000C79
:10431000990BFC01E157F54FE491F0E0EE0FFF1F20
:10432000EB57F54F25913491F60136A725A7FC01EF
:10433000EF58F54FE491D396EC93D39797968C91E1
:10434000082E000C990BFC01E157F54FE491F0E0C9
:10435000EE0FFF1FEB57F54FA591B491F601B0ABEF
:10436000A7A7FC01EF58F54F9491F60194AB8C91FF
:10437000E92FE82BEC93D6015B968D919C91892BCC
:1043800009F434C01FB7F8948091E701811127C068
:10439000E9E9FAE08491EBE7FAE09491E82FF0E0A4
:1043A000EE0FFF1FE556FA4FA591B491EC91E9236A
:1043B00021F461E08AE00E94CE0761E08AE00E9479
:1043C000FC078CB580618CBD8CB580648CBD61E0D0
:1043D0008DE00E94FC0761E08BE00E94FC07809169
:1043E000E7018F5F8093E7011FBFA1CC61E0F60179
:1043F00084A10E94FC0761E0D60195968C910E94F1
:10440000FC07F60184A1082E000C990BFC01E15772
:10441000F54FE491F0E0EE0FFF1FEB57F54F2591BC
:104420003491D6019A963C932E939997FC01EF58BC
:10443000F54FE491D196EC93D19795968C91082EF7
:10444000000C990BFC01E157F54FE491F0E0EE0F01
:10445000FF1FEB57F54FA591B491F601B4A7A3A7A1
:10446000FC01EF58F54F9491F60192AB8C91E92F36
:10447000E095E823EC935BCCF601838D948D892B3A
:1044800021F086AD97AD0E94D410D6019F96ED9194
:10449000FC91D0979081D4968C91809589238083CC
:1044A00088CC8FECBCCC8036910559F486819781FD
:1044B000409739F482A1813031F480E1D601DD9654
:1044C0008C9312E0B0CC8FEAF9CFD60107A4F0A903
:1044D000E02D8081D4969C91892B8083E3CC07E5E5
:1044E0001AE0F8016491662341F085E792E00E94AA
:1044F0000F070F5F1F4F892BA1F742E050E063E6E3
:1045000071E085E792E00E942F06FFCFFFCF118276
:10451000108284CD61E00E94CE07F70180859185ED
:104520000E948815F8CD812C912C540144CE812C09
:10453000912C80E8A82E8FE3B82E3DCE6EE671E078
:10454000C6010E94581902E010E022E330E050E07A
:1045500040E0B601C501F4010995C6010E94051AA3
:10456000D7011296AD90BC90D501ED91FC9182805F
:104570009380D7011C96ED91FC91B1E1B9831A8229
:1045800022E030E0A601B601808191810E9492165E
:104590006A8170E016E0759567951A95E1F7072E28
:1045A000000C880B990B0E94D72620E030E040E8F1
:1045B0005EE30E9436272B013C01698170E090E0A8
:1045C00080E00E94D5269B01AC01C301B2010E948C
:1045D0003B281A8E198E1C8E1B8E1E8E1D8E0E94DD
:1045E0001929CB014AE0B6010E948626F601019006
:1045F0000020E9F73197AF014C195D09B601CE01F2
:1046000049960E9420191C8A1B8A1E8A1D8A188EB0
:104610001F8ABE01675E7F4FCE0143960E944119FB
:1046200067EFCE0143960E94FB18811104C0CE01B2
:1046300043960E940E1941E050E06EE871E0CE0111
:1046400043960E94A918811104C0CE0143960E948E
:104650000E191A8219821C821B821E821D82BE01C3
:104660006D5E7F4FC6010E94411902E010E022E317
:1046700030E042E350E0B601C501F4010995C601FE
:104680000E94051ACE0143960E94051ACE01499652
:104690000E94051AD70112968D919C91DC01ED9133
:1046A000FC910480F581E02D0995F70185899689B3
:1046B000628D738D0E9468295C01892B09F099C075
:1046C00065E671E0CE0143960E9458190E947F066C
:1046D00097FD18C0682FCE0143960E94FB18F6CFB5
:1046E00062E771E02DCF66E771E02ACF6AE771E0FB
:1046F00027CF6EE771E024CF62E871E021CF66E852
:1047000071E01ECF60E971E0C6010E945819B60140
:10471000CE0143960E9466188C01C6010E94051ABC
:104720000F3F1F4F09F4A0C18F89988D892BD9F0B5
:104730008B889C886AE370E0C4010E94A22B0097DA
:1047400039F08C01081919090F3F100709F019C138
:1047500060E070E0CB018114910419F0C4010E9463
:104760005F267AA369A3D70118968D919C915F8DDE
:1047700048A1EF8DF8A1EF3FF10519F014F05FEFBC
:1047800040E0252F342F37FF02C030E020E03A838D
:104790002983522D432DFFEF2F16310419F014F009
:1047A0005FEF40E0252F342F37FF02C030E020E0DC
:1047B0003C832B8359A14AA129A13AA12F3F31055E
:1047C00019F014F05FEF40E0252F342F37FF02C0BF
:1047D00030E020E03E832D83B6010E94C615CE0155
:1047E00043960E94051A85E792E00E946B0697FFA8
:1047F000FACFD70155968D919C91569758966D9109
:104800007C910E946829892B09F00CC2F70106856A
:10481000178564857585C6010E94DB17B601C8013E
:104820000E94FF15D70151969C938E935097009745
:1048300009F4F8C1FC0120892111F4C11296AD9050
:10484000BC90D501ED91FC91808091801A821982F3
:104850001C821B821E821D82BC01C6010E9441195E
:1048600002E010E02AE030E050E040E0B601C5018F
:10487000F4010995C6010E94051AD7011896ED9119
:10488000FC911997268137813CA32BA380849184C6
:10489000828593859EA38DA350968D919C91DC017A
:1048A00017968C91882331F180911E0390911F03FC
:1048B0009A83898380912003909121039C838B8329
:1048C00080912203909123039E838D83B601CF01B3
:1048D0000E94C615F7018085918540E050E060E8B0
:1048E0007FE3DC011C964D935D936D937C931F9742
:1048F0000E948815F701A089B18916968C911697A8
:10490000882309F465C182899389FC011682519636
:10491000AD90BC9025010B2C000C660877088081B7
:104920009181209100012813A8C0E3EAFAE01491D4
:1049300017FD4EC161E00E94FC07112309F419C163
:10494000123009F086C18091B10087608093B10078
:104950002FEF3FEFA9010DE445284628472809F02D
:1049600014C10093B3002093F7013093F8014093F2
:10497000F9015093FA018091700082608093700079
:1049800027C13FEFA31AB30A82E0A816B10409F0C9
:104990003FC0980150E040E0BE016D5E7F4FC60110
:1049A0000E94B01989819A81009771F10E945F2657
:1049B00078A36F8FC6010E94051A2F89388DA80130
:1049C0004F5F5F4FBE016D5E7F4FC6010E94B01901
:1049D0008B899C890097B9F169817A81611571058C
:1049E00081F14D895E892D813E814217530748F13F
:1049F0000E94AD2B8D819E81988F8F8B1E821D8290
:104A0000C6010E94051A90CE60E070E0CB01D0CFC5
:104A100093E0A916B10489F6980150E040E0BE0188
:104A20006D5E7F4FC6010E94B01989819A810097FF
:104A300021F00E945F261B01BDCF60E070E0CB013A
:104A4000FACF0E94472A89819A819C8B8B8B8B811C
:104A50009C819E8B8D8B8D819E81988F8F8B1A82EE
:104A600019821C821B82CACF67E971E0C6010E94CD
:104A70005819C6010E94051AB2CE2F3F09F0A8C0EE
:104A800080930001E3EAFAE014911F3F09F4A0C00B
:104A9000113039F148F0123009F445C017FD98C0C3
:104AA00061E00E94FC074CCF14BC15BC24B5226009
:104AB00024BD25B5216025BD9C013327F901E157AF
:104AC000F54FE491F0E0EE0FFF1FEB57F54F4591E6
:104AD0005491F901EF58F54FE491E093E90110E0AA
:104AE00029CF1092800010928100209181002860CF
:104AF00020938100209181002160209381009C01FE
:104B00003327F901E157F54FE491F0E0EE0FFF1F75
:104B1000EB57F54F45915491F901EF58F54FE4915A
:104B2000E093E80107CF1092B0001092B1002091FD
:104B3000B00022602093B0002091B100216020934A
:104B4000B1009C013327F901E157F54FE491F0E002
:104B5000EE0FFF1FEB57F54F459154915093F50120
:104B60004093F401F901EF58F54FE491E093F60119
:104B7000E1CE85B5887F856085BD2FEF3FEFA90128
:104B80000DE4452846284728A9F00DE4712C28ECAF
:104B900030E0D5010E94A42928EE33E040E050E047
:104BA0000E947C29113009F466C0123009F4D9CE74
:104BB00011110EC007BD2093EE013093EF01409319
:104BC000F0015093F10180916E00826080936E003D
:104BD000D7011696ED91FC9180810E94A50701975F
:104BE000B9F7D7015096ED91FC91519787818823B1
:104BF00081F018968D919C91EBA1FCA1FA83E98339
:104C00009C828B822DA13EA13E832D83B6010E9402
:104C1000C615D7015096ED91FC91B1E0B08BF7012C
:104C2000118A108AD70155968D919C9156970196BD
:104C300056969C938E935597E0E0F0E0EF2B09F4A5
:104C400022CA0E94D906882309F41DCA0E940000C6
:104C50001ACA113021F580918100887F836080938A
:104C6000810045284628472811F52FEF3FEFA9017D
:104C700001EE64E0762E802F972D9093890080932B
:104C800088002093EA013093EB014093EC015093AC
:104C9000ED0180916F00826080936F0099CF01EEEB
:104CA00045284628472829F094E0792E70CF01EE58
:104CB000FBCF84E0782E2FEF3FEFA90173CF1F9336
:104CC000FC0199278827BC01E89411911032E9F37F
:104CD000193010F01E30C8F31B3251F01D3249F468
:104CE000689406C00E949126610F711D811D911D5F
:104CF000119110531A30B0F33EF490958095709551
:104D000061957F4F8F4F9F4F1F910895BB274A306A
:104D100031F4992322F4BDE2909581959F4F0C9434
:104D2000A726592F482F372F262F660F771F881F4A
:104D3000991F660F771F881F991F620F731F841FAB
:104D4000951F660F771F881F991F0895BB27FB01CA
:104D50005527AA27880F991FAA1FA41710F0A41B74
:104D600083955051B9F7A05DAA3308F0A95DA193CE
:104D7000009779F7B111B1931192CB010C94C02631
:104D8000DC01FC01672F71917723E1F7329704C0B2
:104D90007C916D9370836291AE17BF07C8F308953D
:104DA0000E94122708F481E00895E89409C097FB57
:104DB0003EF490958095709561957F4F8F4F9F4FF2
:104DC0009923A9F0F92F96E9BB279395F695879536
:104DD00077956795B795F111F8CFFAF4BB0F11F4F9
:104DE00060FF1BC06F5F7F4F8F4F9F4F16C08823A0
:104DF00011F096E911C0772321F09EE8872F762FD6
:104E000005C0662371F096E8862F70E060E02AF016
:104E10009A95660F771F881FDAF7880F9695879502
:104E200097F90895990F0008550FAA0BE0E8FEEFD7
:104E300016161706E807F907C0F012161306E4075E
:104E4000F50798F0621B730B840B950B39F40A2657
:104E500061F0232B242B252B21F408950A2609F435
:104E6000A140A6958FEF811D811D08950E944927BD
:104E70000C94BA270E94AC2738F00E94B32720F088
:104E8000952311F00C94A3270C94A92711240C94BA
:104E9000EE270E94CB2770F3959FC1F3950F50E04A
:104EA000551F629FF001729FBB27F00DB11D639FDC
:104EB000AA27F00DB11DAA1F649F6627B00DA11D82
:104EC000661F829F2227B00DA11D621F739FB00D28
:104ED000A11D621F839FA00D611D221F749F332798
:104EE000A00D611D231F849F600D211D822F762F31
:104EF0006A2F11249F5750409AF0F1F088234AF00E
:104F0000EE0FFF1FBB1F661F771F881F9150504079
:104F1000A9F79E3F510580F00C94A3270C94EE272F
:104F20005F3FE4F3983ED4F3869577956795B79500
:104F3000F795E7959F5FC1F7FE2B880F911D96951A
:104F4000879597F9089597F99F6780E870E060E08A
:104F500008959FEF80EC089500240A941616170612
:104F600018060906089500240A941216130614065A
:104F700005060895092E0394000C11F4882352F0BD
:104F8000BB0F40F4BF2B11F460FF04C06F5F7F4F75
:104F90008F4F9F4F089557FD9058440F551F59F05C
:104FA0005F3F71F04795880F97FB991F61F09F3F16
:104FB00079F087950895121613061406551FF2CF3F
:104FC0004695F1DF08C0161617061806991FF1CF8F
:104FD00086957105610508940895E894BB276627B6
:104FE0007727CB0197F908952F923F924F925F92C6
:104FF0006F927F928F929F92AF92BF92CF92DF92E9
:10500000EF92FF920F931F93CF93DF93CDB7DEB74D
:10501000CA1BDB0B0FB6F894DEBF0FBECDBF0994E1
:105020002A88398848885F846E847D848C849B8438
:10503000AA84B984C884DF80EE80FD800C811B8146
:10504000AA81B981CE0FD11D0FB6F894DEBF0FBE75
:10505000CDBFED010895A29FB001B39FC001A39FF2
:10506000700D811D1124911DB29F700D811D1124A1
:10507000911D08955058BB27AA270E9452280C94CE
:10508000BA270E94AC2738F00E94B32720F039F4E9
:105090009F3F19F426F40C94A9270EF4E095E7FB42
:1050A0000C94A327E92F0E94CB2758F3BA17620765
:1050B00073078407950720F079F4A6F50C94ED2783
:1050C0000EF4E0950B2EBA2FA02D0B01B901900123
:1050D0000C01CA01A0011124FF27591B99F0593F67
:1050E00050F4503E68F11A16F040A22F232F342FAF
:1050F0004427585FF3CF469537952795A795F040FD
:105100005395C9F77EF41F16BA0B620B730B840B11
:10511000BAF09150A1F0FF0FBB1F661F771F881FC9
:10512000C2F70EC0BA0F621F731F841F48F4879521
:1051300077956795B795F7959E3F08F0B0CF939513
:10514000880F08F09927EE0F9795879508950E948C
:10515000BB280C94BA270E94B32758F00E94AC27B2
:1051600040F029F45F3F29F00C94A32751110C94CF
:10517000EE270C94A9270E94CB2768F39923B1F35B
:10518000552391F3951B550BBB27AA27621773076D
:10519000840738F09F5F5F4F220F331F441FAA1F01
:1051A000A9F335D00E2E3AF0E0E832D091505040BD
:1051B000E695001CCAF72BD0FE2F29D0660F771F6B
:1051C000881FBB1F261737074807AB07B0E809F051
:1051D000BB0B802DBF01FF2793585F4F3AF09E3FD6
:1051E000510578F00C94A3270C94EE275F3FE4F36D
:1051F000983ED4F3869577956795B795F7959F5F19
:10520000C9F7880F911D9695879597F90895E1E064
:10521000660F771F881FBB1F621773078407BA07C3
:1052200020F0621B730B840BBA0BEE1F88F7E0951E
:1052300008950E9420296894B1110C94EE270895D6
:105240000E94D32788F09F5798F0B92F9927B7511C
:10525000B0F0E1F0660F771F881F991F1AF0BA951A
:10526000C9F714C0B13091F00E94ED27B1E0089564
:105270000C94ED27672F782F8827B85F39F0B93F56
:10528000CCF3869577956795B395D9F73EF49095CD
:105290008095709561957F4F8F4F9F4F08950E9425
:1052A000122708F48FEF0895AA1BBB1B51E107C01A
:1052B000AA1FBB1FA617B70710F0A61BB70B881FA6
:1052C000991F5A95A9F780959095BC01CD01089535
:1052D00097FB072E16F4009407D077FD09D00E94A3
:1052E000542907FC05D03EF4909581959F4F089571
:1052F000709561957F4F0895A1E21A2EAA1BBB1BE2
:10530000FD010DC0AA1FBB1FEE1FFF1FA217B30791
:10531000E407F50720F0A21BB30BE40BF50B661FA7
:10532000771F881F991F1A9469F76095709580956B
:1053300090959B01AC01BD01CF010895EE0FFF1FB9
:105340000590F491E02D09940E942B28B7FF089551
:10535000821B930B08950F931F93CF93DF9382309B
:10536000910510F482E090E0E0912603F09127038C
:1053700030E020E0B0E0A0E0309799F4211531054D
:1053800009F44AC0281B390B24303105D8F58A812D
:105390009B816115710589F1FB0193838283FE0175
:1053A00011C0408151810281138148175907E0F0F3
:1053B0004817590799F4109761F012960C931297B9
:1053C00013961C933296CF01DF91CF911F910F91CD
:1053D00008950093260310932703F4CF2115310578
:1053E00051F04217530738F0A901DB019A01BD01C2
:1053F000DF01F801C1CFEF01F9CF9093270380932C
:105400002603CDCFFE01E20FF31F8193919322502B
:10541000310939832883D7CF209124033091250384
:10542000232B41F420910301309104013093250393
:1054300020932403209101013091020121153105AF
:1054400041F42DB73EB74091050150910601241B50
:10545000350BE0912403F0912503E217F307A0F444
:105460002E1B3F0B2817390778F0AC014E5F5F4FBA
:105470002417350748F04E0F5F1F509325034093C4
:105480002403819391939FCFF0E0E0E09CCFCF93F2
:10549000DF930097E9F0FC01329713821282A0910A
:1054A0002603B0912703ED0130E020E01097A1F42E
:1054B00020813181820F931F209124033091250395
:1054C0002817390709F061C0F0932503E0932403FE
:1054D000DF91CF910895EA01CE17DF07E8F54A8101
:1054E0005B819E0141155105B1F7E901FB83EA8318
:1054F00049915991C40FD51FEC17FD0761F48081C4
:1055000091810296840F951FE90199838883828196
:1055100093819B838A83F0E0E0E012968D919C91C9
:1055200013970097B9F52D913C911197CD010296F3
:10553000820F931F209124033091250328173907E8
:1055400039F6309751F51092270310922603B09345
:105550002503A0932403BCCFD383C2834081518110
:10556000840F951FC817D90761F44E5F5F4F88817C
:105570009981480F591F518340838A819B8193836E
:1055800082832115310509F0B0CFF0932703E09312
:1055900026039ECFFD01DC01C0CF13821282D7CF3C
:1055A000B0E0A0E0E6EDFAE20C94F6278C0100975B
:1055B00051F4CB010E94AB298C01C801CDB7DEB7F5
:1055C000E0E10C941228FC01E60FF71F9C01225029
:1055D0003109E217F30708F49DC0D901CD91DC91A0
:1055E0001197C617D70798F0C530D10530F3CE0113
:1055F00004978617970708F3C61BD70B2297C1930A
:10560000D1936D937C93CF010E94472AD6CF5B0143
:10561000AC1ABD0A4C018C0E9D1EA0912603B091C0
:105620002703512C412CF12CE12C109731F580915E
:105630002403909125038815990509F05CC046164E
:10564000570608F058C0809101019091020100971F
:1056500041F48DB79EB74091050150910601841B1E
:10566000950BE817F90708F055C0F0932503E09370
:105670002403F90171836083A0CF8D919C911197D0
:1056800012966C90129713967C901397A815B905F3
:1056900059F56C0142E0C40ED11CCA14DB0420F1A0
:1056A000AC014A195B09DA011296159780F0628203
:1056B000738251834083D9016D937C93E114F1048B
:1056C00071F0D7011396FC93EE93129776CF229642
:1056D0008C0F9D1FF90191838083F301EFCFF0932D
:1056E0002703E093260369CF4816590608F42C01D6
:1056F0007D01D3019ACFCB010E94AB297C01009799
:1057000049F0AE01B8010E94922BC8010E94472ABD
:10571000870153CF10E000E050CF81E090E0F89493
:105720000C94CE2BFB01DC0102C001900D92415084
:105730005040D8F70895DC0101C06D9341505040AE
:10574000E0F70895FC018191861721F08823D9F7AD
:10575000992708953197CF010895FB01DC0101904D
:105760000D920020E1F70895FB0151915523A9F016
:10577000BF01DC014D9145174111E1F759F4CD010D
:105780000190002049F04D9140154111C9F3FB01F2
:105790004111EFCF81E090E001970895F894FFCF99
:1057A000FF00002803800000000000790D2F06850F
:1057B000150B06880AF60F1F10F70F131007102697
:1057C00010F60F3F0B0514F809410A3F0F220FAAEC
:1057D0000E4B0E00000000321AE715E2152D1A00DC
:1057E0000000000F072F065C065C07CD066B06BFA6
:1057F0000600000000CC129F128515F60F98128546
:105800001276120D0A00537A6961210030004D6F43
:105810006E005475650057656400546875004672E3
:1058200069005361740053756E002D2D2D004300E7
:0E583000436F6C6F723A00416C61726D3A000A
:00000001FF
